{
  "_format": "hh-sol-artifact-1",
  "contractName": "FarmManager",
  "sourceName": "contracts/Game/Player/FarmManager.sol",
  "abi": [
    {
      "inputs": [
        {
          "internalType": "address",
          "name": "_gameManager",
          "type": "address"
        }
      ],
      "stateMutability": "nonpayable",
      "type": "constructor"
    },
    {
      "anonymous": false,
      "inputs": [
        {
          "indexed": true,
          "internalType": "address",
          "name": "previousOwner",
          "type": "address"
        },
        {
          "indexed": true,
          "internalType": "address",
          "name": "newOwner",
          "type": "address"
        }
      ],
      "name": "OwnershipTransferred",
      "type": "event"
    },
    {
      "inputs": [
        {
          "internalType": "address",
          "name": "farm",
          "type": "address"
        }
      ],
      "name": "harvestAll",
      "outputs": [],
      "stateMutability": "nonpayable",
      "type": "function"
    },
    {
      "inputs": [
        {
          "internalType": "address",
          "name": "farm",
          "type": "address"
        },
        {
          "internalType": "uint256",
          "name": "resource",
          "type": "uint256"
        }
      ],
      "name": "harvestResource",
      "outputs": [],
      "stateMutability": "nonpayable",
      "type": "function"
    },
    {
      "inputs": [
        {
          "internalType": "address",
          "name": "farm",
          "type": "address"
        },
        {
          "internalType": "uint256",
          "name": "resource",
          "type": "uint256"
        }
      ],
      "name": "levelUpResource",
      "outputs": [],
      "stateMutability": "nonpayable",
      "type": "function"
    },
    {
      "inputs": [],
      "name": "owner",
      "outputs": [
        {
          "internalType": "address",
          "name": "",
          "type": "address"
        }
      ],
      "stateMutability": "view",
      "type": "function"
    },
    {
      "inputs": [],
      "name": "renounceOwnership",
      "outputs": [],
      "stateMutability": "nonpayable",
      "type": "function"
    },
    {
      "inputs": [
        {
          "internalType": "address",
          "name": "newOwner",
          "type": "address"
        }
      ],
      "name": "transferOwnership",
      "outputs": [],
      "stateMutability": "nonpayable",
      "type": "function"
    }
  ],
  "bytecode": "0x608060405234801561001057600080fd5b506040516115f03803806115f083398101604081905261002f916100ad565b6100383361005d565b600180546001600160a01b0319166001600160a01b03929092169190911790556100db565b600080546001600160a01b038381166001600160a01b0319831681178455604051919092169283917f8be0079c531659141344cd1fd0a4f28419497f9722a3daafe3b4186f6b6457e09190a35050565b6000602082840312156100be578081fd5b81516001600160a01b03811681146100d4578182fd5b9392505050565b611506806100ea6000396000f3fe608060405234801561001057600080fd5b50600436106100725760003560e01c8063715018a611610050578063715018a6146100b25780638da5cb5b146100ba578063f2fde38b146100e657600080fd5b80632ef02f43146100775780634a7af5651461008c578063699bdca91461009f575b600080fd5b61008a61008536600461126b565b6100f9565b005b61008a61009a36600461126b565b61094f565b61008a6100ad36600461122c565b610d25565b61008a610e6e565b6000546040805173ffffffffffffffffffffffffffffffffffffffff9092168252519081900360200190f35b61008a6100f436600461122c565b610e82565b610103828261094f565b600154604080517f71f10b8b000000000000000000000000000000000000000000000000000000008152905160009273ffffffffffffffffffffffffffffffffffffffff16916371f10b8b916004808301926020929190829003018186803b15801561016e57600080fd5b505afa158015610182573d6000803e3d6000fd5b505050506040513d601f19601f820116820180604052508101906101a6919061124f565b6040517f1e8fca2d0000000000000000000000000000000000000000000000000000000081526004810184905290915060009073ffffffffffffffffffffffffffffffffffffffff831690631e8fca2d9060240160e06040518083038186803b15801561021257600080fd5b505afa158015610226573d6000803e3d6000fd5b505050506040513d601f19601f8201168201806040525081019061024a91906112b6565b73ffffffffffffffffffffffffffffffffffffffff85811660009081526005602090815260408083208884529091528082205460c0850151855192517f70a082310000000000000000000000000000000000000000000000000000000081523060048201529596509094909391909116906370a082319060240160206040518083038186803b1580156102dc57600080fd5b505afa1580156102f0573d6000803e3d6000fd5b505050506040513d601f19601f820116820180604052508101906103149190611386565b84516040517f70a082310000000000000000000000000000000000000000000000000000000081523060048201529192506103c19173ffffffffffffffffffffffffffffffffffffffff909116906370a08231906024015b60206040518083038186803b15801561038457600080fd5b505afa158015610398573d6000803e3d6000fd5b505050506040513d601f19601f820116820180604052508101906103bc9190611386565b610f3e565b83516040517f70a082310000000000000000000000000000000000000000000000000000000081523360048201526104189173ffffffffffffffffffffffffffffffffffffffff16906370a082319060240161036c565b835161042390610fcf565b61042c82610f3e565b83516040517f23b872dd0000000000000000000000000000000000000000000000000000000081523360048201523060248201526044810184905273ffffffffffffffffffffffffffffffffffffffff909116906323b872dd90606401602060405180830381600087803b1580156104a357600080fd5b505af11580156104b7573d6000803e3d6000fd5b505050506040513d601f19601f820116820180604052508101906104db9190611296565b5083516040517f70a08231000000000000000000000000000000000000000000000000000000008152306004820152600091839173ffffffffffffffffffffffffffffffffffffffff909116906370a082319060240160206040518083038186803b15801561054957600080fd5b505afa15801561055d573d6000803e3d6000fd5b505050506040513d601f19601f820116820180604052508101906105819190611386565b61058b919061142f565b855160608701516040517f095ea7b300000000000000000000000000000000000000000000000000000000815273ffffffffffffffffffffffffffffffffffffffff918216600482015260248101849052929350169063095ea7b390604401602060405180830381600087803b15801561060457600080fd5b505af1158015610618573d6000803e3d6000fd5b505050506040513d601f19601f8201168201806040525081019061063c9190611296565b5060608501516040517f70a0823100000000000000000000000000000000000000000000000000000000815230600482015260009173ffffffffffffffffffffffffffffffffffffffff16906370a082319060240160206040518083038186803b1580156106a957600080fd5b505afa1580156106bd573d6000803e3d6000fd5b505050506040513d601f19601f820116820180604052508101906106e19190611386565b60608701516040517fb6b55f250000000000000000000000000000000000000000000000000000000081526004810185905291925073ffffffffffffffffffffffffffffffffffffffff169063b6b55f2590602401600060405180830381600087803b15801561075057600080fd5b505af1158015610764573d6000803e3d6000fd5b50505060608701516040517f70a0823100000000000000000000000000000000000000000000000000000000815230600482015260009250839173ffffffffffffffffffffffffffffffffffffffff16906370a082319060240160206040518083038186803b1580156107d657600080fd5b505afa1580156107ea573d6000803e3d6000fd5b505050506040513d601f19601f8201168201806040525081019061080e9190611386565b610818919061142f565b60608801516040517fa9059cbb00000000000000000000000000000000000000000000000000000000815273ffffffffffffffffffffffffffffffffffffffff8d811660048301526024820184905292935091169063a9059cbb90604401602060405180830381600087803b15801561089057600080fd5b505af11580156108a4573d6000803e3d6000fd5b505050506040513d601f19601f820116820180604052508101906108c89190611296565b5073ffffffffffffffffffffffffffffffffffffffff8a1660009081526005602090815260408083208c8452909152812080546001929061090a908490611417565b90915550505073ffffffffffffffffffffffffffffffffffffffff90981660009081526006602090815260408083209983529890529690962042905550505050505050565b73ffffffffffffffffffffffffffffffffffffffff8216600090815260066020908152604080832084845290915281205461098a904261142f565b90508015610d205773ffffffffffffffffffffffffffffffffffffffff8084166000908152600660209081526040808320868452825280832042905560015481517f71f10b8b0000000000000000000000000000000000000000000000000000000081529151939416926371f10b8b92600480840193919291829003018186803b158015610a1757600080fd5b505afa158015610a2b573d6000803e3d6000fd5b505050506040513d601f19601f82011682018060405250810190610a4f919061124f565b6040517f1e8fca2d0000000000000000000000000000000000000000000000000000000081526004810185905290915060009073ffffffffffffffffffffffffffffffffffffffff831690631e8fca2d9060240160e06040518083038186803b158015610abb57600080fd5b505afa158015610acf573d6000803e3d6000fd5b505050506040513d601f19601f82011682018060405250810190610af391906112b6565b73ffffffffffffffffffffffffffffffffffffffff86811660008181526005602090815260408083208a84528252918290205482518084018452601281527f42616c616e6365204265666f72653a202573000000000000000000000000000092810192909252608086015192517f70a082310000000000000000000000000000000000000000000000000000000081526004810194909452949550610bf69390929116906370a08231906024015b60206040518083038186803b158015610bb957600080fd5b505afa158015610bcd573d6000803e3d6000fd5b505050506040513d601f19601f82011682018060405250810190610bf19190611386565b611070565b60808201516040517f156e29f600000000000000000000000000000000000000000000000000000000815273ffffffffffffffffffffffffffffffffffffffff888116600483015260248201849052604482018790529091169063156e29f690606401600060405180830381600087803b158015610c7357600080fd5b505af1158015610c87573d6000803e3d6000fd5b5050604080518082018252601181527f42616c616e63652041667465723a2025730000000000000000000000000000006020820152608086015191517f70a0823100000000000000000000000000000000000000000000000000000000815273ffffffffffffffffffffffffffffffffffffffff8b81166004830152610d1c95509193509116906370a0823190602401610ba1565b5050505b505050565b600154604080517f71f10b8b000000000000000000000000000000000000000000000000000000008152905160009273ffffffffffffffffffffffffffffffffffffffff16916371f10b8b916004808301926020929190829003018186803b158015610d9057600080fd5b505afa158015610da4573d6000803e3d6000fd5b505050506040513d601f19601f82011682018060405250810190610dc8919061124f565b905060005b8173ffffffffffffffffffffffffffffffffffffffff166366f5a7476040518163ffffffff1660e01b815260040160206040518083038186803b158015610e1357600080fd5b505afa158015610e27573d6000803e3d6000fd5b505050506040513d601f19601f82011682018060405250810190610e4b9190611386565b811015610d2057610e5c838261094f565b80610e6681611446565b915050610dcd565b610e76611105565b610e806000611186565b565b610e8a611105565b73ffffffffffffffffffffffffffffffffffffffff8116610f32576040517f08c379a000000000000000000000000000000000000000000000000000000000815260206004820152602660248201527f4f776e61626c653a206e6577206f776e657220697320746865207a65726f206160448201527f646472657373000000000000000000000000000000000000000000000000000060648201526084015b60405180910390fd5b610f3b81611186565b50565b610f3b81604051602401610f5491815260200190565b604080517fffffffffffffffffffffffffffffffffffffffffffffffffffffffffffffffe08184030181529190526020810180517bffffffffffffffffffffffffffffffffffffffffffffffffffffffff167ff82c50f1000000000000000000000000000000000000000000000000000000001790526111fb565b60405173ffffffffffffffffffffffffffffffffffffffff82166024820152610f3b90604401604080517fffffffffffffffffffffffffffffffffffffffffffffffffffffffffffffffe08184030181529190526020810180517bffffffffffffffffffffffffffffffffffffffffffffffffffffffff167f2c2ecbc2000000000000000000000000000000000000000000000000000000001790526111fb565b611101828260405160240161108692919061139e565b604080517fffffffffffffffffffffffffffffffffffffffffffffffffffffffffffffffe08184030181529190526020810180517bffffffffffffffffffffffffffffffffffffffffffffffffffffffff167fb60e72cc000000000000000000000000000000000000000000000000000000001790526111fb565b5050565b60005473ffffffffffffffffffffffffffffffffffffffff163314610e80576040517f08c379a000000000000000000000000000000000000000000000000000000000815260206004820181905260248201527f4f776e61626c653a2063616c6c6572206973206e6f7420746865206f776e65726044820152606401610f29565b6000805473ffffffffffffffffffffffffffffffffffffffff8381167fffffffffffffffffffffffff0000000000000000000000000000000000000000831681178455604051919092169283917f8be0079c531659141344cd1fd0a4f28419497f9722a3daafe3b4186f6b6457e09190a35050565b80516a636f6e736f6c652e6c6f67602083016000808483855afa5050505050565b8051611227816114ae565b919050565b60006020828403121561123d578081fd5b8135611248816114ae565b9392505050565b600060208284031215611260578081fd5b8151611248816114ae565b6000806040838503121561127d578081fd5b8235611288816114ae565b946020939093013593505050565b6000602082840312156112a7578081fd5b81518015158114611248578182fd5b600060e082840312156112c7578081fd5b60405160e0810181811067ffffffffffffffff8211171561130f577f4e487b710000000000000000000000000000000000000000000000000000000083526041600452602483fd5b60405261131b8361121c565b81526113296020840161121c565b602082015261133a6040840161121c565b604082015261134b6060840161121c565b606082015261135c6080840161121c565b608082015261136d60a0840161121c565b60a082015260c083015160c08201528091505092915050565b600060208284031215611397578081fd5b5051919050565b6040815260008351806040840152815b818110156113cb57602081870181015160608684010152016113ae565b818111156113dc5782606083860101525b50602083019390935250601f919091017fffffffffffffffffffffffffffffffffffffffffffffffffffffffffffffffe01601606001919050565b6000821982111561142a5761142a61147f565b500190565b6000828210156114415761144161147f565b500390565b60007fffffffffffffffffffffffffffffffffffffffffffffffffffffffffffffffff8214156114785761147861147f565b5060010190565b7f4e487b7100000000000000000000000000000000000000000000000000000000600052601160045260246000fd5b73ffffffffffffffffffffffffffffffffffffffff81168114610f3b57600080fdfea2646970667358221220c72916b3603d14c3dfa2f2abcc3a1becc47033cc482733515f8f893fae93662964736f6c63430008040033",
  "linkReferences": {},
  "deployedLinkReferences": {}
}