{
  "_format": "hh-sol-artifact-1",
  "contractName": "Farm",
  "sourceName": "contracts/Game/Player/Farm.sol",
  "abi": [
    {
      "inputs": [
        {
          "internalType": "address",
          "name": "_owner",
          "type": "address"
        },
        {
          "internalType": "address",
          "name": "_gameManager",
          "type": "address"
        },
        {
          "internalType": "uint256",
          "name": "_x",
          "type": "uint256"
        },
        {
          "internalType": "uint256",
          "name": "_y",
          "type": "uint256"
        }
      ],
      "name": "initialise",
      "outputs": [],
      "stateMutability": "nonpayable",
      "type": "function"
    },
    {
      "inputs": [],
      "name": "owner",
      "outputs": [
        {
          "internalType": "address",
          "name": "",
          "type": "address"
        }
      ],
      "stateMutability": "view",
      "type": "function"
    },
    {
      "inputs": [
        {
          "internalType": "address",
          "name": "token",
          "type": "address"
        },
        {
          "internalType": "uint256",
          "name": "amount",
          "type": "uint256"
        }
      ],
      "name": "transferToken",
      "outputs": [],
      "stateMutability": "nonpayable",
      "type": "function"
    }
  ],
  "bytecode": "0x608060405234801561001057600080fd5b5061048e806100206000396000f3fe608060405234801561001057600080fd5b50600436106100415760003560e01c80631072cbea146100465780638da5cb5b1461005b5780638ed57ab2146100a4575b600080fd5b6100596100543660046103e8565b6100b7565b005b60005461007b9073ffffffffffffffffffffffffffffffffffffffff1681565b60405173ffffffffffffffffffffffffffffffffffffffff909116815260200160405180910390f35b6100596100b23660046103a3565b61029b565b600160009054906101000a900473ffffffffffffffffffffffffffffffffffffffff1673ffffffffffffffffffffffffffffffffffffffff16634b2d07cf6040518163ffffffff1660e01b815260040160206040518083038186803b15801561011f57600080fd5b505afa158015610133573d6000803e3d6000fd5b505050506040513d601f19601f820116820180604052508101906101579190610380565b73ffffffffffffffffffffffffffffffffffffffff163373ffffffffffffffffffffffffffffffffffffffff16146101f0576040517f08c379a000000000000000000000000000000000000000000000000000000000815260206004820152600d60248201527f214661726d204d616e616765720000000000000000000000000000000000000060448201526064015b60405180910390fd5b6040517fa9059cbb0000000000000000000000000000000000000000000000000000000081523360048201526024810182905273ffffffffffffffffffffffffffffffffffffffff83169063a9059cbb90604401602060405180830381600087803b15801561025e57600080fd5b505af1158015610272573d6000803e3d6000fd5b505050506040513d601f19601f820116820180604052508101906102969190610413565b505050565b60015474010000000000000000000000000000000000000000900460ff1615610320576040517f08c379a000000000000000000000000000000000000000000000000000000000815260206004820152600b60248201527f496e697469616c6973656400000000000000000000000000000000000000000060448201526064016101e7565b6000805473ffffffffffffffffffffffffffffffffffffffff9586167fffffffffffffffffffffffff0000000000000000000000000000000000000000918216179091556001805494909516931692909217909255600291909155600355565b600060208284031215610391578081fd5b815161039c81610433565b9392505050565b600080600080608085870312156103b8578283fd5b84356103c381610433565b935060208501356103d381610433565b93969395505050506040820135916060013590565b600080604083850312156103fa578182fd5b823561040581610433565b946020939093013593505050565b600060208284031215610424578081fd5b8151801515811461039c578182fd5b73ffffffffffffffffffffffffffffffffffffffff8116811461045557600080fd5b5056fea26469706673582212204bdd124c786537d9d5fa4cc7b8e52dfee487d09ed0db84efa7391892ad3ed7fb64736f6c63430008040033",
  "linkReferences": {},
  "deployedLinkReferences": {}
}