{
  "contractName": "AaveV3Underlying",
  "abi": [
    {
      "inputs": [],
      "stateMutability": "nonpayable",
      "type": "constructor"
    },
    {
      "inputs": [],
      "name": "asset",
      "outputs": [
        {
          "internalType": "address",
          "name": "",
          "type": "address"
        }
      ],
      "stateMutability": "view",
      "type": "function"
    },
    {
      "inputs": [],
      "name": "depositToken",
      "outputs": [
        {
          "internalType": "address",
          "name": "",
          "type": "address"
        }
      ],
      "stateMutability": "view",
      "type": "function"
    },
    {
      "inputs": [
        {
          "internalType": "address",
          "name": "_a",
          "type": "address"
        },
        {
          "internalType": "address",
          "name": "_lp",
          "type": "address"
        }
      ],
      "name": "initialiser",
      "outputs": [],
      "stateMutability": "nonpayable",
      "type": "function"
    },
    {
      "inputs": [
        {
          "internalType": "uint256",
          "name": "amount",
          "type": "uint256"
        }
      ],
      "name": "deposit",
      "outputs": [],
      "stateMutability": "nonpayable",
      "type": "function"
    },
    {
      "inputs": [
        {
          "internalType": "uint256",
          "name": "amount",
          "type": "uint256"
        }
      ],
      "name": "withdraw",
      "outputs": [],
      "stateMutability": "nonpayable",
      "type": "function"
    }
  ],
  "bytecode": "0x608060405234801561001057600080fd5b506002805460ff60a01b1916600160a01b179055610fe3806100336000396000f3fe608060405234801561001057600080fd5b50600436106100675760003560e01c806380844fba1161005057806380844fba146100ca578063b6b55f25146100dd578063c89039c5146100f057600080fd5b80632e1a7d4d1461006c57806338d52e0f14610081575b600080fd5b61007f61007a366004610c80565b610110565b005b6000546100a19073ffffffffffffffffffffffffffffffffffffffff1681565b60405173ffffffffffffffffffffffffffffffffffffffff909116815260200160405180910390f35b61007f6100d8366004610cbe565b6105f6565b61007f6100eb366004610c80565b6107d9565b6001546100a19073ffffffffffffffffffffffffffffffffffffffff1681565b6001546040517f70a0823100000000000000000000000000000000000000000000000000000000815230600482015260009173ffffffffffffffffffffffffffffffffffffffff16906370a0823190602401602060405180830381865afa15801561017f573d6000803e3d6000fd5b505050506040513d601f19601f820116820180604052508101906101a39190610cf7565b6001546040517f23b872dd0000000000000000000000000000000000000000000000000000000081523360048201523060248201526044810185905291925073ffffffffffffffffffffffffffffffffffffffff16906323b872dd906064016020604051808303816000875af1158015610221573d6000803e3d6000fd5b505050506040513d601f19601f820116820180604052508101906102459190610d10565b506001546040517f70a08231000000000000000000000000000000000000000000000000000000008152306004820152600091839173ffffffffffffffffffffffffffffffffffffffff909116906370a0823190602401602060405180830381865afa1580156102b9573d6000803e3d6000fd5b505050506040513d601f19601f820116820180604052508101906102dd9190610cf7565b6102e79190610d39565b6001546002546040517f095ea7b300000000000000000000000000000000000000000000000000000000815273ffffffffffffffffffffffffffffffffffffffff918216600482015260248101849052929350169063095ea7b3906044016020604051808303816000875af1158015610364573d6000803e3d6000fd5b505050506040513d601f19601f820116820180604052508101906103889190610d10565b50600080546040517f70a0823100000000000000000000000000000000000000000000000000000000815230600482015273ffffffffffffffffffffffffffffffffffffffff909116906370a0823190602401602060405180830381865afa1580156103f8573d6000803e3d6000fd5b505050506040513d601f19601f8201168201806040525081019061041c9190610cf7565b6002546000546040517f69328dec00000000000000000000000000000000000000000000000000000000815273ffffffffffffffffffffffffffffffffffffffff91821660048201526024810186905230604482015292935016906369328dec90606401600060405180830381600087803b15801561049a57600080fd5b505af11580156104ae573d6000803e3d6000fd5b5050600080546040517f70a0823100000000000000000000000000000000000000000000000000000000815230600482015291935084925073ffffffffffffffffffffffffffffffffffffffff16906370a0823190602401602060405180830381865afa158015610523573d6000803e3d6000fd5b505050506040513d601f19601f820116820180604052508101906105479190610cf7565b6105519190610d39565b6000546040517fa9059cbb0000000000000000000000000000000000000000000000000000000081523360048201526024810183905291925073ffffffffffffffffffffffffffffffffffffffff169063a9059cbb906044015b6020604051808303816000875af11580156105ca573d6000803e3d6000fd5b505050506040513d601f19601f820116820180604052508101906105ee9190610d10565b505050505050565b60025474010000000000000000000000000000000000000000900460ff161561067f576040517f08c379a000000000000000000000000000000000000000000000000000000000815260206004820152600b60248201527f696e746961696c69736564000000000000000000000000000000000000000000604482015260640160405180910390fd5b60028054600080547fffffffffffffffffffffffff00000000000000000000000000000000000000001673ffffffffffffffffffffffffffffffffffffffff8681169182178355740100000000000000000000000000000000000000007fffffffffffffffffffffff0000000000000000000000000000000000000000009094168682161793909317938490556040517f35ea6a7500000000000000000000000000000000000000000000000000000000815260048101919091529092909116906335ea6a75906024016101e060405180830381865afa158015610767573d6000803e3d6000fd5b505050506040513d601f19601f8201168201806040525081019061078b9190610e8a565b6101000151600180547fffffffffffffffffffffffff00000000000000000000000000000000000000001673ffffffffffffffffffffffffffffffffffffffff909216919091179055505050565b600080546040517f70a0823100000000000000000000000000000000000000000000000000000000815230600482015273ffffffffffffffffffffffffffffffffffffffff909116906370a0823190602401602060405180830381865afa158015610848573d6000803e3d6000fd5b505050506040513d601f19601f8201168201806040525081019061086c9190610cf7565b6000546040517f23b872dd0000000000000000000000000000000000000000000000000000000081523360048201523060248201526044810185905291925073ffffffffffffffffffffffffffffffffffffffff16906323b872dd906064016020604051808303816000875af11580156108ea573d6000803e3d6000fd5b505050506040513d601f19601f8201168201806040525081019061090e9190610d10565b50600080546040517f70a08231000000000000000000000000000000000000000000000000000000008152306004820152839173ffffffffffffffffffffffffffffffffffffffff16906370a0823190602401602060405180830381865afa15801561097e573d6000803e3d6000fd5b505050506040513d601f19601f820116820180604052508101906109a29190610cf7565b6109ac9190610d39565b6000546002546040517f095ea7b300000000000000000000000000000000000000000000000000000000815273ffffffffffffffffffffffffffffffffffffffff918216600482015260248101849052929350169063095ea7b3906044016020604051808303816000875af1158015610a29573d6000803e3d6000fd5b505050506040513d601f19601f82011682018060405250810190610a4d9190610d10565b506001546040517f70a0823100000000000000000000000000000000000000000000000000000000815230600482015260009173ffffffffffffffffffffffffffffffffffffffff16906370a0823190602401602060405180830381865afa158015610abd573d6000803e3d6000fd5b505050506040513d601f19601f82011682018060405250810190610ae19190610cf7565b600254600080546040517f617ba03700000000000000000000000000000000000000000000000000000000815273ffffffffffffffffffffffffffffffffffffffff918216600482015260248101879052306044820152606481019290925292935091169063617ba03790608401600060405180830381600087803b158015610b6957600080fd5b505af1158015610b7d573d6000803e3d6000fd5b50506001546040517f70a082310000000000000000000000000000000000000000000000000000000081523060048201526000935084925073ffffffffffffffffffffffffffffffffffffffff909116906370a0823190602401602060405180830381865afa158015610bf4573d6000803e3d6000fd5b505050506040513d601f19601f82011682018060405250810190610c189190610cf7565b610c229190610d39565b6001546040517fa9059cbb0000000000000000000000000000000000000000000000000000000081523360048201526024810183905291925073ffffffffffffffffffffffffffffffffffffffff169063a9059cbb906044016105ab565b600060208284031215610c9257600080fd5b5035919050565b73ffffffffffffffffffffffffffffffffffffffff81168114610cbb57600080fd5b50565b60008060408385031215610cd157600080fd5b8235610cdc81610c99565b91506020830135610cec81610c99565b809150509250929050565b600060208284031215610d0957600080fd5b5051919050565b600060208284031215610d2257600080fd5b81518015158114610d3257600080fd5b9392505050565b81810381811115610d73577f4e487b7100000000000000000000000000000000000000000000000000000000600052601160045260246000fd5b92915050565b6040516101e0810167ffffffffffffffff81118282101715610dc4577f4e487b7100000000000000000000000000000000000000000000000000000000600052604160045260246000fd5b60405290565b600060208284031215610ddc57600080fd5b6040516020810181811067ffffffffffffffff82111715610e26577f4e487b7100000000000000000000000000000000000000000000000000000000600052604160045260246000fd5b6040529151825250919050565b80516fffffffffffffffffffffffffffffffff81168114610e5357600080fd5b919050565b805164ffffffffff81168114610e5357600080fd5b805161ffff81168114610e5357600080fd5b8051610e5381610c99565b60006101e08284031215610e9d57600080fd5b610ea5610d79565b610eaf8484610dca565b8152610ebd60208401610e33565b6020820152610ece60408401610e33565b6040820152610edf60608401610e33565b6060820152610ef060808401610e33565b6080820152610f0160a08401610e33565b60a0820152610f1260c08401610e58565b60c0820152610f2360e08401610e6d565b60e0820152610100610f36818501610e7f565b90820152610120610f48848201610e7f565b90820152610140610f5a848201610e7f565b90820152610160610f6c848201610e7f565b90820152610180610f7e848201610e33565b908201526101a0610f90848201610e33565b908201526101c0610fa2848201610e33565b90820152939250505056fea26469706673582212201fa4fafd553b9bd7ef77aa4cef6a08b5f364587a17a496213fc28982e54c855364736f6c63430008110033",
  "immutableReferences": {},
  "source": "pragma solidity >=0.8.0;\r\n\r\nimport \"@openzeppelin/contracts/token/ERC20/IERC20.sol\";\r\nimport \"./Underlying.sol\";\r\n\r\nstruct ReserveConfigurationMap {\r\n    uint256 data;\r\n}\r\n\r\nstruct ReserveData {\r\n    ReserveConfigurationMap configuration;\r\n    uint128 liquidityIndex;\r\n    uint128 currentLiquidityRate;\r\n    uint128 variableBorrowIndex;\r\n    uint128 currentVariableBorrowRate;\r\n    uint128 currentStableBorrowRate;\r\n    uint40 lastUpdateTimestamp;\r\n    uint16 id;\r\n    address aTokenAddress;\r\n    address stableDebtTokenAddress;\r\n    address variableDebtTokenAddress;\r\n    address interestRateStrategyAddress;\r\n    uint128 accruedToTreasury;\r\n    uint128 unbacked;\r\n    uint128 isolationModeTotalDebt;\r\n}\r\n\r\ninterface IAave {\r\n    function supply(address asset,uint256 amount, address onBehalfOf, uint16 referralCode) external;\r\n    function withdraw(address asset,uint256 amount,address to) external;\r\n    function borrow(address asset,uint256 amount,uint256 interestRateMode,uint16 referralCode,address onBehalfOf) external;\r\n    function repay(address asset,uint256 amount,uint256 interestRateMode,address onBehalfOf) external;\r\n    function getReserveData(address asset) external view returns (ReserveData memory);\r\n}\r\n\r\ncontract AaveV3Underlying is Underlying{\r\n    \r\n    address lendingPool;\r\n    bool initialised;\r\n\r\n    constructor(){\r\n        //set the implementation as initialised\r\n        initialised = true;\r\n    }\r\n\r\n    function initialiser(address _a, address _lp) public {\r\n        require(initialised == false, \"intiailised\");\r\n        initialised = true;\r\n        asset = _a;\r\n        lendingPool = _lp;\r\n        ReserveData memory reserve = IAave(lendingPool).getReserveData(asset);\r\n        depositToken = reserve.aTokenAddress;\r\n    }\r\n\r\n    // Todo: Reentrancy Guard\r\n    function deposit(uint amount) external override {\r\n        uint startAsset = IERC20(asset).balanceOf(address(this));\r\n        IERC20(asset).transferFrom(msg.sender, address(this), amount);\r\n        uint changeAsset = IERC20(asset).balanceOf(address(this)) - startAsset;\r\n\r\n        IERC20(asset).approve(lendingPool, changeAsset);\r\n\r\n        uint startAToken = IERC20(depositToken).balanceOf(address(this));\r\n        IAave(lendingPool).supply(asset, changeAsset, address(this), 0);\r\n        uint changeAToken = IERC20(depositToken).balanceOf(address(this)) - startAToken; \r\n\r\n        IERC20(depositToken).transfer(msg.sender, changeAToken);\r\n    }\r\n\r\n    // Todo: Reentrancy Guard\r\n    function withdraw(uint amount) external override {\r\n        uint startAToken = IERC20(depositToken).balanceOf(address(this));\r\n        IERC20(depositToken).transferFrom(msg.sender, address(this), amount);\r\n        uint changeAToken = IERC20(depositToken).balanceOf(address(this)) - startAToken;\r\n\r\n        IERC20(depositToken).approve(lendingPool, changeAToken);\r\n\r\n        uint startAsset = IERC20(asset).balanceOf(address(this));\r\n        IAave(lendingPool).withdraw(asset, changeAToken, address(this));\r\n        uint changeAsset = IERC20(asset).balanceOf(address(this)) - startAsset; \r\n\r\n        IERC20(asset).transfer(msg.sender, changeAsset);\r\n    }\r\n}",
  "sourcePath": "C:\\Users\\Khera\\Documents\\github\\DeFi-Something-I-Guess-Contracts\\contracts\\Game\\Resources\\AaveV3Underlying.sol",
  "compiler": {
    "name": "solc",
    "version": "0.8.17+commit.8df45f5f.Emscripten.clang"
  },
  "schemaVersion": "3.4.10",
  "updatedAt": "2022-10-23T09:27:04.511Z",
  "devdoc": {
    "kind": "dev",
    "methods": {},
    "version": 1
  },
  "userdoc": {
    "kind": "user",
    "methods": {},
    "version": 1
  }
}