{
  "contractName": "DynamicExchange",
  "abi": [
    {
      "anonymous": false,
      "inputs": [
        {
          "indexed": true,
          "internalType": "address",
          "name": "previousOwner",
          "type": "address"
        },
        {
          "indexed": true,
          "internalType": "address",
          "name": "newOwner",
          "type": "address"
        }
      ],
      "name": "OwnershipTransferred",
      "type": "event"
    },
    {
      "inputs": [],
      "name": "owner",
      "outputs": [
        {
          "internalType": "address",
          "name": "",
          "type": "address"
        }
      ],
      "stateMutability": "view",
      "type": "function"
    },
    {
      "inputs": [],
      "name": "renounceOwnership",
      "outputs": [],
      "stateMutability": "nonpayable",
      "type": "function"
    },
    {
      "inputs": [
        {
          "internalType": "address",
          "name": "newOwner",
          "type": "address"
        }
      ],
      "name": "transferOwnership",
      "outputs": [],
      "stateMutability": "nonpayable",
      "type": "function"
    },
    {
      "inputs": [],
      "name": "exchangeRate",
      "outputs": [
        {
          "internalType": "uint256",
          "name": "",
          "type": "uint256"
        }
      ],
      "stateMutability": "view",
      "type": "function"
    },
    {
      "inputs": [
        {
          "internalType": "uint256",
          "name": "amount",
          "type": "uint256"
        },
        {
          "internalType": "bool",
          "name": "unwrapToken",
          "type": "bool"
        }
      ],
      "name": "redeem",
      "outputs": [],
      "stateMutability": "nonpayable",
      "type": "function"
    },
    {
      "inputs": [
        {
          "internalType": "uint256",
          "name": "amount",
          "type": "uint256"
        }
      ],
      "name": "unwrap",
      "outputs": [],
      "stateMutability": "nonpayable",
      "type": "function"
    }
  ],
  "bytecode": "0x608060405234801561001057600080fd5b5061001a3361001f565b61006f565b600080546001600160a01b038381166001600160a01b0319831681178455604051919092169283917f8be0079c531659141344cd1fd0a4f28419497f9722a3daafe3b4186f6b6457e09190a35050565b610b098061007e6000396000f3fe608060405234801561001057600080fd5b50600436106100725760003560e01c8063d65a06b011610050578063d65a06b0146100c4578063de0e9a3e146100d7578063f2fde38b146100ea57600080fd5b80633ba0b9a914610077578063715018a6146100925780638da5cb5b1461009c575b600080fd5b61007f6100fd565b6040519081526020015b60405180910390f35b61009a61023d565b005b60005460405173ffffffffffffffffffffffffffffffffffffffff9091168152602001610089565b61009a6100d2366004610957565b610251565b61009a6100e5366004610987565b6103d2565b61009a6100f83660046109c2565b610797565b600254604080517f18160ddd000000000000000000000000000000000000000000000000000000008152905160009273ffffffffffffffffffffffffffffffffffffffff16916318160ddd9160048083019260209291908290030181865afa15801561016d573d6000803e3d6000fd5b505050506040513d601f19601f8201168201806040525081019061019191906109e6565b61019c906004610a2e565b6001546040517f70a0823100000000000000000000000000000000000000000000000000000000815230600482015273ffffffffffffffffffffffffffffffffffffffff909116906370a0823190602401602060405180830381865afa15801561020a573d6000803e3d6000fd5b505050506040513d601f19601f8201168201806040525081019061022e91906109e6565b6102389190610a4b565b905090565b610245610853565b61024f60006108d4565b565b6002546040517f23b872dd0000000000000000000000000000000000000000000000000000000081523360048201523060248201526044810184905273ffffffffffffffffffffffffffffffffffffffff909116906323b872dd906064016020604051808303816000875af11580156102ce573d6000803e3d6000fd5b505050506040513d601f19601f820116820180604052508101906102f29190610a86565b506000670de0b6b3a76400006103066100fd565b6103109085610a2e565b61031a9190610a4b565b905081156103305761032b816103d2565b505050565b6001546040517fa9059cbb0000000000000000000000000000000000000000000000000000000081523360048201526024810183905273ffffffffffffffffffffffffffffffffffffffff9091169063a9059cbb906044015b6020604051808303816000875af11580156103a8573d6000803e3d6000fd5b505050506040513d601f19601f820116820180604052508101906103cc9190610a86565b50505050565b600154604080517f38d52e0f000000000000000000000000000000000000000000000000000000008152905160009273ffffffffffffffffffffffffffffffffffffffff16916338d52e0f9160048083019260209291908290030181865afa158015610442573d6000803e3d6000fd5b505050506040513d601f19601f820116820180604052508101906104669190610aa3565b6040517f70a0823100000000000000000000000000000000000000000000000000000000815230600482015273ffffffffffffffffffffffffffffffffffffffff91909116906370a0823190602401602060405180830381865afa1580156104d2573d6000803e3d6000fd5b505050506040513d601f19601f820116820180604052508101906104f691906109e6565b6001546040517f2e1a7d4d0000000000000000000000000000000000000000000000000000000081526004810185905291925073ffffffffffffffffffffffffffffffffffffffff1690632e1a7d4d90602401600060405180830381600087803b15801561056357600080fd5b505af1158015610577573d6000803e3d6000fd5b50505050600081600160009054906101000a900473ffffffffffffffffffffffffffffffffffffffff1673ffffffffffffffffffffffffffffffffffffffff166338d52e0f6040518163ffffffff1660e01b8152600401602060405180830381865afa1580156105eb573d6000803e3d6000fd5b505050506040513d601f19601f8201168201806040525081019061060f9190610aa3565b6040517f70a0823100000000000000000000000000000000000000000000000000000000815230600482015273ffffffffffffffffffffffffffffffffffffffff91909116906370a0823190602401602060405180830381865afa15801561067b573d6000803e3d6000fd5b505050506040513d601f19601f8201168201806040525081019061069f91906109e6565b6106a99190610ac0565b9050600160009054906101000a900473ffffffffffffffffffffffffffffffffffffffff1673ffffffffffffffffffffffffffffffffffffffff166338d52e0f6040518163ffffffff1660e01b8152600401602060405180830381865afa158015610718573d6000803e3d6000fd5b505050506040513d601f19601f8201168201806040525081019061073c9190610aa3565b6040517fa9059cbb0000000000000000000000000000000000000000000000000000000081523360048201526024810183905273ffffffffffffffffffffffffffffffffffffffff919091169063a9059cbb90604401610389565b61079f610853565b73ffffffffffffffffffffffffffffffffffffffff8116610847576040517f08c379a000000000000000000000000000000000000000000000000000000000815260206004820152602660248201527f4f776e61626c653a206e6577206f776e657220697320746865207a65726f206160448201527f646472657373000000000000000000000000000000000000000000000000000060648201526084015b60405180910390fd5b610850816108d4565b50565b60005473ffffffffffffffffffffffffffffffffffffffff16331461024f576040517f08c379a000000000000000000000000000000000000000000000000000000000815260206004820181905260248201527f4f776e61626c653a2063616c6c6572206973206e6f7420746865206f776e6572604482015260640161083e565b6000805473ffffffffffffffffffffffffffffffffffffffff8381167fffffffffffffffffffffffff0000000000000000000000000000000000000000831681178455604051919092169283917f8be0079c531659141344cd1fd0a4f28419497f9722a3daafe3b4186f6b6457e09190a35050565b801515811461085057600080fd5b6000806040838503121561096a57600080fd5b82359150602083013561097c81610949565b809150509250929050565b60006020828403121561099957600080fd5b5035919050565b73ffffffffffffffffffffffffffffffffffffffff8116811461085057600080fd5b6000602082840312156109d457600080fd5b81356109df816109a0565b9392505050565b6000602082840312156109f857600080fd5b5051919050565b7f4e487b7100000000000000000000000000000000000000000000000000000000600052601160045260246000fd5b8082028115828204841417610a4557610a456109ff565b92915050565b600082610a81577f4e487b7100000000000000000000000000000000000000000000000000000000600052601260045260246000fd5b500490565b600060208284031215610a9857600080fd5b81516109df81610949565b600060208284031215610ab557600080fd5b81516109df816109a0565b81810381811115610a4557610a456109ff56fea2646970667358221220ca4fdae4e5393939cbd8ec3cf7167ff772bc9d01da749320878afa4bce6b214c64736f6c63430008110033",
  "immutableReferences": {},
  "source": "pragma solidity >=0.8.0;\r\n\r\nimport \"@openzeppelin/contracts/token/ERC20/IERC20.sol\";\r\nimport \"@openzeppelin/contracts/access/Ownable.sol\";\r\nimport \"../Resources/WrappedResource.sol\";\r\nimport \"hardhat/console.sol\";\r\n\r\ncontract DynamicExchange is Ownable {\r\n\r\n    address token0;\r\n    address token1;\r\n\r\n    function exchangeRate() public view returns(uint){\r\n        return IERC20(token0).balanceOf(address(this)) / (IERC20(token1).totalSupply() * 4);\r\n    }\r\n\r\n    function redeem(uint amount, bool unwrapToken) external {\r\n        IERC20(token1).transferFrom(msg.sender, address(this), amount);\r\n        uint redeemAmount = (amount * exchangeRate()) / 1e18;\r\n        if(unwrapToken){\r\n            unwrap(redeemAmount);\r\n        }\r\n        else {\r\n            IERC20(token0).transfer(msg.sender, redeemAmount);\r\n        }\r\n    }\r\n\r\n    function unwrap(uint amount) public {\r\n        uint startBalance = IERC20(WrappedResource(token0).asset()).balanceOf(address(this));\r\n        WrappedResource(token0).withdraw(amount);\r\n        uint changeBalance = IERC20(WrappedResource(token0).asset()).balanceOf(address(this)) - startBalance;\r\n\r\n        IERC20(WrappedResource(token0).asset()).transfer(msg.sender, changeBalance);\r\n    }\r\n}\r\n",
  "sourcePath": "C:\\Users\\Khera\\Documents\\github\\DeFi-Something-I-Guess-Contracts\\contracts\\Game\\Exchange\\DynamicExchange.sol",
  "compiler": {
    "name": "solc",
    "version": "0.8.17+commit.8df45f5f.Emscripten.clang"
  },
  "schemaVersion": "3.4.10",
  "updatedAt": "2022-10-23T09:27:04.487Z",
  "devdoc": {
    "kind": "dev",
    "methods": {
      "owner()": {
        "details": "Returns the address of the current owner."
      },
      "renounceOwnership()": {
        "details": "Leaves the contract without owner. It will not be possible to call `onlyOwner` functions anymore. Can only be called by the current owner. NOTE: Renouncing ownership will leave the contract without an owner, thereby removing any functionality that is only available to the owner."
      },
      "transferOwnership(address)": {
        "details": "Transfers ownership of the contract to a new account (`newOwner`). Can only be called by the current owner."
      }
    },
    "version": 1
  },
  "userdoc": {
    "kind": "user",
    "methods": {},
    "version": 1
  }
}