{
  "contractName": "EmittedResource",
  "abi": [
    {
      "inputs": [],
      "stateMutability": "nonpayable",
      "type": "constructor"
    },
    {
      "anonymous": false,
      "inputs": [
        {
          "indexed": true,
          "internalType": "address",
          "name": "owner",
          "type": "address"
        },
        {
          "indexed": true,
          "internalType": "address",
          "name": "spender",
          "type": "address"
        },
        {
          "indexed": false,
          "internalType": "uint256",
          "name": "value",
          "type": "uint256"
        }
      ],
      "name": "Approval",
      "type": "event"
    },
    {
      "anonymous": false,
      "inputs": [
        {
          "indexed": true,
          "internalType": "address",
          "name": "from",
          "type": "address"
        },
        {
          "indexed": true,
          "internalType": "address",
          "name": "to",
          "type": "address"
        },
        {
          "indexed": false,
          "internalType": "uint256",
          "name": "value",
          "type": "uint256"
        }
      ],
      "name": "Transfer",
      "type": "event"
    },
    {
      "inputs": [
        {
          "internalType": "address",
          "name": "owner",
          "type": "address"
        },
        {
          "internalType": "address",
          "name": "spender",
          "type": "address"
        }
      ],
      "name": "allowance",
      "outputs": [
        {
          "internalType": "uint256",
          "name": "",
          "type": "uint256"
        }
      ],
      "stateMutability": "view",
      "type": "function"
    },
    {
      "inputs": [
        {
          "internalType": "address",
          "name": "spender",
          "type": "address"
        },
        {
          "internalType": "uint256",
          "name": "amount",
          "type": "uint256"
        }
      ],
      "name": "approve",
      "outputs": [
        {
          "internalType": "bool",
          "name": "",
          "type": "bool"
        }
      ],
      "stateMutability": "nonpayable",
      "type": "function"
    },
    {
      "inputs": [
        {
          "internalType": "address",
          "name": "account",
          "type": "address"
        }
      ],
      "name": "balanceOf",
      "outputs": [
        {
          "internalType": "uint256",
          "name": "",
          "type": "uint256"
        }
      ],
      "stateMutability": "view",
      "type": "function"
    },
    {
      "inputs": [],
      "name": "decimals",
      "outputs": [
        {
          "internalType": "uint8",
          "name": "",
          "type": "uint8"
        }
      ],
      "stateMutability": "view",
      "type": "function"
    },
    {
      "inputs": [
        {
          "internalType": "address",
          "name": "spender",
          "type": "address"
        },
        {
          "internalType": "uint256",
          "name": "subtractedValue",
          "type": "uint256"
        }
      ],
      "name": "decreaseAllowance",
      "outputs": [
        {
          "internalType": "bool",
          "name": "",
          "type": "bool"
        }
      ],
      "stateMutability": "nonpayable",
      "type": "function"
    },
    {
      "inputs": [
        {
          "internalType": "address",
          "name": "spender",
          "type": "address"
        },
        {
          "internalType": "uint256",
          "name": "addedValue",
          "type": "uint256"
        }
      ],
      "name": "increaseAllowance",
      "outputs": [
        {
          "internalType": "bool",
          "name": "",
          "type": "bool"
        }
      ],
      "stateMutability": "nonpayable",
      "type": "function"
    },
    {
      "inputs": [],
      "name": "owner",
      "outputs": [
        {
          "internalType": "address",
          "name": "",
          "type": "address"
        }
      ],
      "stateMutability": "view",
      "type": "function"
    },
    {
      "inputs": [],
      "name": "totalSupply",
      "outputs": [
        {
          "internalType": "uint256",
          "name": "",
          "type": "uint256"
        }
      ],
      "stateMutability": "view",
      "type": "function"
    },
    {
      "inputs": [
        {
          "internalType": "address",
          "name": "to",
          "type": "address"
        },
        {
          "internalType": "uint256",
          "name": "amount",
          "type": "uint256"
        }
      ],
      "name": "transfer",
      "outputs": [
        {
          "internalType": "bool",
          "name": "",
          "type": "bool"
        }
      ],
      "stateMutability": "nonpayable",
      "type": "function"
    },
    {
      "inputs": [
        {
          "internalType": "address",
          "name": "from",
          "type": "address"
        },
        {
          "internalType": "address",
          "name": "to",
          "type": "address"
        },
        {
          "internalType": "uint256",
          "name": "amount",
          "type": "uint256"
        }
      ],
      "name": "transferFrom",
      "outputs": [
        {
          "internalType": "bool",
          "name": "",
          "type": "bool"
        }
      ],
      "stateMutability": "nonpayable",
      "type": "function"
    },
    {
      "inputs": [
        {
          "internalType": "string",
          "name": "__name",
          "type": "string"
        },
        {
          "internalType": "string",
          "name": "__symbol",
          "type": "string"
        },
        {
          "internalType": "uint256",
          "name": "_emissionRate",
          "type": "uint256"
        },
        {
          "internalType": "address",
          "name": "_gameManager",
          "type": "address"
        }
      ],
      "name": "initialiser",
      "outputs": [],
      "stateMutability": "nonpayable",
      "type": "function"
    },
    {
      "inputs": [],
      "name": "name",
      "outputs": [
        {
          "internalType": "string",
          "name": "",
          "type": "string"
        }
      ],
      "stateMutability": "view",
      "type": "function"
    },
    {
      "inputs": [],
      "name": "symbol",
      "outputs": [
        {
          "internalType": "string",
          "name": "",
          "type": "string"
        }
      ],
      "stateMutability": "view",
      "type": "function"
    },
    {
      "inputs": [
        {
          "internalType": "address",
          "name": "_minter",
          "type": "address"
        },
        {
          "internalType": "bool",
          "name": "state",
          "type": "bool"
        }
      ],
      "name": "changeMinter",
      "outputs": [],
      "stateMutability": "nonpayable",
      "type": "function"
    },
    {
      "inputs": [
        {
          "internalType": "address",
          "name": "to",
          "type": "address"
        },
        {
          "internalType": "uint256",
          "name": "level",
          "type": "uint256"
        },
        {
          "internalType": "uint256",
          "name": "time",
          "type": "uint256"
        }
      ],
      "name": "mint",
      "outputs": [],
      "stateMutability": "nonpayable",
      "type": "function"
    },
    {
      "inputs": [
        {
          "internalType": "uint256",
          "name": "level",
          "type": "uint256"
        },
        {
          "internalType": "uint256",
          "name": "time",
          "type": "uint256"
        }
      ],
      "name": "mintAmount",
      "outputs": [
        {
          "internalType": "uint256",
          "name": "amount",
          "type": "uint256"
        }
      ],
      "stateMutability": "view",
      "type": "function"
    },
    {
      "inputs": [
        {
          "internalType": "address",
          "name": "from",
          "type": "address"
        },
        {
          "internalType": "uint256",
          "name": "amount",
          "type": "uint256"
        }
      ],
      "name": "burn",
      "outputs": [],
      "stateMutability": "nonpayable",
      "type": "function"
    }
  ],
  "bytecode": "0x6080604052603c6007553480156200001657600080fd5b5060408051602080820183526000808352835191820190935291825290600362000041838262000111565b50600462000050828262000111565b50506009805460ff60a01b1916600160a01b17905550620001dd565b634e487b7160e01b600052604160045260246000fd5b600181811c908216806200009757607f821691505b602082108103620000b857634e487b7160e01b600052602260045260246000fd5b50919050565b601f8211156200010c57600081815260208120601f850160051c81016020861015620000e75750805b601f850160051c820191505b818110156200010857828155600101620000f3565b5050505b505050565b81516001600160401b038111156200012d576200012d6200006c565b62000145816200013e845462000082565b84620000be565b602080601f8311600181146200017d5760008415620001645750858301515b600019600386901b1c1916600185901b17855562000108565b600085815260208120601f198616915b82811015620001ae578886015182559484019460019091019084016200018d565b5085821015620001cd5787850151600019600388901b60f8161c191681555b5050505050600190811b01905550565b6118a880620001ed6000396000f3fe608060405234801561001057600080fd5b506004361061011b5760003560e01c806339509351116100b257806395d89b4111610081578063a457c2d711610066578063a457c2d714610290578063a9059cbb146102a3578063dd62ed3e146102b657600080fd5b806395d89b41146102755780639dc29fac1461027d57600080fd5b806339509351146101d45780635e739afb146101e757806370a08231146101fa5780638da5cb5b1461023057600080fd5b806318160ddd116100ee57806318160ddd146101975780631d56c6091461019f57806323b872dd146101b2578063313ce567146101c557600080fd5b806306fdde0314610120578063095ea7b31461013e5780630d1e3e9814610161578063156e29f614610182575b600080fd5b6101286102fc565b60405161013591906112eb565b60405180910390f35b61015161014c36600461132a565b61038e565b6040519015158152602001610135565b61017461016f366004611356565b6103a8565b604051908152602001610135565b610195610190366004611378565b61040f565b005b600254610174565b6101956101ad3660046113ad565b6104ab565b6101516101c03660046113eb565b610582565b60405160128152602001610135565b6101516101e236600461132a565b6105a6565b6101956101f5366004611506565b6105f2565b610174610208366004611586565b73ffffffffffffffffffffffffffffffffffffffff1660009081526020819052604090205490565b6009546102509073ffffffffffffffffffffffffffffffffffffffff1681565b60405173ffffffffffffffffffffffffffffffffffffffff9091168152602001610135565b61012861081e565b61019561028b36600461132a565b61082d565b61015161029e36600461132a565b6108b4565b6101516102b136600461132a565b610985565b6101746102c43660046115a3565b73ffffffffffffffffffffffffffffffffffffffff918216600090815260016020908152604080832093909416825291909152205490565b6060600a805461030b906115d1565b80601f0160208091040260200160405190810160405280929190818152602001828054610337906115d1565b80156103845780601f1061035957610100808354040283529160200191610384565b820191906000526020600020905b81548152906001019060200180831161036757829003601f168201915b5050505050905090565b60003361039c818585610993565b60019150505b92915050565b60008183600654846103ba9190611653565b6103c49190611653565b6103ce919061166a565b90506103a26040518060400160405280600b81526020017f6d696e746564203a20257300000000000000000000000000000000000000000081525082610b47565b3360009081526008602052604090205460ff1661048d576040517f08c379a000000000000000000000000000000000000000000000000000000000815260206004820152600760248201527f214d696e7465720000000000000000000000000000000000000000000000000060448201526064015b60405180910390fd5b600061049983836103a8565b90506104a58482610bd8565b50505050565b60095473ffffffffffffffffffffffffffffffffffffffff16331461052c576040517f08c379a000000000000000000000000000000000000000000000000000000000815260206004820152600960248201527f4f6e6c794f776e657200000000000000000000000000000000000000000000006044820152606401610484565b73ffffffffffffffffffffffffffffffffffffffff91909116600090815260086020526040902080547fffffffffffffffffffffffffffffffffffffffffffffffffffffffffffffff0016911515919091179055565b600033610590858285610cf8565b61059b858585610dc9565b506001949350505050565b33600081815260016020908152604080832073ffffffffffffffffffffffffffffffffffffffff8716845290915281205490919061039c90829086906105ed9087906116a5565b610993565b60095474010000000000000000000000000000000000000000900460ff1615610677576040517f08c379a000000000000000000000000000000000000000000000000000000000815260206004820152600b60248201527f696e746961696c697365640000000000000000000000000000000000000000006044820152606401610484565b600980547fffffffffffffffffffffff00ffffffffffffffffffffffffffffffffffffffff1674010000000000000000000000000000000000000000179055600b6106c28482611706565b50600a6106cf8582611706565b506006829055600580547fffffffffffffffffffffffff00000000000000000000000000000000000000001673ffffffffffffffffffffffffffffffffffffffff8316908117909155604080517f4b2d07cf0000000000000000000000000000000000000000000000000000000081529051600192600892600092634b2d07cf916004808201926020929091908290030181865afa158015610775573d6000803e3d6000fd5b505050506040513d601f19601f820116820180604052508101906107999190611820565b73ffffffffffffffffffffffffffffffffffffffff168152602081019190915260400160002080549115157fffffffffffffffffffffffffffffffffffffffffffffffffffffffffffffff009092169190911790555050600980547fffffffffffffffffffffffff000000000000000000000000000000000000000016331790555050565b6060600b805461030b906115d1565b3360009081526008602052604090205460ff166108a6576040517f08c379a000000000000000000000000000000000000000000000000000000000815260206004820152600760248201527f214d696e746572000000000000000000000000000000000000000000000000006044820152606401610484565b6108b0828261107c565b5050565b33600081815260016020908152604080832073ffffffffffffffffffffffffffffffffffffffff8716845290915281205490919083811015610978576040517f08c379a000000000000000000000000000000000000000000000000000000000815260206004820152602560248201527f45524332303a2064656372656173656420616c6c6f77616e63652062656c6f7760448201527f207a65726f0000000000000000000000000000000000000000000000000000006064820152608401610484565b61059b8286868403610993565b60003361039c818585610dc9565b73ffffffffffffffffffffffffffffffffffffffff8316610a35576040517f08c379a0000000000000000000000000000000000000000000000000000000008152602060048201526024808201527f45524332303a20617070726f76652066726f6d20746865207a65726f2061646460448201527f72657373000000000000000000000000000000000000000000000000000000006064820152608401610484565b73ffffffffffffffffffffffffffffffffffffffff8216610ad8576040517f08c379a000000000000000000000000000000000000000000000000000000000815260206004820152602260248201527f45524332303a20617070726f766520746f20746865207a65726f20616464726560448201527f73730000000000000000000000000000000000000000000000000000000000006064820152608401610484565b73ffffffffffffffffffffffffffffffffffffffff83811660008181526001602090815260408083209487168084529482529182902085905590518481527f8c5be1e5ebec7d5bd14f71427d1e84f3dd0314c0f7b2291e5b200ac8c7c3b92591015b60405180910390a3505050565b6108b08282604051602401610b5d92919061183d565b604080517fffffffffffffffffffffffffffffffffffffffffffffffffffffffffffffffe08184030181529190526020810180517bffffffffffffffffffffffffffffffffffffffffffffffffffffffff167fb60e72cc00000000000000000000000000000000000000000000000000000000179052611266565b73ffffffffffffffffffffffffffffffffffffffff8216610c55576040517f08c379a000000000000000000000000000000000000000000000000000000000815260206004820152601f60248201527f45524332303a206d696e7420746f20746865207a65726f2061646472657373006044820152606401610484565b8060026000828254610c6791906116a5565b909155505073ffffffffffffffffffffffffffffffffffffffff821660009081526020819052604081208054839290610ca19084906116a5565b909155505060405181815273ffffffffffffffffffffffffffffffffffffffff8316906000907fddf252ad1be2c89b69c2b068fc378daa952ba7f163c4a11628f55a4df523b3ef9060200160405180910390a35050565b73ffffffffffffffffffffffffffffffffffffffff8381166000908152600160209081526040808320938616835292905220547fffffffffffffffffffffffffffffffffffffffffffffffffffffffffffffffff81146104a55781811015610dbc576040517f08c379a000000000000000000000000000000000000000000000000000000000815260206004820152601d60248201527f45524332303a20696e73756666696369656e7420616c6c6f77616e63650000006044820152606401610484565b6104a58484848403610993565b73ffffffffffffffffffffffffffffffffffffffff8316610e6c576040517f08c379a000000000000000000000000000000000000000000000000000000000815260206004820152602560248201527f45524332303a207472616e736665722066726f6d20746865207a65726f20616460448201527f64726573730000000000000000000000000000000000000000000000000000006064820152608401610484565b73ffffffffffffffffffffffffffffffffffffffff8216610f0f576040517f08c379a000000000000000000000000000000000000000000000000000000000815260206004820152602360248201527f45524332303a207472616e7366657220746f20746865207a65726f206164647260448201527f65737300000000000000000000000000000000000000000000000000000000006064820152608401610484565b73ffffffffffffffffffffffffffffffffffffffff831660009081526020819052604090205481811015610fc5576040517f08c379a000000000000000000000000000000000000000000000000000000000815260206004820152602660248201527f45524332303a207472616e7366657220616d6f756e742065786365656473206260448201527f616c616e636500000000000000000000000000000000000000000000000000006064820152608401610484565b73ffffffffffffffffffffffffffffffffffffffff8085166000908152602081905260408082208585039055918516815290812080548492906110099084906116a5565b925050819055508273ffffffffffffffffffffffffffffffffffffffff168473ffffffffffffffffffffffffffffffffffffffff167fddf252ad1be2c89b69c2b068fc378daa952ba7f163c4a11628f55a4df523b3ef8460405161106f91815260200190565b60405180910390a36104a5565b73ffffffffffffffffffffffffffffffffffffffff821661111f576040517f08c379a000000000000000000000000000000000000000000000000000000000815260206004820152602160248201527f45524332303a206275726e2066726f6d20746865207a65726f2061646472657360448201527f73000000000000000000000000000000000000000000000000000000000000006064820152608401610484565b73ffffffffffffffffffffffffffffffffffffffff8216600090815260208190526040902054818110156111d5576040517f08c379a000000000000000000000000000000000000000000000000000000000815260206004820152602260248201527f45524332303a206275726e20616d6f756e7420657863656564732062616c616e60448201527f63650000000000000000000000000000000000000000000000000000000000006064820152608401610484565b73ffffffffffffffffffffffffffffffffffffffff8316600090815260208190526040812083830390556002805484929061121190849061185f565b909155505060405182815260009073ffffffffffffffffffffffffffffffffffffffff8516907fddf252ad1be2c89b69c2b068fc378daa952ba7f163c4a11628f55a4df523b3ef90602001610b3a565b505050565b80516a636f6e736f6c652e6c6f67602083016000808483855afa5050505050565b6000815180845260005b818110156112ad57602081850181015186830182015201611291565b5060006020828601015260207fffffffffffffffffffffffffffffffffffffffffffffffffffffffffffffffe0601f83011685010191505092915050565b6020815260006112fe6020830184611287565b9392505050565b73ffffffffffffffffffffffffffffffffffffffff8116811461132757600080fd5b50565b6000806040838503121561133d57600080fd5b823561134881611305565b946020939093013593505050565b6000806040838503121561136957600080fd5b50508035926020909101359150565b60008060006060848603121561138d57600080fd5b833561139881611305565b95602085013595506040909401359392505050565b600080604083850312156113c057600080fd5b82356113cb81611305565b9150602083013580151581146113e057600080fd5b809150509250929050565b60008060006060848603121561140057600080fd5b833561140b81611305565b9250602084013561141b81611305565b929592945050506040919091013590565b7f4e487b7100000000000000000000000000000000000000000000000000000000600052604160045260246000fd5b600082601f83011261146c57600080fd5b813567ffffffffffffffff808211156114875761148761142c565b604051601f83017fffffffffffffffffffffffffffffffffffffffffffffffffffffffffffffffe0908116603f011681019082821181831017156114cd576114cd61142c565b816040528381528660208588010111156114e657600080fd5b836020870160208301376000602085830101528094505050505092915050565b6000806000806080858703121561151c57600080fd5b843567ffffffffffffffff8082111561153457600080fd5b6115408883890161145b565b9550602087013591508082111561155657600080fd5b506115638782880161145b565b93505060408501359150606085013561157b81611305565b939692955090935050565b60006020828403121561159857600080fd5b81356112fe81611305565b600080604083850312156115b657600080fd5b82356115c181611305565b915060208301356113e081611305565b600181811c908216806115e557607f821691505b60208210810361161e577f4e487b7100000000000000000000000000000000000000000000000000000000600052602260045260246000fd5b50919050565b7f4e487b7100000000000000000000000000000000000000000000000000000000600052601160045260246000fd5b80820281158282048414176103a2576103a2611624565b6000826116a0577f4e487b7100000000000000000000000000000000000000000000000000000000600052601260045260246000fd5b500490565b808201808211156103a2576103a2611624565b601f82111561126157600081815260208120601f850160051c810160208610156116df5750805b601f850160051c820191505b818110156116fe578281556001016116eb565b505050505050565b815167ffffffffffffffff8111156117205761172061142c565b6117348161172e84546115d1565b846116b8565b602080601f83116001811461178757600084156117515750858301515b7fffffffffffffffffffffffffffffffffffffffffffffffffffffffffffffffff600386901b1c1916600185901b1785556116fe565b6000858152602081207fffffffffffffffffffffffffffffffffffffffffffffffffffffffffffffffe08616915b828110156117d4578886015182559484019460019091019084016117b5565b508582101561181057878501517fffffffffffffffffffffffffffffffffffffffffffffffffffffffffffffffff600388901b60f8161c191681555b5050505050600190811b01905550565b60006020828403121561183257600080fd5b81516112fe81611305565b6040815260006118506040830185611287565b90508260208301529392505050565b818103818111156103a2576103a261162456fea2646970667358221220d9aa5ef1da1f8fe532f84cf32be4e91bdde329af0326805d3151dddf31c2364764736f6c63430008110033",
  "immutableReferences": {},
  "source": "pragma solidity >=0.8.0;\r\n\r\nimport \"@openzeppelin/contracts/token/ERC20/ERC20.sol\";\r\nimport \"@openzeppelin/contracts/token/ERC20/IERC20.sol\";\r\nimport \"../Management/GameManager.sol\";\r\nimport \"hardhat/console.sol\";\r\n\r\ncontract EmittedResource is ERC20 {\r\n\r\n    address gameManager;\r\n    uint emissionRate;\r\n    uint minute = 60;\r\n    mapping(address => bool) minters;\r\n    address public owner;\r\n    bool initialised;\r\n    string _name;\r\n    string _symbol;\r\n\r\n    modifier onlyOwner{\r\n        require(msg.sender == owner, \"OnlyOwner\");\r\n        _;\r\n    }\r\n\r\n    constructor() ERC20(\"\", \"\"){\r\n        //set the implementation as initialised\r\n        initialised = true;\r\n    }\r\n\r\n    function initialiser(string memory __name, string memory __symbol, uint _emissionRate, address _gameManager) public {\r\n        require(initialised == false, \"intiailised\");\r\n        initialised = true;\r\n        _symbol = __symbol;\r\n        _name = __name;\r\n        emissionRate = _emissionRate;\r\n        gameManager = _gameManager;\r\n        minters[GameManager(gameManager).farmManager()] = true;\r\n        owner = msg.sender;\r\n    }\r\n\r\n    function name() public override view returns(string memory){\r\n        return _name;\r\n    }\r\n    \r\n    function symbol() public override view returns(string memory){\r\n        return _symbol;\r\n    }\r\n\r\n    function changeMinter(address _minter, bool state) external onlyOwner {\r\n        minters[_minter] = state;\r\n    }\r\n\r\n    function mint(address to, uint level, uint time) external {\r\n        require(minters[msg.sender], \"!Minter\");\r\n        uint amount = mintAmount(level, time);\r\n        _mint(to, amount);\r\n    }\r\n\r\n    function mintAmount(uint level, uint time) public view returns(uint amount){\r\n        amount = ((time * emissionRate) * level) / time;\r\n        console.log(\"minted : %s\", amount);\r\n    }\r\n\r\n    function burn(address from, uint amount) external {\r\n        require(minters[msg.sender], \"!Minter\");\r\n        _burn(from, amount);\r\n    }\r\n\r\n}\r\n",
  "sourcePath": "C:\\Users\\Khera\\Documents\\github\\DeFi-Something-I-Guess-Contracts\\contracts\\Game\\Resources\\EmittedResource.sol",
  "compiler": {
    "name": "solc",
    "version": "0.8.17+commit.8df45f5f.Emscripten.clang"
  },
  "schemaVersion": "3.4.10",
  "updatedAt": "2022-10-23T09:27:04.518Z",
  "devdoc": {
    "kind": "dev",
    "methods": {
      "allowance(address,address)": {
        "details": "See {IERC20-allowance}."
      },
      "approve(address,uint256)": {
        "details": "See {IERC20-approve}. NOTE: If `amount` is the maximum `uint256`, the allowance is not updated on `transferFrom`. This is semantically equivalent to an infinite approval. Requirements: - `spender` cannot be the zero address."
      },
      "balanceOf(address)": {
        "details": "See {IERC20-balanceOf}."
      },
      "decimals()": {
        "details": "Returns the number of decimals used to get its user representation. For example, if `decimals` equals `2`, a balance of `505` tokens should be displayed to a user as `5.05` (`505 / 10 ** 2`). Tokens usually opt for a value of 18, imitating the relationship between Ether and Wei. This is the value {ERC20} uses, unless this function is overridden; NOTE: This information is only used for _display_ purposes: it in no way affects any of the arithmetic of the contract, including {IERC20-balanceOf} and {IERC20-transfer}."
      },
      "decreaseAllowance(address,uint256)": {
        "details": "Atomically decreases the allowance granted to `spender` by the caller. This is an alternative to {approve} that can be used as a mitigation for problems described in {IERC20-approve}. Emits an {Approval} event indicating the updated allowance. Requirements: - `spender` cannot be the zero address. - `spender` must have allowance for the caller of at least `subtractedValue`."
      },
      "increaseAllowance(address,uint256)": {
        "details": "Atomically increases the allowance granted to `spender` by the caller. This is an alternative to {approve} that can be used as a mitigation for problems described in {IERC20-approve}. Emits an {Approval} event indicating the updated allowance. Requirements: - `spender` cannot be the zero address."
      },
      "name()": {
        "details": "Returns the name of the token."
      },
      "symbol()": {
        "details": "Returns the symbol of the token, usually a shorter version of the name."
      },
      "totalSupply()": {
        "details": "See {IERC20-totalSupply}."
      },
      "transfer(address,uint256)": {
        "details": "See {IERC20-transfer}. Requirements: - `to` cannot be the zero address. - the caller must have a balance of at least `amount`."
      },
      "transferFrom(address,address,uint256)": {
        "details": "See {IERC20-transferFrom}. Emits an {Approval} event indicating the updated allowance. This is not required by the EIP. See the note at the beginning of {ERC20}. NOTE: Does not update the allowance if the current allowance is the maximum `uint256`. Requirements: - `from` and `to` cannot be the zero address. - `from` must have a balance of at least `amount`. - the caller must have allowance for ``from``'s tokens of at least `amount`."
      }
    },
    "version": 1
  },
  "userdoc": {
    "kind": "user",
    "methods": {},
    "version": 1
  }
}