{
  "contractName": "Farm",
  "abi": [
    {
      "inputs": [],
      "name": "owner",
      "outputs": [
        {
          "internalType": "address",
          "name": "",
          "type": "address"
        }
      ],
      "stateMutability": "view",
      "type": "function"
    },
    {
      "inputs": [
        {
          "internalType": "address",
          "name": "_owner",
          "type": "address"
        },
        {
          "internalType": "address",
          "name": "_gameManager",
          "type": "address"
        },
        {
          "internalType": "uint256",
          "name": "_x",
          "type": "uint256"
        },
        {
          "internalType": "uint256",
          "name": "_y",
          "type": "uint256"
        }
      ],
      "name": "initialise",
      "outputs": [],
      "stateMutability": "nonpayable",
      "type": "function"
    },
    {
      "inputs": [
        {
          "internalType": "address",
          "name": "token",
          "type": "address"
        },
        {
          "internalType": "uint256",
          "name": "amount",
          "type": "uint256"
        }
      ],
      "name": "transferToken",
      "outputs": [],
      "stateMutability": "nonpayable",
      "type": "function"
    }
  ],
  "bytecode": "0x608060405234801561001057600080fd5b50610475806100206000396000f3fe608060405234801561001057600080fd5b50600436106100415760003560e01c80631072cbea146100465780638da5cb5b1461005b5780638ed57ab2146100a4575b600080fd5b610059610054366004610387565b6100b7565b005b60005461007b9073ffffffffffffffffffffffffffffffffffffffff1681565b60405173ffffffffffffffffffffffffffffffffffffffff909116815260200160405180910390f35b6100596100b23660046103b3565b61027d565b600160009054906101000a900473ffffffffffffffffffffffffffffffffffffffff1673ffffffffffffffffffffffffffffffffffffffff16634b2d07cf6040518163ffffffff1660e01b8152600401602060405180830381865afa158015610124573d6000803e3d6000fd5b505050506040513d601f19601f8201168201806040525081019061014891906103f9565b73ffffffffffffffffffffffffffffffffffffffff163373ffffffffffffffffffffffffffffffffffffffff16146101e1576040517f08c379a000000000000000000000000000000000000000000000000000000000815260206004820152600d60248201527f214661726d204d616e616765720000000000000000000000000000000000000060448201526064015b60405180910390fd5b6040517fa9059cbb0000000000000000000000000000000000000000000000000000000081523360048201526024810182905273ffffffffffffffffffffffffffffffffffffffff83169063a9059cbb906044016020604051808303816000875af1158015610254573d6000803e3d6000fd5b505050506040513d601f19601f82011682018060405250810190610278919061041d565b505050565b60015474010000000000000000000000000000000000000000900460ff1615610302576040517f08c379a000000000000000000000000000000000000000000000000000000000815260206004820152600b60248201527f496e697469616c6973656400000000000000000000000000000000000000000060448201526064016101d8565b6000805473ffffffffffffffffffffffffffffffffffffffff9586167fffffffffffffffffffffffff0000000000000000000000000000000000000000918216179091556001805494909516931692909217909255600291909155600355565b73ffffffffffffffffffffffffffffffffffffffff8116811461038457600080fd5b50565b6000806040838503121561039a57600080fd5b82356103a581610362565b946020939093013593505050565b600080600080608085870312156103c957600080fd5b84356103d481610362565b935060208501356103e481610362565b93969395505050506040820135916060013590565b60006020828403121561040b57600080fd5b815161041681610362565b9392505050565b60006020828403121561042f57600080fd5b8151801515811461041657600080fdfea26469706673582212209afaaa20d8592b94550b48e10aa9a71c2f0b3df4dae1481dfa81bb90750bb11264736f6c63430008110033",
  "immutableReferences": {},
  "source": "pragma solidity >=0.8.0;\r\n\r\nimport \"@openzeppelin/contracts/token/ERC20/IERC20.sol\";\r\nimport \"@openzeppelin/contracts/access/Ownable.sol\";\r\nimport \"../Resources/ResourceManager.sol\";\r\nimport \"../Resources/WrappedResource.sol\";\r\nimport \"../Management/GameManager.sol\";\r\nimport \"hardhat/console.sol\";\r\n\r\ncontract Farm {\r\n\r\n    address public owner;\r\n    address gameManager;\r\n    bool initialised;\r\n    uint x;\r\n    uint y;\r\n\r\n    function initialise(address _owner, address _gameManager, uint _x, uint _y) external {\r\n        require(!initialised, \"Initialised\");\r\n        owner = _owner;\r\n        gameManager = _gameManager;\r\n        x = _x;\r\n        y = _y;\r\n    }\r\n\r\n    function transferToken(address token, uint amount) external {\r\n        require(msg.sender == GameManager(gameManager).farmManager(), \"!Farm Manager\");\r\n        IERC20(token).transfer(msg.sender, amount);\r\n    }\r\n}",
  "sourcePath": "C:\\Users\\Khera\\Documents\\github\\DeFi-Something-I-Guess-Contracts\\contracts\\Game\\Player\\Farm.sol",
  "compiler": {
    "name": "solc",
    "version": "0.8.17+commit.8df45f5f.Emscripten.clang"
  },
  "schemaVersion": "3.4.10",
  "updatedAt": "2022-10-23T09:27:04.504Z",
  "devdoc": {
    "kind": "dev",
    "methods": {},
    "version": 1
  },
  "userdoc": {
    "kind": "user",
    "methods": {},
    "version": 1
  }
}