{
  "contractName": "FarmManager",
  "abi": [
    {
      "inputs": [
        {
          "internalType": "address",
          "name": "_gameManager",
          "type": "address"
        }
      ],
      "stateMutability": "nonpayable",
      "type": "constructor"
    },
    {
      "anonymous": false,
      "inputs": [
        {
          "indexed": true,
          "internalType": "address",
          "name": "previousOwner",
          "type": "address"
        },
        {
          "indexed": true,
          "internalType": "address",
          "name": "newOwner",
          "type": "address"
        }
      ],
      "name": "OwnershipTransferred",
      "type": "event"
    },
    {
      "inputs": [],
      "name": "owner",
      "outputs": [
        {
          "internalType": "address",
          "name": "",
          "type": "address"
        }
      ],
      "stateMutability": "view",
      "type": "function"
    },
    {
      "inputs": [],
      "name": "renounceOwnership",
      "outputs": [],
      "stateMutability": "nonpayable",
      "type": "function"
    },
    {
      "inputs": [
        {
          "internalType": "address",
          "name": "newOwner",
          "type": "address"
        }
      ],
      "name": "transferOwnership",
      "outputs": [],
      "stateMutability": "nonpayable",
      "type": "function"
    },
    {
      "inputs": [
        {
          "internalType": "address",
          "name": "farm",
          "type": "address"
        },
        {
          "internalType": "uint256",
          "name": "resource",
          "type": "uint256"
        }
      ],
      "name": "levelUpResource",
      "outputs": [],
      "stateMutability": "nonpayable",
      "type": "function"
    },
    {
      "inputs": [
        {
          "internalType": "address",
          "name": "farm",
          "type": "address"
        },
        {
          "internalType": "uint256",
          "name": "resource",
          "type": "uint256"
        }
      ],
      "name": "harvestResource",
      "outputs": [],
      "stateMutability": "nonpayable",
      "type": "function"
    },
    {
      "inputs": [
        {
          "internalType": "address",
          "name": "farm",
          "type": "address"
        }
      ],
      "name": "harvestAll",
      "outputs": [],
      "stateMutability": "nonpayable",
      "type": "function"
    }
  ],
  "bytecode": "0x608060405234801561001057600080fd5b5060405161151038038061151083398101604081905261002f916100ad565b6100383361005d565b600180546001600160a01b0319166001600160a01b03929092169190911790556100dd565b600080546001600160a01b038381166001600160a01b0319831681178455604051919092169283917f8be0079c531659141344cd1fd0a4f28419497f9722a3daafe3b4186f6b6457e09190a35050565b6000602082840312156100bf57600080fd5b81516001600160a01b03811681146100d657600080fd5b9392505050565b611424806100ec6000396000f3fe608060405234801561001057600080fd5b50600436106100725760003560e01c8063715018a611610050578063715018a6146100b25780638da5cb5b146100ba578063f2fde38b146100e657600080fd5b80632ef02f43146100775780634a7af5651461008c578063699bdca91461009f575b600080fd5b61008a61008536600461115d565b6100f9565b005b61008a61009a36600461115d565b6108b9565b61008a6100ad366004611189565b610c62565b61008a610d8d565b6000546040805173ffffffffffffffffffffffffffffffffffffffff9092168252519081900360200190f35b61008a6100f4366004611189565b610da1565b61010382826108b9565b600154604080517f71f10b8b000000000000000000000000000000000000000000000000000000008152905160009273ffffffffffffffffffffffffffffffffffffffff16916371f10b8b9160048083019260209291908290030181865afa158015610173573d6000803e3d6000fd5b505050506040513d601f19601f8201168201806040525081019061019791906111bd565b6040517f1e8fca2d0000000000000000000000000000000000000000000000000000000081526004810184905290915060009073ffffffffffffffffffffffffffffffffffffffff831690631e8fca2d9060240160e060405180830381865afa158015610208573d6000803e3d6000fd5b505050506040513d601f19601f8201168201806040525081019061022c91906111da565b73ffffffffffffffffffffffffffffffffffffffff85811660009081526005602090815260408083208884529091528082205460c0850151855192517f70a082310000000000000000000000000000000000000000000000000000000081523060048201529596509094909391909116906370a0823190602401602060405180830381865afa1580156102c3573d6000803e3d6000fd5b505050506040513d601f19601f820116820180604052508101906102e791906112ad565b84516040517f70a082310000000000000000000000000000000000000000000000000000000081523060048201529192506103859173ffffffffffffffffffffffffffffffffffffffff909116906370a08231906024015b602060405180830381865afa15801561035c573d6000803e3d6000fd5b505050506040513d601f19601f8201168201806040525081019061038091906112ad565b610e5d565b83516040517f70a082310000000000000000000000000000000000000000000000000000000081523360048201526103dc9173ffffffffffffffffffffffffffffffffffffffff16906370a082319060240161033f565b83516103e790610eee565b6103f082610e5d565b83516040517f23b872dd0000000000000000000000000000000000000000000000000000000081523360048201523060248201526044810184905273ffffffffffffffffffffffffffffffffffffffff909116906323b872dd906064016020604051808303816000875af115801561046c573d6000803e3d6000fd5b505050506040513d601f19601f8201168201806040525081019061049091906112c6565b5083516040517f70a08231000000000000000000000000000000000000000000000000000000008152306004820152600091839173ffffffffffffffffffffffffffffffffffffffff909116906370a0823190602401602060405180830381865afa158015610503573d6000803e3d6000fd5b505050506040513d601f19601f8201168201806040525081019061052791906112ad565b6105319190611317565b855160608701516040517f095ea7b300000000000000000000000000000000000000000000000000000000815273ffffffffffffffffffffffffffffffffffffffff918216600482015260248101849052929350169063095ea7b3906044016020604051808303816000875af11580156105af573d6000803e3d6000fd5b505050506040513d601f19601f820116820180604052508101906105d391906112c6565b5060608501516040517f70a0823100000000000000000000000000000000000000000000000000000000815230600482015260009173ffffffffffffffffffffffffffffffffffffffff16906370a0823190602401602060405180830381865afa158015610645573d6000803e3d6000fd5b505050506040513d601f19601f8201168201806040525081019061066991906112ad565b60608701516040517fb6b55f250000000000000000000000000000000000000000000000000000000081526004810185905291925073ffffffffffffffffffffffffffffffffffffffff169063b6b55f2590602401600060405180830381600087803b1580156106d857600080fd5b505af11580156106ec573d6000803e3d6000fd5b50505060608701516040517f70a0823100000000000000000000000000000000000000000000000000000000815230600482015260009250839173ffffffffffffffffffffffffffffffffffffffff16906370a0823190602401602060405180830381865afa158015610763573d6000803e3d6000fd5b505050506040513d601f19601f8201168201806040525081019061078791906112ad565b6107919190611317565b60608801516040517fa9059cbb00000000000000000000000000000000000000000000000000000000815273ffffffffffffffffffffffffffffffffffffffff8d811660048301526024820184905292935091169063a9059cbb906044016020604051808303816000875af115801561080e573d6000803e3d6000fd5b505050506040513d601f19601f8201168201806040525081019061083291906112c6565b5073ffffffffffffffffffffffffffffffffffffffff8a1660009081526005602090815260408083208c84529091528120805460019290610874908490611330565b90915550505073ffffffffffffffffffffffffffffffffffffffff90981660009081526006602090815260408083209983529890529690962042905550505050505050565b73ffffffffffffffffffffffffffffffffffffffff821660009081526006602090815260408083208484529091528120546108f49042611317565b90508015610c5d5773ffffffffffffffffffffffffffffffffffffffff8084166000908152600660209081526040808320868452825280832042905560015481517f71f10b8b0000000000000000000000000000000000000000000000000000000081529151939416926371f10b8b926004808401939192918290030181865afa158015610986573d6000803e3d6000fd5b505050506040513d601f19601f820116820180604052508101906109aa91906111bd565b6040517f1e8fca2d0000000000000000000000000000000000000000000000000000000081526004810185905290915060009073ffffffffffffffffffffffffffffffffffffffff831690631e8fca2d9060240160e060405180830381865afa158015610a1b573d6000803e3d6000fd5b505050506040513d601f19601f82011682018060405250810190610a3f91906111da565b73ffffffffffffffffffffffffffffffffffffffff86811660008181526005602090815260408083208a84528252918290205482518084018452601281527f42616c616e6365204265666f72653a202573000000000000000000000000000092810192909252608086015192517f70a082310000000000000000000000000000000000000000000000000000000081526004810194909452949550610b339390929116906370a08231906024015b602060405180830381865afa158015610b0a573d6000803e3d6000fd5b505050506040513d601f19601f82011682018060405250810190610b2e91906112ad565b610f8f565b60808201516040517f156e29f600000000000000000000000000000000000000000000000000000000815273ffffffffffffffffffffffffffffffffffffffff888116600483015260248201849052604482018790529091169063156e29f690606401600060405180830381600087803b158015610bb057600080fd5b505af1158015610bc4573d6000803e3d6000fd5b5050604080518082018252601181527f42616c616e63652041667465723a2025730000000000000000000000000000006020820152608086015191517f70a0823100000000000000000000000000000000000000000000000000000000815273ffffffffffffffffffffffffffffffffffffffff8b81166004830152610c5995509193509116906370a0823190602401610aed565b5050505b505050565b600154604080517f71f10b8b000000000000000000000000000000000000000000000000000000008152905160009273ffffffffffffffffffffffffffffffffffffffff16916371f10b8b9160048083019260209291908290030181865afa158015610cd2573d6000803e3d6000fd5b505050506040513d601f19601f82011682018060405250810190610cf691906111bd565b905060005b8173ffffffffffffffffffffffffffffffffffffffff166366f5a7476040518163ffffffff1660e01b8152600401602060405180830381865afa158015610d46573d6000803e3d6000fd5b505050506040513d601f19601f82011682018060405250810190610d6a91906112ad565b811015610c5d57610d7b83826108b9565b80610d8581611343565b915050610cfb565b610d95611024565b610d9f60006110a5565b565b610da9611024565b73ffffffffffffffffffffffffffffffffffffffff8116610e51576040517f08c379a000000000000000000000000000000000000000000000000000000000815260206004820152602660248201527f4f776e61626c653a206e6577206f776e657220697320746865207a65726f206160448201527f646472657373000000000000000000000000000000000000000000000000000060648201526084015b60405180910390fd5b610e5a816110a5565b50565b610e5a81604051602401610e7391815260200190565b604080517fffffffffffffffffffffffffffffffffffffffffffffffffffffffffffffffe08184030181529190526020810180517bffffffffffffffffffffffffffffffffffffffffffffffffffffffff167ff82c50f10000000000000000000000000000000000000000000000000000000017905261111a565b60405173ffffffffffffffffffffffffffffffffffffffff82166024820152610e5a90604401604080517fffffffffffffffffffffffffffffffffffffffffffffffffffffffffffffffe08184030181529190526020810180517bffffffffffffffffffffffffffffffffffffffffffffffffffffffff167f2c2ecbc20000000000000000000000000000000000000000000000000000000017905261111a565b6110208282604051602401610fa592919061137b565b604080517fffffffffffffffffffffffffffffffffffffffffffffffffffffffffffffffe08184030181529190526020810180517bffffffffffffffffffffffffffffffffffffffffffffffffffffffff167fb60e72cc0000000000000000000000000000000000000000000000000000000017905261111a565b5050565b60005473ffffffffffffffffffffffffffffffffffffffff163314610d9f576040517f08c379a000000000000000000000000000000000000000000000000000000000815260206004820181905260248201527f4f776e61626c653a2063616c6c6572206973206e6f7420746865206f776e65726044820152606401610e48565b6000805473ffffffffffffffffffffffffffffffffffffffff8381167fffffffffffffffffffffffff0000000000000000000000000000000000000000831681178455604051919092169283917f8be0079c531659141344cd1fd0a4f28419497f9722a3daafe3b4186f6b6457e09190a35050565b80516a636f6e736f6c652e6c6f67602083016000808483855afa5050505050565b73ffffffffffffffffffffffffffffffffffffffff81168114610e5a57600080fd5b6000806040838503121561117057600080fd5b823561117b8161113b565b946020939093013593505050565b60006020828403121561119b57600080fd5b81356111a68161113b565b9392505050565b80516111b88161113b565b919050565b6000602082840312156111cf57600080fd5b81516111a68161113b565b600060e082840312156111ec57600080fd5b60405160e0810181811067ffffffffffffffff82111715611236577f4e487b7100000000000000000000000000000000000000000000000000000000600052604160045260246000fd5b604052611242836111ad565b8152611250602084016111ad565b6020820152611261604084016111ad565b6040820152611272606084016111ad565b6060820152611283608084016111ad565b608082015261129460a084016111ad565b60a082015260c083015160c08201528091505092915050565b6000602082840312156112bf57600080fd5b5051919050565b6000602082840312156112d857600080fd5b815180151581146111a657600080fd5b7f4e487b7100000000000000000000000000000000000000000000000000000000600052601160045260246000fd5b8181038181111561132a5761132a6112e8565b92915050565b8082018082111561132a5761132a6112e8565b60007fffffffffffffffffffffffffffffffffffffffffffffffffffffffffffffffff8203611374576113746112e8565b5060010190565b604081526000835180604084015260005b818110156113a9576020818701810151606086840101520161138c565b5060006060828501015260607fffffffffffffffffffffffffffffffffffffffffffffffffffffffffffffffe0601f830116840101915050826020830152939250505056fea2646970667358221220aeb260ed79cca87d628acd4923f8e053367daaf60f0cbe295027b68a4f60b37f64736f6c63430008110033",
  "immutableReferences": {},
  "source": "pragma solidity >=0.8.0;\r\n\r\nimport \"@openzeppelin/contracts/token/ERC20/IERC20.sol\";\r\nimport \"@openzeppelin/contracts/access/Ownable.sol\";\r\nimport \"../Resources/ResourceManager.sol\";\r\nimport \"../Resources/WrappedResource.sol\";\r\nimport \"../Resources/EmittedResource.sol\";\r\nimport \"../Management/GameManager.sol\";\r\nimport \"hardhat/console.sol\";\r\n\r\ncontract FarmManager is Ownable {\r\n\r\n    address gameManager;\r\n\r\n    mapping(uint => address) allFarms;\r\n    mapping(address => uint) farmNftNumber;\r\n    mapping(address => bool) validFarms;\r\n\r\n    mapping(address => mapping(uint => uint)) resourceLevels;\r\n    mapping(address => mapping(uint => uint)) lastHarvest;\r\n    mapping(address => mapping(uint => uint)) buildingLevels;\r\n\r\n    constructor(address _gameManager) {\r\n        gameManager = _gameManager;\r\n    }\r\n\r\n    function levelUpResource(address farm, uint resource) external {\r\n        harvestResource(farm, resource);\r\n        ResourceManager resourceManager = ResourceManager(GameManager(gameManager).resourceManager());\r\n\r\n        Resource memory r = resourceManager.getResource(resource);\r\n        uint _currentLevel = resourceLevels[farm][resource];\r\n        uint required = r.levelUpValue;\r\n\r\n        //todo: User Buys Asset To Upgrade Level\r\n        uint underlyingBefore = IERC20(r.asset).balanceOf(address(this));\r\n        console.log(IERC20(r.asset).balanceOf(address(this)));\r\n        console.log(IERC20(r.asset).balanceOf(address(msg.sender)));\r\n        console.log(r.asset);\r\n        console.log(required);\r\n        IERC20(r.asset).transferFrom(msg.sender, address(this), required);\r\n        uint underlyingChange = IERC20(r.asset).balanceOf(address(this)) - underlyingBefore;\r\n\r\n        IERC20(r.asset).approve(r.resourceToken, underlyingChange);\r\n\r\n        uint resourceTokenBefore = IERC20(r.resourceToken).balanceOf(address(this));\r\n        WrappedResource(r.resourceToken).deposit(underlyingChange);\r\n        uint resourceTokenChange = IERC20(r.resourceToken).balanceOf(address(this)) - resourceTokenBefore;\r\n\r\n        IERC20(r.resourceToken).transfer(farm, resourceTokenChange);\r\n\r\n        resourceLevels[farm][resource] += 1;\r\n        lastHarvest[farm][resource] = block.timestamp;\r\n    }\r\n\r\n    function harvestResource(address farm, uint resource) public {\r\n        uint time = block.timestamp - lastHarvest[farm][resource];\r\n        if(time > 0) {\r\n            lastHarvest[farm][resource] = block.timestamp;\r\n            ResourceManager resourceManager = ResourceManager(GameManager(gameManager).resourceManager());\r\n            Resource memory r = resourceManager.getResource(resource);\r\n\r\n            uint level = resourceLevels[farm][resource];\r\n            \r\n            console.log(\"Balance Before: %s\", IERC20(r.emittedResource).balanceOf(farm));\r\n            EmittedResource(r.emittedResource).mint(farm, level, time);\r\n            console.log(\"Balance After: %s\", IERC20(r.emittedResource).balanceOf(farm));\r\n            \r\n        }\r\n    }\r\n\r\n    //Harvest the resources of a farm that are pending\r\n    function harvestAll(address farm) public {\r\n        ResourceManager resourceManager = ResourceManager(GameManager(gameManager).resourceManager());\r\n\r\n        for(uint i=0; i<resourceManager.totalResources(); i++){\r\n            harvestResource(farm, i);\r\n        }\r\n    }\r\n\r\n}\r\n",
  "sourcePath": "C:\\Users\\Khera\\Documents\\github\\DeFi-Something-I-Guess-Contracts\\contracts\\Game\\Player\\FarmManager.sol",
  "compiler": {
    "name": "solc",
    "version": "0.8.17+commit.8df45f5f.Emscripten.clang"
  },
  "schemaVersion": "3.4.10",
  "updatedAt": "2022-10-23T09:27:04.506Z",
  "devdoc": {
    "kind": "dev",
    "methods": {
      "owner()": {
        "details": "Returns the address of the current owner."
      },
      "renounceOwnership()": {
        "details": "Leaves the contract without owner. It will not be possible to call `onlyOwner` functions anymore. Can only be called by the current owner. NOTE: Renouncing ownership will leave the contract without an owner, thereby removing any functionality that is only available to the owner."
      },
      "transferOwnership(address)": {
        "details": "Transfers ownership of the contract to a new account (`newOwner`). Can only be called by the current owner."
      }
    },
    "version": 1
  },
  "userdoc": {
    "kind": "user",
    "methods": {},
    "version": 1
  }
}