{
  "contractName": "ResourceTransmuter",
  "abi": [
    {
      "inputs": [],
      "stateMutability": "nonpayable",
      "type": "constructor"
    },
    {
      "inputs": [
        {
          "internalType": "address",
          "name": "_wrappedToken",
          "type": "address"
        },
        {
          "internalType": "address",
          "name": "_emittedToken",
          "type": "address"
        }
      ],
      "name": "initialiser",
      "outputs": [],
      "stateMutability": "nonpayable",
      "type": "function"
    },
    {
      "inputs": [],
      "name": "exchangeRate",
      "outputs": [
        {
          "internalType": "uint256",
          "name": "",
          "type": "uint256"
        }
      ],
      "stateMutability": "view",
      "type": "function"
    },
    {
      "inputs": [
        {
          "internalType": "uint256",
          "name": "amount",
          "type": "uint256"
        },
        {
          "internalType": "bool",
          "name": "unwrapToken",
          "type": "bool"
        }
      ],
      "name": "redeem",
      "outputs": [],
      "stateMutability": "nonpayable",
      "type": "function"
    },
    {
      "inputs": [
        {
          "internalType": "uint256",
          "name": "amount",
          "type": "uint256"
        }
      ],
      "name": "unwrap",
      "outputs": [],
      "stateMutability": "nonpayable",
      "type": "function"
    }
  ],
  "bytecode": "0x608060405234801561001057600080fd5b506001805460ff60a01b1916600160a01b17905561093e806100336000396000f3fe608060405234801561001057600080fd5b506004361061004c5760003560e01c80633ba0b9a91461005157806380844fba1461006b578063d65a06b014610080578063de0e9a3e14610093575b600080fd5b6100596100a6565b60405190815260200160405180910390f35b61007e61007936600461078f565b6101ed565b005b61007e61008e3660046107d6565b610301565b61007e6100a13660046107fb565b610481565b600154604080517f18160ddd000000000000000000000000000000000000000000000000000000008152905160009273ffffffffffffffffffffffffffffffffffffffff16916318160ddd9160048083019260209291908290030181865afa158015610116573d6000803e3d6000fd5b505050506040513d601f19601f8201168201806040525081019061013a9190610814565b6000546040517f70a0823100000000000000000000000000000000000000000000000000000000815230600482015273ffffffffffffffffffffffffffffffffffffffff909116906370a0823190602401602060405180830381865afa1580156101a8573d6000803e3d6000fd5b505050506040513d601f19601f820116820180604052508101906101cc9190610814565b6101de90670de0b6b3a764000061085c565b6101e89190610879565b905090565b60015474010000000000000000000000000000000000000000900460ff1615610276576040517f08c379a000000000000000000000000000000000000000000000000000000000815260206004820152600b60248201527f696e746961696c69736564000000000000000000000000000000000000000000604482015260640160405180910390fd5b600180546000805473ffffffffffffffffffffffffffffffffffffffff9586167fffffffffffffffffffffffff0000000000000000000000000000000000000000909116179055919092167fffffffffffffffffffffff0000000000000000000000000000000000000000009091161774010000000000000000000000000000000000000000179055565b6001546040517f23b872dd0000000000000000000000000000000000000000000000000000000081523360048201523060248201526044810184905273ffffffffffffffffffffffffffffffffffffffff909116906323b872dd906064016020604051808303816000875af115801561037e573d6000803e3d6000fd5b505050506040513d601f19601f820116820180604052508101906103a291906108b4565b506000670de0b6b3a76400006103b66100a6565b6103c0908561085c565b6103ca9190610879565b905081156103e0576103db81610481565b505050565b6000546040517fa9059cbb0000000000000000000000000000000000000000000000000000000081523360048201526024810183905273ffffffffffffffffffffffffffffffffffffffff9091169063a9059cbb906044016020604051808303816000875af1158015610457573d6000803e3d6000fd5b505050506040513d601f19601f8201168201806040525081019061047b91906108b4565b50505050565b60008060009054906101000a900473ffffffffffffffffffffffffffffffffffffffff1673ffffffffffffffffffffffffffffffffffffffff166338d52e0f6040518163ffffffff1660e01b8152600401602060405180830381865afa1580156104ef573d6000803e3d6000fd5b505050506040513d601f19601f8201168201806040525081019061051391906108d8565b6040517f70a0823100000000000000000000000000000000000000000000000000000000815230600482015290915060009073ffffffffffffffffffffffffffffffffffffffff8316906370a0823190602401602060405180830381865afa158015610583573d6000803e3d6000fd5b505050506040513d601f19601f820116820180604052508101906105a79190610814565b6000546040517f2e1a7d4d0000000000000000000000000000000000000000000000000000000081526004810186905291925073ffffffffffffffffffffffffffffffffffffffff1690632e1a7d4d90602401600060405180830381600087803b15801561061457600080fd5b505af1158015610628573d6000803e3d6000fd5b50506040517f70a082310000000000000000000000000000000000000000000000000000000081523060048201526000925083915073ffffffffffffffffffffffffffffffffffffffff8516906370a0823190602401602060405180830381865afa15801561069b573d6000803e3d6000fd5b505050506040513d601f19601f820116820180604052508101906106bf9190610814565b6106c991906108f5565b6040517fa9059cbb0000000000000000000000000000000000000000000000000000000081523360048201526024810182905290915073ffffffffffffffffffffffffffffffffffffffff84169063a9059cbb906044016020604051808303816000875af115801561073f573d6000803e3d6000fd5b505050506040513d601f19601f8201168201806040525081019061076391906108b4565b5050505050565b73ffffffffffffffffffffffffffffffffffffffff8116811461078c57600080fd5b50565b600080604083850312156107a257600080fd5b82356107ad8161076a565b915060208301356107bd8161076a565b809150509250929050565b801515811461078c57600080fd5b600080604083850312156107e957600080fd5b8235915060208301356107bd816107c8565b60006020828403121561080d57600080fd5b5035919050565b60006020828403121561082657600080fd5b5051919050565b7f4e487b7100000000000000000000000000000000000000000000000000000000600052601160045260246000fd5b80820281158282048414176108735761087361082d565b92915050565b6000826108af577f4e487b7100000000000000000000000000000000000000000000000000000000600052601260045260246000fd5b500490565b6000602082840312156108c657600080fd5b81516108d1816107c8565b9392505050565b6000602082840312156108ea57600080fd5b81516108d18161076a565b818103818111156108735761087361082d56fea2646970667358221220e8688d63a769ea2e253fe46fa683304b62271fb44407accea2da56321765cbf964736f6c63430008110033",
  "immutableReferences": {},
  "source": "pragma solidity >=0.8.0;\r\n\r\nimport \"@openzeppelin/contracts/token/ERC20/IERC20.sol\";\r\nimport \"hardhat/console.sol\";\r\n\r\ninterface IWrappedResource {\r\n    function withdraw(uint redeemAmount) external;\r\n    function asset() external view returns(address);\r\n}\r\n\r\ncontract ResourceTransmuter {\r\n\r\n    address wrappedToken;\r\n    address emittedToken;\r\n    bool initialised;\r\n\r\n    constructor(){\r\n        //set the implementation as initialised\r\n        initialised = true;\r\n    }\r\n\r\n    function initialiser(address _wrappedToken, address _emittedToken) public {\r\n        require(initialised == false, \"intiailised\");\r\n        initialised = true;\r\n        wrappedToken = _wrappedToken;\r\n        emittedToken = _emittedToken;\r\n    }\r\n\r\n    function exchangeRate() public view returns(uint){\r\n        return IERC20(wrappedToken).balanceOf(address(this)) * 1e18 / (IERC20(emittedToken).totalSupply());\r\n    }\r\n\r\n    function redeem(uint amount, bool unwrapToken) external {\r\n        IERC20(emittedToken).transferFrom(msg.sender, address(this), amount);\r\n        uint redeemAmount = (amount * exchangeRate()) / 1e18;\r\n        if(unwrapToken){\r\n            unwrap(redeemAmount);\r\n        }\r\n        else {\r\n            IERC20(wrappedToken).transfer(msg.sender, redeemAmount);\r\n        }\r\n    }\r\n\r\n    function unwrap(uint amount) public {\r\n        address asset = IWrappedResource(wrappedToken).asset();\r\n        uint startBalance = IERC20(asset).balanceOf(address(this));\r\n        IWrappedResource(wrappedToken).withdraw(amount);\r\n        uint changeBalance = IERC20(asset).balanceOf(address(this)) - startBalance;\r\n        IERC20(asset).transfer(msg.sender, changeBalance);\r\n    }\r\n}",
  "sourcePath": "C:\\Users\\Khera\\Documents\\github\\DeFi-Something-I-Guess-Contracts\\contracts\\Game\\Resources\\ResourceTransmuter.sol",
  "compiler": {
    "name": "solc",
    "version": "0.8.17+commit.8df45f5f.Emscripten.clang"
  },
  "schemaVersion": "3.4.10",
  "updatedAt": "2022-10-23T09:27:04.539Z",
  "devdoc": {
    "kind": "dev",
    "methods": {},
    "version": 1
  },
  "userdoc": {
    "kind": "user",
    "methods": {},
    "version": 1
  }
}