{
  "contractName": "ResourceManager",
  "abi": [
    {
      "inputs": [
        {
          "internalType": "address",
          "name": "_gameManager",
          "type": "address"
        }
      ],
      "stateMutability": "nonpayable",
      "type": "constructor"
    },
    {
      "anonymous": false,
      "inputs": [
        {
          "indexed": true,
          "internalType": "address",
          "name": "previousOwner",
          "type": "address"
        },
        {
          "indexed": true,
          "internalType": "address",
          "name": "newOwner",
          "type": "address"
        }
      ],
      "name": "OwnershipTransferred",
      "type": "event"
    },
    {
      "inputs": [],
      "name": "gameManager",
      "outputs": [
        {
          "internalType": "address",
          "name": "",
          "type": "address"
        }
      ],
      "stateMutability": "view",
      "type": "function"
    },
    {
      "inputs": [],
      "name": "owner",
      "outputs": [
        {
          "internalType": "address",
          "name": "",
          "type": "address"
        }
      ],
      "stateMutability": "view",
      "type": "function"
    },
    {
      "inputs": [],
      "name": "renounceOwnership",
      "outputs": [],
      "stateMutability": "nonpayable",
      "type": "function"
    },
    {
      "inputs": [],
      "name": "scaleFactor",
      "outputs": [
        {
          "internalType": "uint256",
          "name": "",
          "type": "uint256"
        }
      ],
      "stateMutability": "view",
      "type": "function"
    },
    {
      "inputs": [],
      "name": "totalResources",
      "outputs": [
        {
          "internalType": "uint256",
          "name": "",
          "type": "uint256"
        }
      ],
      "stateMutability": "view",
      "type": "function"
    },
    {
      "inputs": [
        {
          "internalType": "address",
          "name": "newOwner",
          "type": "address"
        }
      ],
      "name": "transferOwnership",
      "outputs": [],
      "stateMutability": "nonpayable",
      "type": "function"
    },
    {
      "inputs": [
        {
          "internalType": "address",
          "name": "resourceAddress",
          "type": "address"
        },
        {
          "internalType": "address",
          "name": "emittedResource",
          "type": "address"
        },
        {
          "internalType": "address",
          "name": "underlying",
          "type": "address"
        },
        {
          "internalType": "address",
          "name": "transmuter",
          "type": "address"
        },
        {
          "internalType": "uint256",
          "name": "levelUp",
          "type": "uint256"
        }
      ],
      "name": "addResource",
      "outputs": [],
      "stateMutability": "nonpayable",
      "type": "function"
    },
    {
      "inputs": [
        {
          "components": [
            {
              "internalType": "uint256",
              "name": "emissionRate",
              "type": "uint256"
            },
            {
              "internalType": "uint256",
              "name": "levelUp",
              "type": "uint256"
            },
            {
              "internalType": "address",
              "name": "underlying",
              "type": "address"
            },
            {
              "internalType": "address",
              "name": "pool",
              "type": "address"
            },
            {
              "internalType": "string",
              "name": "wrappedName",
              "type": "string"
            },
            {
              "internalType": "string",
              "name": "wrappedSymbol",
              "type": "string"
            },
            {
              "internalType": "string",
              "name": "emittedName",
              "type": "string"
            },
            {
              "internalType": "string",
              "name": "emittedSymbol",
              "type": "string"
            }
          ],
          "internalType": "struct AaveResourceSetup",
          "name": "aaveResource",
          "type": "tuple"
        }
      ],
      "name": "generateNewAaveResource",
      "outputs": [],
      "stateMutability": "nonpayable",
      "type": "function"
    },
    {
      "inputs": [
        {
          "internalType": "uint256",
          "name": "r",
          "type": "uint256"
        }
      ],
      "name": "getResource",
      "outputs": [
        {
          "components": [
            {
              "internalType": "address",
              "name": "asset",
              "type": "address"
            },
            {
              "internalType": "address",
              "name": "underlying",
              "type": "address"
            },
            {
              "internalType": "address",
              "name": "depositToken",
              "type": "address"
            },
            {
              "internalType": "address",
              "name": "resourceToken",
              "type": "address"
            },
            {
              "internalType": "address",
              "name": "emittedResource",
              "type": "address"
            },
            {
              "internalType": "address",
              "name": "transmuter",
              "type": "address"
            },
            {
              "internalType": "uint256",
              "name": "levelUpValue",
              "type": "uint256"
            }
          ],
          "internalType": "struct Resource",
          "name": "",
          "type": "tuple"
        }
      ],
      "stateMutability": "view",
      "type": "function"
    }
  ],
  "bytecode": "0x6080604052600060015561271060025534801561001b57600080fd5b5060405161159e38038061159e83398101604081905261003a916100b8565b61004333610068565b600380546001600160a01b0319166001600160a01b03929092169190911790556100e8565b600080546001600160a01b038381166001600160a01b0319831681178455604051919092169283917f8be0079c531659141344cd1fd0a4f28419497f9722a3daafe3b4186f6b6457e09190a35050565b6000602082840312156100ca57600080fd5b81516001600160a01b03811681146100e157600080fd5b9392505050565b6114a7806100f76000396000f3fe608060405234801561001057600080fd5b50600436106100a35760003560e01c8063715018a611610076578063c26e9d901161005b578063c26e9d901461026d578063c6b0526614610280578063f2fde38b146102a057600080fd5b8063715018a6146102265780638da5cb5b1461022e57600080fd5b80631e8fca2d146100a85780634b595ced146101f157806366f5a74714610206578063683dd1911461021d575b600080fd5b6101706100b6366004610e89565b6040805160e081018252600080825260208201819052918101829052606081018290526080810182905260a0810182905260c081019190915250600090815260046020818152604092839020835160e081018552815473ffffffffffffffffffffffffffffffffffffffff908116825260018301548116938201939093526002820154831694810194909452600381015482166060850152918201548116608084015260058201541660a08301526006015460c082015290565b6040516101e89190600060e08201905073ffffffffffffffffffffffffffffffffffffffff8084511683528060208501511660208401528060408501511660408401528060608501511660608401528060808501511660808401528060a08501511660a08401525060c083015160c083015292915050565b60405180910390f35b6102046101ff366004610ecf565b6102b3565b005b61020f60015481565b6040519081526020016101e8565b61020f60025481565b6102046106f4565b60005473ffffffffffffffffffffffffffffffffffffffff165b60405173ffffffffffffffffffffffffffffffffffffffff90911681526020016101e8565b61020461027b366004611037565b610708565b6003546102489073ffffffffffffffffffffffffffffffffffffffff1681565b6102046102ae366004611147565b610bfa565b6102bb610cb1565b73ffffffffffffffffffffffffffffffffffffffff831660009081526005602052604090205460ff1615610350576040517f08c379a000000000000000000000000000000000000000000000000000000000815260206004820152600f60248201527f5265736f7572636520457869737473000000000000000000000000000000000060448201526064015b60405180910390fd5b73ffffffffffffffffffffffffffffffffffffffff808416600090815260056020908152604080832080547fffffffffffffffffffffffffffffffffffffffffffffffffffffffffffffff0016600117905580517f38d52e0f000000000000000000000000000000000000000000000000000000008152905192938916926338d52e0f926004808401939192918290030181865afa1580156103f6573d6000803e3d6000fd5b505050506040513d601f19601f8201168201806040525081019061041a919061116b565b73ffffffffffffffffffffffffffffffffffffffff1663313ce5676040518163ffffffff1660e01b8152600401602060405180830381865afa158015610464573d6000803e3d6000fd5b505050506040513d601f19601f820116820180604052508101906104889190611188565b9050600060025482600a61049c91906112f2565b6104a690856112fe565b6104b09190611315565b905060006040518060e001604052808973ffffffffffffffffffffffffffffffffffffffff166338d52e0f6040518163ffffffff1660e01b8152600401602060405180830381865afa15801561050a573d6000803e3d6000fd5b505050506040513d601f19601f8201168201806040525081019061052e919061116b565b73ffffffffffffffffffffffffffffffffffffffff1681526020018773ffffffffffffffffffffffffffffffffffffffff1681526020018973ffffffffffffffffffffffffffffffffffffffff1663c89039c56040518163ffffffff1660e01b8152600401602060405180830381865afa1580156105b0573d6000803e3d6000fd5b505050506040513d601f19601f820116820180604052508101906105d4919061116b565b73ffffffffffffffffffffffffffffffffffffffff90811682528a81166020808401919091528a821660408085019190915289831660608086019190915260809485018890526001805460009081526004808652848220895181547fffffffffffffffffffffffff0000000000000000000000000000000000000000908116918a16919091178255968a015181850180548916918a1691909117905594890151600286018054881691891691909117905592880151600385018054871691881691909117905595870151918301805485169286169290921790915560a086015160058301805490941694169390931790915560c08401516006909101558054929350918291906106e5908390611350565b90915550505050505050505050565b6106fc610cb1565b6107066000610d32565b565b610710610cb1565b60006107ab600360009054906101000a900473ffffffffffffffffffffffffffffffffffffffff1673ffffffffffffffffffffffffffffffffffffffff1663d5c0f3a66040518163ffffffff1660e01b8152600401602060405180830381865afa158015610782573d6000803e3d6000fd5b505050506040513d601f19601f820116820180604052508101906107a6919061116b565b610da7565b604083810151606085015191517f80844fba00000000000000000000000000000000000000000000000000000000815273ffffffffffffffffffffffffffffffffffffffff91821660048201529181166024830152919250908216906380844fba90604401600060405180830381600087803b15801561082a57600080fd5b505af115801561083e573d6000803e3d6000fd5b5050505060006108b4600360009054906101000a900473ffffffffffffffffffffffffffffffffffffffff1673ffffffffffffffffffffffffffffffffffffffff1663eb9bc4c76040518163ffffffff1660e01b8152600401602060405180830381865afa158015610782573d6000803e3d6000fd5b608084015160a08501516003546040517fd87c3b8200000000000000000000000000000000000000000000000000000000815293945073ffffffffffffffffffffffffffffffffffffffff8086169463d87c3b829461091e949093909289929116906004016113c7565b600060405180830381600087803b15801561093857600080fd5b505af115801561094c573d6000803e3d6000fd5b5050505060006109c2600360009054906101000a900473ffffffffffffffffffffffffffffffffffffffff1673ffffffffffffffffffffffffffffffffffffffff1663bade15bc6040518163ffffffff1660e01b8152600401602060405180830381865afa158015610782573d6000803e3d6000fd5b60c085015160e086015186516003546040517f5e739afb00000000000000000000000000000000000000000000000000000000815294955073ffffffffffffffffffffffffffffffffffffffff80871695635e739afb95610a2d95909490939092169060040161141e565b600060405180830381600087803b158015610a4757600080fd5b505af1158015610a5b573d6000803e3d6000fd5b505050506000610ad0600360009054906101000a900473ffffffffffffffffffffffffffffffffffffffff1673ffffffffffffffffffffffffffffffffffffffff1662ce4fa86040518163ffffffff1660e01b8152600401602060405180830381865afa158015610782573d6000803e3d6000fd5b6040517f80844fba00000000000000000000000000000000000000000000000000000000815273ffffffffffffffffffffffffffffffffffffffff85811660048301528481166024830152919250908216906380844fba90604401600060405180830381600087803b158015610b4557600080fd5b505af1158015610b59573d6000803e3d6000fd5b50506040517fadb4a9ad00000000000000000000000000000000000000000000000000000000815273ffffffffffffffffffffffffffffffffffffffff84811660048301528616925063adb4a9ad9150602401600060405180830381600087803b158015610bc657600080fd5b505af1158015610bda573d6000803e3d6000fd5b50505050610bf3838387604001518489602001516102b3565b5050505050565b610c02610cb1565b73ffffffffffffffffffffffffffffffffffffffff8116610ca5576040517f08c379a000000000000000000000000000000000000000000000000000000000815260206004820152602660248201527f4f776e61626c653a206e6577206f776e657220697320746865207a65726f206160448201527f64647265737300000000000000000000000000000000000000000000000000006064820152608401610347565b610cae81610d32565b50565b60005473ffffffffffffffffffffffffffffffffffffffff163314610706576040517f08c379a000000000000000000000000000000000000000000000000000000000815260206004820181905260248201527f4f776e61626c653a2063616c6c6572206973206e6f7420746865206f776e65726044820152606401610347565b6000805473ffffffffffffffffffffffffffffffffffffffff8381167fffffffffffffffffffffffff0000000000000000000000000000000000000000831681178455604051919092169283917f8be0079c531659141344cd1fd0a4f28419497f9722a3daafe3b4186f6b6457e09190a35050565b60006040517f3d602d80600a3d3981f3363d3d373d3d3d363d7300000000000000000000000081528260601b60148201527f5af43d82803e903d91602b57fd5bf3000000000000000000000000000000000060288201526037816000f091505073ffffffffffffffffffffffffffffffffffffffff8116610e84576040517f08c379a000000000000000000000000000000000000000000000000000000000815260206004820152601660248201527f455243313136373a20637265617465206661696c6564000000000000000000006044820152606401610347565b919050565b600060208284031215610e9b57600080fd5b5035919050565b73ffffffffffffffffffffffffffffffffffffffff81168114610cae57600080fd5b8035610e8481610ea2565b600080600080600060a08688031215610ee757600080fd5b8535610ef281610ea2565b94506020860135610f0281610ea2565b93506040860135610f1281610ea2565b92506060860135610f2281610ea2565b949793965091946080013592915050565b7f4e487b7100000000000000000000000000000000000000000000000000000000600052604160045260246000fd5b604051610100810167ffffffffffffffff81118282101715610f8657610f86610f33565b60405290565b600082601f830112610f9d57600080fd5b813567ffffffffffffffff80821115610fb857610fb8610f33565b604051601f83017fffffffffffffffffffffffffffffffffffffffffffffffffffffffffffffffe0908116603f01168101908282118183101715610ffe57610ffe610f33565b8160405283815286602085880101111561101757600080fd5b836020870160208301376000602085830101528094505050505092915050565b60006020828403121561104957600080fd5b813567ffffffffffffffff8082111561106157600080fd5b90830190610100828603121561107657600080fd5b61107e610f62565b823581526020830135602082015261109860408401610ec4565b60408201526110a960608401610ec4565b60608201526080830135828111156110c057600080fd5b6110cc87828601610f8c565b60808301525060a0830135828111156110e457600080fd5b6110f087828601610f8c565b60a08301525060c08301358281111561110857600080fd5b61111487828601610f8c565b60c08301525060e08301358281111561112c57600080fd5b61113887828601610f8c565b60e08301525095945050505050565b60006020828403121561115957600080fd5b813561116481610ea2565b9392505050565b60006020828403121561117d57600080fd5b815161116481610ea2565b60006020828403121561119a57600080fd5b5051919050565b7f4e487b7100000000000000000000000000000000000000000000000000000000600052601160045260246000fd5b600181815b8085111561122957817fffffffffffffffffffffffffffffffffffffffffffffffffffffffffffffffff0482111561120f5761120f6111a1565b8085161561121c57918102915b93841c93908002906111d5565b509250929050565b600082611240575060016112ec565b8161124d575060006112ec565b8160018114611263576002811461126d57611289565b60019150506112ec565b60ff84111561127e5761127e6111a1565b50506001821b6112ec565b5060208310610133831016604e8410600b84101617156112ac575081810a6112ec565b6112b683836111d0565b807fffffffffffffffffffffffffffffffffffffffffffffffffffffffffffffffff048211156112e8576112e86111a1565b0290505b92915050565b60006111648383611231565b80820281158282048414176112ec576112ec6111a1565b60008261134b577f4e487b7100000000000000000000000000000000000000000000000000000000600052601260045260246000fd5b500490565b808201808211156112ec576112ec6111a1565b6000815180845260005b818110156113895760208185018101518683018201520161136d565b5060006020828601015260207fffffffffffffffffffffffffffffffffffffffffffffffffffffffffffffffe0601f83011685010191505092915050565b6080815260006113da6080830187611363565b82810360208401526113ec8187611363565b91505073ffffffffffffffffffffffffffffffffffffffff808516604084015280841660608401525095945050505050565b6080815260006114316080830187611363565b82810360208401526114438187611363565b91505083604083015273ffffffffffffffffffffffffffffffffffffffff831660608301529594505050505056fea2646970667358221220788169892cb75b7f27433ab5e8eb525dcde2b0ea66c84c61ae2424f75edaa5ff64736f6c63430008110033",
  "immutableReferences": {},
  "source": "pragma solidity >=0.8.0;\r\n\r\nimport \"@openzeppelin/contracts/token/ERC20/IERC20.sol\";\r\nimport \"@openzeppelin/contracts/access/Ownable.sol\";\r\nimport \"@openzeppelin/contracts/proxy/Clones.sol\";\r\nimport \"../Management/GameManager.sol\";\r\nimport \"./Interfaces/IAaveV3Underlying.sol\";\r\nimport \"./Interfaces/IEmittedResource.sol\";\r\nimport \"./Interfaces/IResourceTransmuter.sol\";\r\nimport \"./Interfaces/IWrappedResource.sol\";\r\nimport \"hardhat/console.sol\";\r\n\r\nstruct Resource {\r\n    address asset;\r\n    address underlying;\r\n    address depositToken;\r\n    address resourceToken;\r\n    address emittedResource;\r\n    address transmuter;\r\n    uint levelUpValue;\r\n}\r\n\r\nstruct AaveResourceSetup{\r\n    uint emissionRate;\r\n    uint levelUp;\r\n    address underlying;\r\n    address pool;\r\n    string wrappedName;\r\n    string wrappedSymbol;\r\n    string emittedName;\r\n    string emittedSymbol;\r\n}\r\n\r\ninterface ITokenInfo {\r\n    function decimals() external view returns(uint);\r\n}\r\n\r\ncontract ResourceManager is Ownable {\r\n\r\n    uint public totalResources = 0;\r\n    uint public scaleFactor = 10000;\r\n    address public gameManager;\r\n    mapping(uint => Resource) private _resources;\r\n    mapping(address => bool) private _hasToken;\r\n\r\n    constructor(address _gameManager) {\r\n        gameManager = _gameManager;\r\n    }\r\n\r\n    \r\n    function addResource(address resourceAddress, address emittedResource, address underlying, address transmuter, uint levelUp) public onlyOwner {\r\n        require(_hasToken[underlying] == false, \"Resource Exists\");\r\n        _hasToken[underlying] = true;\r\n        \r\n        uint decimals = ITokenInfo(IWrappedResource(resourceAddress).asset()).decimals();\r\n        uint levelValue = (levelUp * 10**decimals) / scaleFactor;\r\n\r\n        Resource memory r = Resource({\r\n            asset: IWrappedResource(resourceAddress).asset(),\r\n            underlying: underlying,\r\n            depositToken: IWrappedResource(resourceAddress).depositToken(),\r\n            resourceToken: resourceAddress,\r\n            emittedResource: emittedResource,\r\n            transmuter: transmuter,\r\n            levelUpValue: levelValue\r\n        });\r\n        _resources[totalResources] = r;\r\n        totalResources += 1;\r\n    }\r\n\r\n    function generateNewAaveResource(AaveResourceSetup memory aaveResource) external onlyOwner {\r\n\r\n        address a = Clones.clone(GameManager(gameManager).aaveV3Implementation());\r\n        IAaveV3Underlying(a).initialiser(aaveResource.underlying, aaveResource.pool);\r\n\r\n        address w = Clones.clone(GameManager(gameManager).wrappedResourceImplementation());\r\n        IWrappedResource(w).initialiser(aaveResource.wrappedName, aaveResource.wrappedSymbol, address(a), gameManager);\r\n\r\n        address e = Clones.clone(GameManager(gameManager).emittedResourceImplementation());\r\n        IEmittedResource(e).initialiser(aaveResource.emittedName, aaveResource.emittedSymbol, aaveResource.emissionRate, gameManager);\r\n\r\n        address t = Clones.clone(GameManager(gameManager).transmuterImplementation());\r\n        IResourceTransmuter(t).initialiser(address(w), address(e));\r\n\r\n        IWrappedResource(w).setTransmuter(address(t));\r\n        addResource(address(w), address(e), aaveResource.underlying, address(t), aaveResource.levelUp);\r\n    }\r\n    \r\n    \r\n    function getResource(uint r) external view returns(Resource memory) {\r\n        return _resources[r];\r\n    }\r\n    \r\n}",
  "sourcePath": "C:\\Users\\Khera\\Documents\\github\\DeFi-Something-I-Guess-Contracts\\contracts\\Game\\Resources\\ResourceManager.sol",
  "compiler": {
    "name": "solc",
    "version": "0.8.17+commit.8df45f5f.Emscripten.clang"
  },
  "schemaVersion": "3.4.10",
  "updatedAt": "2022-10-23T09:27:04.534Z",
  "devdoc": {
    "kind": "dev",
    "methods": {
      "owner()": {
        "details": "Returns the address of the current owner."
      },
      "renounceOwnership()": {
        "details": "Leaves the contract without owner. It will not be possible to call `onlyOwner` functions anymore. Can only be called by the current owner. NOTE: Renouncing ownership will leave the contract without an owner, thereby removing any functionality that is only available to the owner."
      },
      "transferOwnership(address)": {
        "details": "Transfers ownership of the contract to a new account (`newOwner`). Can only be called by the current owner."
      }
    },
    "version": 1
  },
  "userdoc": {
    "kind": "user",
    "methods": {},
    "version": 1
  }
}