{
  "contractName": "Underlying",
  "abi": [
    {
      "inputs": [],
      "name": "asset",
      "outputs": [
        {
          "internalType": "address",
          "name": "",
          "type": "address"
        }
      ],
      "stateMutability": "view",
      "type": "function"
    },
    {
      "inputs": [],
      "name": "depositToken",
      "outputs": [
        {
          "internalType": "address",
          "name": "",
          "type": "address"
        }
      ],
      "stateMutability": "view",
      "type": "function"
    },
    {
      "inputs": [
        {
          "internalType": "uint256",
          "name": "amount",
          "type": "uint256"
        }
      ],
      "name": "deposit",
      "outputs": [],
      "stateMutability": "nonpayable",
      "type": "function"
    },
    {
      "inputs": [
        {
          "internalType": "uint256",
          "name": "amount",
          "type": "uint256"
        }
      ],
      "name": "withdraw",
      "outputs": [],
      "stateMutability": "nonpayable",
      "type": "function"
    }
  ],
  "bytecode": "0x608060405234801561001057600080fd5b50610110806100206000396000f3fe6080604052348015600f57600080fd5b506004361060465760003560e01c80632e1a7d4d14604b57806338d52e0f14605b578063b6b55f2514604b578063c89039c51460a3575b600080fd5b6059605636600460c2565b50565b005b600054607a9073ffffffffffffffffffffffffffffffffffffffff1681565b60405173ffffffffffffffffffffffffffffffffffffffff909116815260200160405180910390f35b600154607a9073ffffffffffffffffffffffffffffffffffffffff1681565b60006020828403121560d357600080fd5b503591905056fea2646970667358221220385538cde46c21c2463e77f084d1accbd93802825c6f06e713607311bc9aea8464736f6c63430008110033",
  "immutableReferences": {},
  "source": "pragma solidity >=0.8.0;\r\n\r\ncontract Underlying {\r\n\r\n    address public asset;\r\n    address public depositToken;\r\n\r\n    // Todo: Reentrancy Guard\r\n    function deposit(uint amount) external virtual {}\r\n\r\n    // Todo: Reentrancy Guard\r\n    function withdraw(uint amount) external virtual {}\r\n}",
  "sourcePath": "C:\\Users\\Khera\\Documents\\github\\DeFi-Something-I-Guess-Contracts\\contracts\\Game\\Resources\\Underlying.sol",
  "compiler": {
    "name": "solc",
    "version": "0.8.17+commit.8df45f5f.Emscripten.clang"
  },
  "schemaVersion": "3.4.10",
  "updatedAt": "2022-10-23T09:27:04.541Z",
  "devdoc": {
    "kind": "dev",
    "methods": {},
    "version": 1
  },
  "userdoc": {
    "kind": "user",
    "methods": {},
    "version": 1
  }
}