{
  "contractName": "UniswapV3Helper",
  "abi": [
    {
      "stateMutability": "payable",
      "type": "fallback"
    },
    {
      "stateMutability": "payable",
      "type": "receive"
    },
    {
      "inputs": [
        {
          "internalType": "address",
          "name": "router",
          "type": "address"
        },
        {
          "internalType": "address",
          "name": "tokenIn",
          "type": "address"
        },
        {
          "internalType": "address",
          "name": "tokenOut",
          "type": "address"
        },
        {
          "internalType": "uint24",
          "name": "fee",
          "type": "uint24"
        },
        {
          "internalType": "uint256",
          "name": "amountIn",
          "type": "uint256"
        },
        {
          "internalType": "uint256",
          "name": "amountOut",
          "type": "uint256"
        },
        {
          "internalType": "address",
          "name": "to",
          "type": "address"
        }
      ],
      "name": "swapExactTokensForTokens",
      "outputs": [],
      "stateMutability": "nonpayable",
      "type": "function"
    },
    {
      "inputs": [
        {
          "internalType": "address",
          "name": "wrappedNative",
          "type": "address"
        }
      ],
      "name": "deposit",
      "outputs": [],
      "stateMutability": "payable",
      "type": "function"
    }
  ],
  "bytecode": "0x608060405234801561001057600080fd5b506104f0806100206000396000f3fe60806040526004361061002a5760003560e01c8063def4c0f814610033578063f340fa011461005357005b3661003157005b005b34801561003f57600080fd5b5061003161004e3660046103db565b610066565b61003161006136600461045d565b6102b6565b6040517f23b872dd0000000000000000000000000000000000000000000000000000000081523360048201523060248201526044810184905273ffffffffffffffffffffffffffffffffffffffff8716906323b872dd906064016020604051808303816000875af11580156100df573d6000803e3d6000fd5b505050506040513d601f19601f82011682018060405250810190610103919061047f565b506040517f095ea7b300000000000000000000000000000000000000000000000000000000815273ffffffffffffffffffffffffffffffffffffffff88811660048301526024820185905287169063095ea7b3906044016020604051808303816000875af1158015610179573d6000803e3d6000fd5b505050506040513d601f19601f8201168201806040525081019061019d919061047f565b506040805160e08101825273ffffffffffffffffffffffffffffffffffffffff88811682528781166020830190815262ffffff88811684860190815286841660608601908152608086018a815260a087018a8152600060c0890190815298517f04e45aaf000000000000000000000000000000000000000000000000000000008152885188166004820152955187166024870152925190931660448501525184166064840152905160848301525160a48201529251811660c48401529091908916906304e45aaf9060e4016020604051808303816000875af1158015610287573d6000803e3d6000fd5b505050506040513d601f19601f820116820180604052508101906102ab91906104a1565b505050505050505050565b8073ffffffffffffffffffffffffffffffffffffffff1663d0e30db0346040518263ffffffff1660e01b81526004016000604051808303818588803b1580156102fe57600080fd5b505af1158015610312573d6000803e3d6000fd5b50506040517fa9059cbb00000000000000000000000000000000000000000000000000000000815233600482015234602482015273ffffffffffffffffffffffffffffffffffffffff8516935063a9059cbb925060440190506020604051808303816000875af115801561038a573d6000803e3d6000fd5b505050506040513d601f19601f820116820180604052508101906103ae919061047f565b5050565b803573ffffffffffffffffffffffffffffffffffffffff811681146103d657600080fd5b919050565b600080600080600080600060e0888a0312156103f657600080fd5b6103ff886103b2565b965061040d602089016103b2565b955061041b604089016103b2565b9450606088013562ffffff8116811461043357600080fd5b93506080880135925060a0880135915061044f60c089016103b2565b905092959891949750929550565b60006020828403121561046f57600080fd5b610478826103b2565b9392505050565b60006020828403121561049157600080fd5b8151801515811461047857600080fd5b6000602082840312156104b357600080fd5b505191905056fea2646970667358221220adab7cd68ee0f5585dadbe0034796082b588f90724766b5b24778f0cb1602ff864736f6c63430008110033",
  "immutableReferences": {},
  "source": "pragma solidity >=0.8.0;\r\n\r\nimport \"@openzeppelin/contracts/token/ERC20/IERC20.sol\";\r\n\r\ninterface IUniswapV3 {\r\n    function exactInputSingle(ExactInputSingleParams memory params) external payable returns (uint256 amountOut);\r\n}\r\n\r\ninterface IWrappedNative {\r\n    function deposit() external payable;\r\n}\r\n\r\nstruct ExactInputSingleParams {\r\n    address tokenIn;\r\n    address tokenOut;\r\n    uint24 fee;\r\n    address recipient;\r\n    uint256 amountIn;\r\n    uint256 amountOutMinimum;\r\n    uint160 sqrtPriceLimitX96;\r\n}\r\n\r\n\r\ncontract UniswapV3Helper {\r\n\r\n    function swapExactTokensForTokens(address router, address tokenIn, address tokenOut, uint24 fee, uint amountIn, uint amountOut, address to) external {\r\n        IERC20(tokenIn).transferFrom(msg.sender, address(this), amountIn);\r\n        IERC20(tokenIn).approve(router, amountIn);\r\n\r\n        ExactInputSingleParams memory params =\r\n                ExactInputSingleParams({\r\n                    tokenIn: address(tokenIn),\r\n                    tokenOut: address(tokenOut),\r\n                    fee: uint24(fee),\r\n                    recipient: to,\r\n                    amountIn: amountIn,\r\n                    amountOutMinimum: amountOut,\r\n                    sqrtPriceLimitX96: 0\r\n                });\r\n\r\n            IUniswapV3(router).exactInputSingle(params); \r\n\r\n    }\r\n\r\n    function deposit(address wrappedNative) external payable {\r\n        IWrappedNative(wrappedNative).deposit{value: msg.value}();\r\n        IERC20(wrappedNative).transfer(msg.sender, msg.value);\r\n    }\r\n\r\n    receive() external payable {}\r\n    fallback() external payable {}\r\n}\r\n",
  "sourcePath": "C:\\Users\\Khera\\Documents\\github\\DeFi-Something-I-Guess-Contracts\\contracts\\Game\\Helpers\\UniswapV3Helper.sol",
  "compiler": {
    "name": "solc",
    "version": "0.8.17+commit.8df45f5f.Emscripten.clang"
  },
  "schemaVersion": "3.4.10",
  "updatedAt": "2022-10-23T09:27:04.493Z",
  "devdoc": {
    "kind": "dev",
    "methods": {},
    "version": 1
  },
  "userdoc": {
    "kind": "user",
    "methods": {},
    "version": 1
  }
}