{
  "contractName": "World",
  "abi": [
    {
      "inputs": [
        {
          "internalType": "uint256",
          "name": "_plotPrice",
          "type": "uint256"
        },
        {
          "internalType": "address",
          "name": "_farmImplementation",
          "type": "address"
        },
        {
          "internalType": "address",
          "name": "_gameManager",
          "type": "address"
        },
        {
          "internalType": "uint256",
          "name": "_maxXY",
          "type": "uint256"
        }
      ],
      "stateMutability": "nonpayable",
      "type": "constructor"
    },
    {
      "anonymous": false,
      "inputs": [
        {
          "indexed": true,
          "internalType": "address",
          "name": "previousOwner",
          "type": "address"
        },
        {
          "indexed": true,
          "internalType": "address",
          "name": "newOwner",
          "type": "address"
        }
      ],
      "name": "OwnershipTransferred",
      "type": "event"
    },
    {
      "stateMutability": "payable",
      "type": "fallback"
    },
    {
      "inputs": [],
      "name": "owner",
      "outputs": [
        {
          "internalType": "address",
          "name": "",
          "type": "address"
        }
      ],
      "stateMutability": "view",
      "type": "function"
    },
    {
      "inputs": [],
      "name": "renounceOwnership",
      "outputs": [],
      "stateMutability": "nonpayable",
      "type": "function"
    },
    {
      "inputs": [
        {
          "internalType": "address",
          "name": "newOwner",
          "type": "address"
        }
      ],
      "name": "transferOwnership",
      "outputs": [],
      "stateMutability": "nonpayable",
      "type": "function"
    },
    {
      "stateMutability": "payable",
      "type": "receive"
    },
    {
      "inputs": [
        {
          "internalType": "uint256",
          "name": "x",
          "type": "uint256"
        },
        {
          "internalType": "uint256",
          "name": "y",
          "type": "uint256"
        }
      ],
      "name": "buyPlot",
      "outputs": [],
      "stateMutability": "payable",
      "type": "function"
    },
    {
      "inputs": [
        {
          "internalType": "uint256",
          "name": "x",
          "type": "uint256"
        },
        {
          "internalType": "uint256",
          "name": "y",
          "type": "uint256"
        }
      ],
      "name": "getFarmAt",
      "outputs": [
        {
          "internalType": "address",
          "name": "",
          "type": "address"
        }
      ],
      "stateMutability": "view",
      "type": "function"
    },
    {
      "inputs": [
        {
          "internalType": "uint256",
          "name": "_newMaxXY",
          "type": "uint256"
        }
      ],
      "name": "expandMap",
      "outputs": [],
      "stateMutability": "nonpayable",
      "type": "function"
    },
    {
      "inputs": [
        {
          "internalType": "uint256",
          "name": "x1",
          "type": "uint256"
        },
        {
          "internalType": "uint256",
          "name": "x2",
          "type": "uint256"
        },
        {
          "internalType": "uint256",
          "name": "y1",
          "type": "uint256"
        },
        {
          "internalType": "uint256",
          "name": "y2",
          "type": "uint256"
        }
      ],
      "name": "distance",
      "outputs": [
        {
          "internalType": "uint256",
          "name": "d",
          "type": "uint256"
        }
      ],
      "stateMutability": "view",
      "type": "function"
    },
    {
      "inputs": [
        {
          "internalType": "uint256",
          "name": "x",
          "type": "uint256"
        },
        {
          "internalType": "uint256",
          "name": "y",
          "type": "uint256"
        }
      ],
      "name": "togglePVP",
      "outputs": [],
      "stateMutability": "nonpayable",
      "type": "function"
    }
  ],
  "bytecode": "0x608060405234801561001057600080fd5b50604051610cac380380610cac83398101604081905261002f916100de565b61003833610072565b600893909355600480546001600160a01b039384166001600160a01b03199182161790915560058054929093169116179055600755610122565b600080546001600160a01b038381166001600160a01b0319831681178455604051919092169283917f8be0079c531659141344cd1fd0a4f28419497f9722a3daafe3b4186f6b6457e09190a35050565b80516001600160a01b03811681146100d957600080fd5b919050565b600080600080608085870312156100f457600080fd5b84519350610104602086016100c2565b9250610112604086016100c2565b6060959095015193969295505050565b610b7b806101316000396000f3fe6080604052600436106100795760003560e01c8063abb571281161004b578063abb5712814610128578063c5b417ec14610156578063f2fde38b14610169578063f62a7e541461018957005b806327994007146100825780635286ffc8146100a2578063715018a6146100c25780638da5cb5b146100d757005b3661008057005b005b34801561008e57600080fd5b5061008061009d366004610a09565b6101a9565b3480156100ae57600080fd5b506100806100bd366004610a22565b610226565b3480156100ce57600080fd5b5061008061039e565b3480156100e357600080fd5b5060005473ffffffffffffffffffffffffffffffffffffffff165b60405173ffffffffffffffffffffffffffffffffffffffff90911681526020015b60405180910390f35b34801561013457600080fd5b50610148610143366004610a44565b6103b2565b60405190815260200161011f565b610080610164366004610a22565b61045c565b34801561017557600080fd5b50610080610184366004610a98565b610626565b34801561019557600080fd5b506100fe6101a4366004610a22565b6106dd565b6101b1610714565b6007548111610221576040517f08c379a000000000000000000000000000000000000000000000000000000000815260206004820152600c60248201527f496e76616c69642053697a65000000000000000000000000000000000000000060448201526064015b60405180910390fd5b600755565b60008281526001602090815260408083208484528252918290205482517f8da5cb5b000000000000000000000000000000000000000000000000000000008152925173ffffffffffffffffffffffffffffffffffffffff9091169233928492638da5cb5b9260048082019392918290030181865afa1580156102ac573d6000803e3d6000fd5b505050506040513d601f19601f820116820180604052508101906102d09190610abc565b73ffffffffffffffffffffffffffffffffffffffff161461034d576040517f08c379a000000000000000000000000000000000000000000000000000000000815260206004820152600f60248201527f6f6e6c79206661726d206f776e657200000000000000000000000000000000006044820152606401610218565b73ffffffffffffffffffffffffffffffffffffffff16600090815260036020526040902080547fffffffffffffffffffffffffffffffffffffffffffffffffffffffffffffff001660011790555050565b6103a6610714565b6103b06000610795565b565b6000808486116103c257846103c4565b855b905060008587116103d557866103d7565b855b905060006103e58280610b08565b6103ef8480610b08565b6103f99190610b1f565b9050600085871161040a578561040c565b865b9050600086881161041d578761041f565b865b9050600061042d8280610b08565b6104378480610b08565b6104419190610b1f565b905061044d8482610b32565b9b9a5050505050505050505050565b600082815260016020908152604080832084845290915290205473ffffffffffffffffffffffffffffffffffffffff16156104f3576040517f08c379a000000000000000000000000000000000000000000000000000000000815260206004820152600a60248201527f506c6f74204f776e6564000000000000000000000000000000000000000000006044820152606401610218565b60085434101561055f576040517f08c379a000000000000000000000000000000000000000000000000000000000815260206004820152600960248201527f56616c7565204c6f7700000000000000000000000000000000000000000000006044820152606401610218565b60075482108015610571575060075481105b6105d7576040517f08c379a000000000000000000000000000000000000000000000000000000000815260206004820152600b60248201527f4f757473696465204d61700000000000000000000000000000000000000000006044820152606401610218565b6000828152600160209081526040808320848452909152902080547fffffffffffffffffffffffff00000000000000000000000000000000000000001633179055610622828261080a565b5050565b61062e610714565b73ffffffffffffffffffffffffffffffffffffffff81166106d1576040517f08c379a000000000000000000000000000000000000000000000000000000000815260206004820152602660248201527f4f776e61626c653a206e6577206f776e657220697320746865207a65726f206160448201527f64647265737300000000000000000000000000000000000000000000000000006064820152608401610218565b6106da81610795565b50565b600082815260016020908152604080832084845290915290205473ffffffffffffffffffffffffffffffffffffffff165b92915050565b60005473ffffffffffffffffffffffffffffffffffffffff1633146103b0576040517f08c379a000000000000000000000000000000000000000000000000000000000815260206004820181905260248201527f4f776e61626c653a2063616c6c6572206973206e6f7420746865206f776e65726044820152606401610218565b6000805473ffffffffffffffffffffffffffffffffffffffff8381167fffffffffffffffffffffffff0000000000000000000000000000000000000000831681178455604051919092169283917f8be0079c531659141344cd1fd0a4f28419497f9722a3daafe3b4186f6b6457e09190a35050565b60045460009061082f9073ffffffffffffffffffffffffffffffffffffffff16610927565b6005546040517f8ed57ab200000000000000000000000000000000000000000000000000000000815233600482015273ffffffffffffffffffffffffffffffffffffffff91821660248201526044810186905260648101859052919250821690638ed57ab290608401600060405180830381600087803b1580156108b257600080fd5b505af11580156108c6573d6000803e3d6000fd5b505050600093845250600160209081526040808520938552929052912080547fffffffffffffffffffffffff00000000000000000000000000000000000000001673ffffffffffffffffffffffffffffffffffffffff909216919091179055565b60006040517f3d602d80600a3d3981f3363d3d373d3d3d363d7300000000000000000000000081528260601b60148201527f5af43d82803e903d91602b57fd5bf3000000000000000000000000000000000060288201526037816000f091505073ffffffffffffffffffffffffffffffffffffffff8116610a04576040517f08c379a000000000000000000000000000000000000000000000000000000000815260206004820152601660248201527f455243313136373a20637265617465206661696c6564000000000000000000006044820152606401610218565b919050565b600060208284031215610a1b57600080fd5b5035919050565b60008060408385031215610a3557600080fd5b50508035926020909101359150565b60008060008060808587031215610a5a57600080fd5b5050823594602084013594506040840135936060013592509050565b73ffffffffffffffffffffffffffffffffffffffff811681146106da57600080fd5b600060208284031215610aaa57600080fd5b8135610ab581610a76565b9392505050565b600060208284031215610ace57600080fd5b8151610ab581610a76565b7f4e487b7100000000000000000000000000000000000000000000000000000000600052601160045260246000fd5b808202811582820484141761070e5761070e610ad9565b8181038181111561070e5761070e610ad9565b8082018082111561070e5761070e610ad956fea2646970667358221220635bb3178f4973b0035aac97738dd8815a0413cc19a9ba8cb235f7b472bb9b9564736f6c63430008110033",
  "immutableReferences": {},
  "source": "pragma solidity >=0.8.0;\r\n\r\nimport \"@openzeppelin/contracts/token/ERC20/IERC20.sol\";\r\nimport \"@openzeppelin/contracts/access/Ownable.sol\";\r\nimport \"@openzeppelin/contracts/proxy/Clones.sol\";\r\nimport \"../Player/Farm.sol\";\r\nimport \"../Management/GameManager.sol\";\r\nimport \"hardhat/console.sol\";\r\n\r\ncontract World is Ownable {\r\n\r\n    mapping(uint => mapping(uint => address)) map;\r\n    mapping(uint => mapping(uint => uint)) nftId;\r\n    mapping(address => bool) pvp;\r\n    address farmImplementation;\r\n    address gameManager;\r\n    address resourceManager;\r\n    uint maxXY;\r\n    \r\n    uint plotPrice;\r\n\r\n    constructor(uint _plotPrice, address _farmImplementation, address _gameManager, uint _maxXY) public {\r\n        plotPrice = _plotPrice;\r\n        farmImplementation = _farmImplementation;\r\n        gameManager = _gameManager;\r\n        maxXY = _maxXY;\r\n    }\r\n\r\n    //Very Basic World\r\n    function buyPlot(uint x, uint y) external payable {\r\n        require(map[x][y] == address(0), \"Plot Owned\");\r\n        require(msg.value >= plotPrice,  \"Value Low\");\r\n        require(x <maxXY && y < maxXY, \"Outside Map\");\r\n        map[x][y] = msg.sender;\r\n        deployFarm(x, y);\r\n    }\r\n\r\n    function deployFarm(uint x, uint y) internal {\r\n        address deployedAddress = Clones.clone(farmImplementation);\r\n        Farm(deployedAddress).initialise(msg.sender, gameManager, x, y);\r\n        map[x][y] = deployedAddress;\r\n    }\r\n\r\n    function getFarmAt(uint x, uint y) external view returns(address){\r\n        return map[x][y];\r\n    }\r\n\r\n    function expandMap(uint _newMaxXY) external onlyOwner {\r\n        require(_newMaxXY > maxXY, \"Invalid Size\");\r\n        maxXY = _newMaxXY;\r\n    } \r\n\r\n    function distance(uint x1, uint x2, uint y1, uint y2) external view returns(uint d){\r\n        uint _x1 = x1 > x2? x1 : x2;\r\n        uint _x2 = x1 > x2? x2 : x1;\r\n\r\n        uint xDistance = (_x1 * _x1) - (_x2 * _x2);\r\n\r\n        uint _y1 = y1 > y2 ? y1 : y2;\r\n        uint _y2 = y1 > y2 ? y2 : y1;\r\n\r\n        uint yDistance = (_y1 * _y1) - (_y2 * _y2);\r\n        \r\n        d = yDistance + xDistance;\r\n    }\r\n\r\n    function togglePVP(uint x, uint y) external {\r\n        address plot = map[x][y];\r\n        require(Farm(plot).owner() == msg.sender, \"only farm owner\");\r\n        pvp[plot] = true;\r\n    }\r\n\r\n    receive() external payable {}\r\n    fallback() external payable {}\r\n}\r\n",
  "sourcePath": "C:\\Users\\Khera\\Documents\\github\\DeFi-Something-I-Guess-Contracts\\contracts\\Game\\Map\\World.sol",
  "compiler": {
    "name": "solc",
    "version": "0.8.17+commit.8df45f5f.Emscripten.clang"
  },
  "schemaVersion": "3.4.10",
  "updatedAt": "2022-10-23T09:27:04.500Z",
  "devdoc": {
    "kind": "dev",
    "methods": {
      "owner()": {
        "details": "Returns the address of the current owner."
      },
      "renounceOwnership()": {
        "details": "Leaves the contract without owner. It will not be possible to call `onlyOwner` functions anymore. Can only be called by the current owner. NOTE: Renouncing ownership will leave the contract without an owner, thereby removing any functionality that is only available to the owner."
      },
      "transferOwnership(address)": {
        "details": "Transfers ownership of the contract to a new account (`newOwner`). Can only be called by the current owner."
      }
    },
    "version": 1
  },
  "userdoc": {
    "kind": "user",
    "methods": {},
    "version": 1
  }
}