{
  "contractName": "WrappedResource",
  "abi": [
    {
      "inputs": [],
      "stateMutability": "nonpayable",
      "type": "constructor"
    },
    {
      "anonymous": false,
      "inputs": [
        {
          "indexed": true,
          "internalType": "address",
          "name": "owner",
          "type": "address"
        },
        {
          "indexed": true,
          "internalType": "address",
          "name": "spender",
          "type": "address"
        },
        {
          "indexed": false,
          "internalType": "uint256",
          "name": "value",
          "type": "uint256"
        }
      ],
      "name": "Approval",
      "type": "event"
    },
    {
      "anonymous": false,
      "inputs": [
        {
          "indexed": true,
          "internalType": "address",
          "name": "from",
          "type": "address"
        },
        {
          "indexed": true,
          "internalType": "address",
          "name": "to",
          "type": "address"
        },
        {
          "indexed": false,
          "internalType": "uint256",
          "name": "value",
          "type": "uint256"
        }
      ],
      "name": "Transfer",
      "type": "event"
    },
    {
      "inputs": [
        {
          "internalType": "address",
          "name": "owner",
          "type": "address"
        },
        {
          "internalType": "address",
          "name": "spender",
          "type": "address"
        }
      ],
      "name": "allowance",
      "outputs": [
        {
          "internalType": "uint256",
          "name": "",
          "type": "uint256"
        }
      ],
      "stateMutability": "view",
      "type": "function"
    },
    {
      "inputs": [
        {
          "internalType": "address",
          "name": "spender",
          "type": "address"
        },
        {
          "internalType": "uint256",
          "name": "amount",
          "type": "uint256"
        }
      ],
      "name": "approve",
      "outputs": [
        {
          "internalType": "bool",
          "name": "",
          "type": "bool"
        }
      ],
      "stateMutability": "nonpayable",
      "type": "function"
    },
    {
      "inputs": [],
      "name": "asset",
      "outputs": [
        {
          "internalType": "address",
          "name": "",
          "type": "address"
        }
      ],
      "stateMutability": "view",
      "type": "function"
    },
    {
      "inputs": [
        {
          "internalType": "address",
          "name": "account",
          "type": "address"
        }
      ],
      "name": "balanceOf",
      "outputs": [
        {
          "internalType": "uint256",
          "name": "",
          "type": "uint256"
        }
      ],
      "stateMutability": "view",
      "type": "function"
    },
    {
      "inputs": [],
      "name": "decimals",
      "outputs": [
        {
          "internalType": "uint8",
          "name": "",
          "type": "uint8"
        }
      ],
      "stateMutability": "view",
      "type": "function"
    },
    {
      "inputs": [
        {
          "internalType": "address",
          "name": "spender",
          "type": "address"
        },
        {
          "internalType": "uint256",
          "name": "subtractedValue",
          "type": "uint256"
        }
      ],
      "name": "decreaseAllowance",
      "outputs": [
        {
          "internalType": "bool",
          "name": "",
          "type": "bool"
        }
      ],
      "stateMutability": "nonpayable",
      "type": "function"
    },
    {
      "inputs": [],
      "name": "depositToken",
      "outputs": [
        {
          "internalType": "address",
          "name": "",
          "type": "address"
        }
      ],
      "stateMutability": "view",
      "type": "function"
    },
    {
      "inputs": [],
      "name": "gameManager",
      "outputs": [
        {
          "internalType": "address",
          "name": "",
          "type": "address"
        }
      ],
      "stateMutability": "view",
      "type": "function"
    },
    {
      "inputs": [
        {
          "internalType": "address",
          "name": "spender",
          "type": "address"
        },
        {
          "internalType": "uint256",
          "name": "addedValue",
          "type": "uint256"
        }
      ],
      "name": "increaseAllowance",
      "outputs": [
        {
          "internalType": "bool",
          "name": "",
          "type": "bool"
        }
      ],
      "stateMutability": "nonpayable",
      "type": "function"
    },
    {
      "inputs": [],
      "name": "name",
      "outputs": [
        {
          "internalType": "string",
          "name": "",
          "type": "string"
        }
      ],
      "stateMutability": "view",
      "type": "function"
    },
    {
      "inputs": [],
      "name": "owner",
      "outputs": [
        {
          "internalType": "address",
          "name": "",
          "type": "address"
        }
      ],
      "stateMutability": "view",
      "type": "function"
    },
    {
      "inputs": [],
      "name": "symbol",
      "outputs": [
        {
          "internalType": "string",
          "name": "",
          "type": "string"
        }
      ],
      "stateMutability": "view",
      "type": "function"
    },
    {
      "inputs": [],
      "name": "totalSupplied",
      "outputs": [
        {
          "internalType": "uint256",
          "name": "",
          "type": "uint256"
        }
      ],
      "stateMutability": "view",
      "type": "function"
    },
    {
      "inputs": [],
      "name": "totalSupply",
      "outputs": [
        {
          "internalType": "uint256",
          "name": "",
          "type": "uint256"
        }
      ],
      "stateMutability": "view",
      "type": "function"
    },
    {
      "inputs": [
        {
          "internalType": "address",
          "name": "to",
          "type": "address"
        },
        {
          "internalType": "uint256",
          "name": "amount",
          "type": "uint256"
        }
      ],
      "name": "transfer",
      "outputs": [
        {
          "internalType": "bool",
          "name": "",
          "type": "bool"
        }
      ],
      "stateMutability": "nonpayable",
      "type": "function"
    },
    {
      "inputs": [
        {
          "internalType": "address",
          "name": "from",
          "type": "address"
        },
        {
          "internalType": "address",
          "name": "to",
          "type": "address"
        },
        {
          "internalType": "uint256",
          "name": "amount",
          "type": "uint256"
        }
      ],
      "name": "transferFrom",
      "outputs": [
        {
          "internalType": "bool",
          "name": "",
          "type": "bool"
        }
      ],
      "stateMutability": "nonpayable",
      "type": "function"
    },
    {
      "inputs": [],
      "name": "transmuter",
      "outputs": [
        {
          "internalType": "address",
          "name": "",
          "type": "address"
        }
      ],
      "stateMutability": "view",
      "type": "function"
    },
    {
      "inputs": [],
      "name": "underlying",
      "outputs": [
        {
          "internalType": "address",
          "name": "",
          "type": "address"
        }
      ],
      "stateMutability": "view",
      "type": "function"
    },
    {
      "inputs": [
        {
          "internalType": "string",
          "name": "__name",
          "type": "string"
        },
        {
          "internalType": "string",
          "name": "__symbol",
          "type": "string"
        },
        {
          "internalType": "address",
          "name": "_underlying",
          "type": "address"
        },
        {
          "internalType": "address",
          "name": "_gameManager",
          "type": "address"
        }
      ],
      "name": "initialiser",
      "outputs": [],
      "stateMutability": "nonpayable",
      "type": "function"
    },
    {
      "inputs": [
        {
          "internalType": "address",
          "name": "_transmuter",
          "type": "address"
        }
      ],
      "name": "setTransmuter",
      "outputs": [],
      "stateMutability": "nonpayable",
      "type": "function"
    },
    {
      "inputs": [],
      "name": "getInterest",
      "outputs": [
        {
          "internalType": "uint256",
          "name": "",
          "type": "uint256"
        }
      ],
      "stateMutability": "view",
      "type": "function"
    },
    {
      "inputs": [
        {
          "internalType": "uint256",
          "name": "amount",
          "type": "uint256"
        }
      ],
      "name": "deposit",
      "outputs": [],
      "stateMutability": "nonpayable",
      "type": "function"
    },
    {
      "inputs": [
        {
          "internalType": "uint256",
          "name": "amount",
          "type": "uint256"
        }
      ],
      "name": "withdraw",
      "outputs": [],
      "stateMutability": "nonpayable",
      "type": "function"
    },
    {
      "inputs": [],
      "name": "mintInterest",
      "outputs": [],
      "stateMutability": "nonpayable",
      "type": "function"
    }
  ],
  "bytecode": "0x60806040523480156200001157600080fd5b506040805160208082018352600080835283519182019093529182529060036200003c83826200010c565b5060046200004b82826200010c565b5050600b805460ff60a01b1916600160a01b17905550620001d8565b634e487b7160e01b600052604160045260246000fd5b600181811c908216806200009257607f821691505b602082108103620000b357634e487b7160e01b600052602260045260246000fd5b50919050565b601f8211156200010757600081815260208120601f850160051c81016020861015620000e25750805b601f850160051c820191505b818110156200010357828155600101620000ee565b5050505b505050565b81516001600160401b0381111562000128576200012862000067565b62000140816200013984546200007d565b84620000b9565b602080601f8311600181146200017857600084156200015f5750858301515b600019600386901b1c1916600185901b17855562000103565b600085815260208120601f198616915b82811015620001a95788860151825594840194600190910190840162000188565b5085821015620001c85787850151600019600388901b60f8161c191681555b5050505050600190811b01905550565b611d2f80620001e86000396000f3fe608060405234801561001057600080fd5b50600436106101985760003560e01c80638da5cb5b116100e3578063b6b55f251161008c578063d87c3b8211610066578063d87c3b82146103ba578063dd62ed3e146103cd578063e5a4bed31461041357600080fd5b8063b6b55f2514610367578063c6b052661461037a578063c89039c51461039a57600080fd5b8063a9059cbb116100bd578063a9059cbb14610339578063adb4a9ad1461034c578063b4aa2f281461035f57600080fd5b80638da5cb5b146102fe57806395d89b411461031e578063a457c2d71461032657600080fd5b806338d52e0f116101455780636f307dc31161011f5780636f307dc31461028857806370a08231146102a85780637239d2b9146102de57600080fd5b806338d52e0f14610227578063395093511461026c578063630fd0ac1461027f57600080fd5b806323b872dd1161017657806323b872dd146101f05780632e1a7d4d14610203578063313ce5671461021857600080fd5b806306fdde031461019d578063095ea7b3146101bb57806318160ddd146101de575b600080fd5b6101a561041b565b6040516101b291906117bd565b60405180910390f35b6101ce6101c936600461184b565b6104ad565b60405190151581526020016101b2565b6002545b6040519081526020016101b2565b6101ce6101fe366004611877565b6104c7565b6102166102113660046118b8565b6104eb565b005b604051601281526020016101b2565b6005546102479073ffffffffffffffffffffffffffffffffffffffff1681565b60405173ffffffffffffffffffffffffffffffffffffffff90911681526020016101b2565b6101ce61027a36600461184b565b610755565b6101e2600a5481565b6006546102479073ffffffffffffffffffffffffffffffffffffffff1681565b6101e26102b63660046118d1565b73ffffffffffffffffffffffffffffffffffffffff1660009081526020819052604090205490565b6009546102479073ffffffffffffffffffffffffffffffffffffffff1681565b600b546102479073ffffffffffffffffffffffffffffffffffffffff1681565b6101a56107a1565b6101ce61033436600461184b565b6107b0565b6101ce61034736600461184b565b610881565b61021661035a3660046118d1565b61088f565b610216610956565b6102166103753660046118b8565b61098e565b6008546102479073ffffffffffffffffffffffffffffffffffffffff1681565b6007546102479073ffffffffffffffffffffffffffffffffffffffff1681565b6102166103c83660046119cf565b610b80565b6101e26103db366004611a58565b73ffffffffffffffffffffffffffffffffffffffff918216600090815260016020908152604080832093909416825291909152205490565b6101e2610e3e565b60606003805461042a90611a91565b80601f016020809104026020016040519081016040528092919081815260200182805461045690611a91565b80156104a35780601f10610478576101008083540402835291602001916104a3565b820191906000526020600020905b81548152906001019060200180831161048657829003601f168201915b5050505050905090565b6000336104bb818585610f75565b60019150505b92915050565b6000336104d5858285611129565b6104e0858585611200565b506001949350505050565b6104f3610956565b33600090815260208190526040902054811115610571576040517f08c379a000000000000000000000000000000000000000000000000000000000815260206004820152600c60248201527f496e73756666696369656e74000000000000000000000000000000000000000060448201526064015b60405180910390fd5b61057b33826114b3565b6007546006546040517f095ea7b300000000000000000000000000000000000000000000000000000000815273ffffffffffffffffffffffffffffffffffffffff91821660048201526024810184905291169063095ea7b3906044016020604051808303816000875af11580156105f6573d6000803e3d6000fd5b505050506040513d601f19601f8201168201806040525081019061061a9190611ae4565b506006546040517f2e1a7d4d0000000000000000000000000000000000000000000000000000000081526004810183905273ffffffffffffffffffffffffffffffffffffffff90911690632e1a7d4d90602401600060405180830381600087803b15801561068757600080fd5b505af115801561069b573d6000803e3d6000fd5b5050505080600a60008282546106b19190611b35565b90915550506005546040517fa9059cbb0000000000000000000000000000000000000000000000000000000081523360048201526024810183905273ffffffffffffffffffffffffffffffffffffffff9091169063a9059cbb906044016020604051808303816000875af115801561072d573d6000803e3d6000fd5b505050506040513d601f19601f820116820180604052508101906107519190611ae4565b5050565b33600081815260016020908152604080832073ffffffffffffffffffffffffffffffffffffffff871684529091528120549091906104bb908290869061079c908790611b48565b610f75565b60606004805461042a90611a91565b33600081815260016020908152604080832073ffffffffffffffffffffffffffffffffffffffff8716845290915281205490919083811015610874576040517f08c379a000000000000000000000000000000000000000000000000000000000815260206004820152602560248201527f45524332303a2064656372656173656420616c6c6f77616e63652062656c6f7760448201527f207a65726f0000000000000000000000000000000000000000000000000000006064820152608401610568565b6104e08286868403610f75565b6000336104bb818585611200565b60095473ffffffffffffffffffffffffffffffffffffffff161561090f576040517f08c379a000000000000000000000000000000000000000000000000000000000815260206004820152600b60248201527f416c7265616479207365740000000000000000000000000000000000000000006044820152606401610568565b600980547fffffffffffffffffffffffff00000000000000000000000000000000000000001673ffffffffffffffffffffffffffffffffffffffff92909216919091179055565b6000610960610e3e565b9050801561098b5760095461098b9073ffffffffffffffffffffffffffffffffffffffff168261169d565b50565b610996610956565b6005546040517f23b872dd0000000000000000000000000000000000000000000000000000000081523360048201523060248201526044810183905273ffffffffffffffffffffffffffffffffffffffff909116906323b872dd906064016020604051808303816000875af1158015610a13573d6000803e3d6000fd5b505050506040513d601f19601f82011682018060405250810190610a379190611ae4565b506005546006546040517f095ea7b300000000000000000000000000000000000000000000000000000000815273ffffffffffffffffffffffffffffffffffffffff91821660048201526024810184905291169063095ea7b3906044016020604051808303816000875af1158015610ab3573d6000803e3d6000fd5b505050506040513d601f19601f82011682018060405250810190610ad79190611ae4565b506006546040517fb6b55f250000000000000000000000000000000000000000000000000000000081526004810183905273ffffffffffffffffffffffffffffffffffffffff9091169063b6b55f2590602401600060405180830381600087803b158015610b4457600080fd5b505af1158015610b58573d6000803e3d6000fd5b50505050610b66338261169d565b80600a6000828254610b789190611b48565b909155505050565b600b5474010000000000000000000000000000000000000000900460ff1615610c05576040517f08c379a000000000000000000000000000000000000000000000000000000000815260206004820152600b60248201527f696e746961696c697365640000000000000000000000000000000000000000006044820152606401610568565b600b80547fffffffffffffffffffffff00ffffffffffffffffffffffffffffffffffffffff1674010000000000000000000000000000000000000000179055600d610c508482611ba9565b50600c610c5d8582611ba9565b50600680547fffffffffffffffffffffffff00000000000000000000000000000000000000001673ffffffffffffffffffffffffffffffffffffffff8416908117909155604080517f38d52e0f00000000000000000000000000000000000000000000000000000000815290516338d52e0f916004808201926020929091908290030181865afa158015610cf5573d6000803e3d6000fd5b505050506040513d601f19601f82011682018060405250810190610d199190611cc3565b600580547fffffffffffffffffffffffff00000000000000000000000000000000000000001673ffffffffffffffffffffffffffffffffffffffff928316179055600654604080517fc89039c50000000000000000000000000000000000000000000000000000000081529051919092169163c89039c59160048083019260209291908290030181865afa158015610db5573d6000803e3d6000fd5b505050506040513d601f19601f82011682018060405250810190610dd99190611cc3565b6007805473ffffffffffffffffffffffffffffffffffffffff9283167fffffffffffffffffffffffff0000000000000000000000000000000000000000918216179091556008805493909216928116929092179055600b805490911633179055505050565b600a54600654604080517fc89039c500000000000000000000000000000000000000000000000000000000815290516000939273ffffffffffffffffffffffffffffffffffffffff169163c89039c59160048083019260209291908290030181865afa158015610eb2573d6000803e3d6000fd5b505050506040513d601f19601f82011682018060405250810190610ed69190611cc3565b6040517f70a0823100000000000000000000000000000000000000000000000000000000815230600482015273ffffffffffffffffffffffffffffffffffffffff91909116906370a0823190602401602060405180830381865afa158015610f42573d6000803e3d6000fd5b505050506040513d601f19601f82011682018060405250810190610f669190611ce0565b610f709190611b35565b905090565b73ffffffffffffffffffffffffffffffffffffffff8316611017576040517f08c379a0000000000000000000000000000000000000000000000000000000008152602060048201526024808201527f45524332303a20617070726f76652066726f6d20746865207a65726f2061646460448201527f72657373000000000000000000000000000000000000000000000000000000006064820152608401610568565b73ffffffffffffffffffffffffffffffffffffffff82166110ba576040517f08c379a000000000000000000000000000000000000000000000000000000000815260206004820152602260248201527f45524332303a20617070726f766520746f20746865207a65726f20616464726560448201527f73730000000000000000000000000000000000000000000000000000000000006064820152608401610568565b73ffffffffffffffffffffffffffffffffffffffff83811660008181526001602090815260408083209487168084529482529182902085905590518481527f8c5be1e5ebec7d5bd14f71427d1e84f3dd0314c0f7b2291e5b200ac8c7c3b92591015b60405180910390a3505050565b73ffffffffffffffffffffffffffffffffffffffff8381166000908152600160209081526040808320938616835292905220547fffffffffffffffffffffffffffffffffffffffffffffffffffffffffffffffff81146111fa57818110156111ed576040517f08c379a000000000000000000000000000000000000000000000000000000000815260206004820152601d60248201527f45524332303a20696e73756666696369656e7420616c6c6f77616e63650000006044820152606401610568565b6111fa8484848403610f75565b50505050565b73ffffffffffffffffffffffffffffffffffffffff83166112a3576040517f08c379a000000000000000000000000000000000000000000000000000000000815260206004820152602560248201527f45524332303a207472616e736665722066726f6d20746865207a65726f20616460448201527f64726573730000000000000000000000000000000000000000000000000000006064820152608401610568565b73ffffffffffffffffffffffffffffffffffffffff8216611346576040517f08c379a000000000000000000000000000000000000000000000000000000000815260206004820152602360248201527f45524332303a207472616e7366657220746f20746865207a65726f206164647260448201527f65737300000000000000000000000000000000000000000000000000000000006064820152608401610568565b73ffffffffffffffffffffffffffffffffffffffff8316600090815260208190526040902054818110156113fc576040517f08c379a000000000000000000000000000000000000000000000000000000000815260206004820152602660248201527f45524332303a207472616e7366657220616d6f756e742065786365656473206260448201527f616c616e636500000000000000000000000000000000000000000000000000006064820152608401610568565b73ffffffffffffffffffffffffffffffffffffffff808516600090815260208190526040808220858503905591851681529081208054849290611440908490611b48565b925050819055508273ffffffffffffffffffffffffffffffffffffffff168473ffffffffffffffffffffffffffffffffffffffff167fddf252ad1be2c89b69c2b068fc378daa952ba7f163c4a11628f55a4df523b3ef846040516114a691815260200190565b60405180910390a36111fa565b73ffffffffffffffffffffffffffffffffffffffff8216611556576040517f08c379a000000000000000000000000000000000000000000000000000000000815260206004820152602160248201527f45524332303a206275726e2066726f6d20746865207a65726f2061646472657360448201527f73000000000000000000000000000000000000000000000000000000000000006064820152608401610568565b73ffffffffffffffffffffffffffffffffffffffff82166000908152602081905260409020548181101561160c576040517f08c379a000000000000000000000000000000000000000000000000000000000815260206004820152602260248201527f45524332303a206275726e20616d6f756e7420657863656564732062616c616e60448201527f63650000000000000000000000000000000000000000000000000000000000006064820152608401610568565b73ffffffffffffffffffffffffffffffffffffffff83166000908152602081905260408120838303905560028054849290611648908490611b35565b909155505060405182815260009073ffffffffffffffffffffffffffffffffffffffff8516907fddf252ad1be2c89b69c2b068fc378daa952ba7f163c4a11628f55a4df523b3ef9060200161111c565b505050565b73ffffffffffffffffffffffffffffffffffffffff821661171a576040517f08c379a000000000000000000000000000000000000000000000000000000000815260206004820152601f60248201527f45524332303a206d696e7420746f20746865207a65726f2061646472657373006044820152606401610568565b806002600082825461172c9190611b48565b909155505073ffffffffffffffffffffffffffffffffffffffff821660009081526020819052604081208054839290611766908490611b48565b909155505060405181815273ffffffffffffffffffffffffffffffffffffffff8316906000907fddf252ad1be2c89b69c2b068fc378daa952ba7f163c4a11628f55a4df523b3ef9060200160405180910390a35050565b600060208083528351808285015260005b818110156117ea578581018301518582016040015282016117ce565b5060006040828601015260407fffffffffffffffffffffffffffffffffffffffffffffffffffffffffffffffe0601f8301168501019250505092915050565b73ffffffffffffffffffffffffffffffffffffffff8116811461098b57600080fd5b6000806040838503121561185e57600080fd5b823561186981611829565b946020939093013593505050565b60008060006060848603121561188c57600080fd5b833561189781611829565b925060208401356118a781611829565b929592945050506040919091013590565b6000602082840312156118ca57600080fd5b5035919050565b6000602082840312156118e357600080fd5b81356118ee81611829565b9392505050565b7f4e487b7100000000000000000000000000000000000000000000000000000000600052604160045260246000fd5b600082601f83011261193557600080fd5b813567ffffffffffffffff80821115611950576119506118f5565b604051601f83017fffffffffffffffffffffffffffffffffffffffffffffffffffffffffffffffe0908116603f01168101908282118183101715611996576119966118f5565b816040528381528660208588010111156119af57600080fd5b836020870160208301376000602085830101528094505050505092915050565b600080600080608085870312156119e557600080fd5b843567ffffffffffffffff808211156119fd57600080fd5b611a0988838901611924565b95506020870135915080821115611a1f57600080fd5b50611a2c87828801611924565b9350506040850135611a3d81611829565b91506060850135611a4d81611829565b939692955090935050565b60008060408385031215611a6b57600080fd5b8235611a7681611829565b91506020830135611a8681611829565b809150509250929050565b600181811c90821680611aa557607f821691505b602082108103611ade577f4e487b7100000000000000000000000000000000000000000000000000000000600052602260045260246000fd5b50919050565b600060208284031215611af657600080fd5b815180151581146118ee57600080fd5b7f4e487b7100000000000000000000000000000000000000000000000000000000600052601160045260246000fd5b818103818111156104c1576104c1611b06565b808201808211156104c1576104c1611b06565b601f82111561169857600081815260208120601f850160051c81016020861015611b825750805b601f850160051c820191505b81811015611ba157828155600101611b8e565b505050505050565b815167ffffffffffffffff811115611bc357611bc36118f5565b611bd781611bd18454611a91565b84611b5b565b602080601f831160018114611c2a5760008415611bf45750858301515b7fffffffffffffffffffffffffffffffffffffffffffffffffffffffffffffffff600386901b1c1916600185901b178555611ba1565b6000858152602081207fffffffffffffffffffffffffffffffffffffffffffffffffffffffffffffffe08616915b82811015611c7757888601518255948401946001909101908401611c58565b5085821015611cb357878501517fffffffffffffffffffffffffffffffffffffffffffffffffffffffffffffffff600388901b60f8161c191681555b5050505050600190811b01905550565b600060208284031215611cd557600080fd5b81516118ee81611829565b600060208284031215611cf257600080fd5b505191905056fea2646970667358221220e326c44493f49fa02a3db1e968f72fc16f617183a25ce7479ae3eb7de227256864736f6c63430008110033",
  "immutableReferences": {},
  "source": "pragma solidity >=0.8.0;\r\n\r\nimport \"@openzeppelin/contracts/token/ERC20/ERC20.sol\";\r\nimport \"@openzeppelin/contracts/token/ERC20/IERC20.sol\";\r\nimport \"./Underlying.sol\";\r\nimport \"../Management/GameManager.sol\";\r\nimport \"hardhat/console.sol\";\r\n\r\ncontract WrappedResource is ERC20 {\r\n\r\n    address public asset;\r\n    address public underlying;\r\n    address public depositToken;\r\n    address public gameManager;\r\n    address public transmuter;\r\n    uint public totalSupplied;    \r\n    address public owner;\r\n    bool initialised;\r\n    string _name;\r\n    string _symbol;\r\n\r\n    modifier onlyOwner{\r\n        require(msg.sender == owner, \"OnlyOwner\");\r\n        _;\r\n    }\r\n\r\n    constructor() ERC20(\"\", \"\"){\r\n        //set the implementation as initialised\r\n        initialised = true;\r\n    }\r\n\r\n     function initialiser(string memory __name, string memory __symbol, address _underlying, address _gameManager) public {\r\n        require(initialised == false, \"intiailised\");\r\n        initialised = true;\r\n        _symbol = __symbol;\r\n        _name = __name;\r\n        underlying = _underlying;\r\n        asset = Underlying(underlying).asset();\r\n        depositToken = Underlying(underlying).depositToken();\r\n        gameManager = _gameManager;\r\n        owner = msg.sender;\r\n    }\r\n    \r\n    function setTransmuter(address _transmuter) external {\r\n        require(transmuter == address(0), \"Already set\");\r\n        transmuter = _transmuter;\r\n    }\r\n\r\n    // Total Interest Gained by This Wrapper\r\n    function getInterest() public view returns(uint){\r\n        return IERC20(Underlying(underlying).depositToken()).balanceOf(address(this)) - totalSupplied;\r\n    }\r\n\r\n    // Todo: Reentrancy Guard\r\n    function deposit(uint amount) external {\r\n        mintInterest();\r\n\r\n        IERC20(asset).transferFrom(msg.sender, address(this), amount);\r\n        IERC20(asset).approve(underlying, amount);\r\n        Underlying(underlying).deposit(amount);\r\n        _mint(msg.sender, amount);\r\n        totalSupplied += amount;\r\n    }\r\n\r\n    // Todo: Reentrancy Guard\r\n    function withdraw(uint amount) external {\r\n        mintInterest();\r\n\r\n        require(balanceOf(msg.sender) >= amount, \"Insufficient\");\r\n        _burn(msg.sender, amount);\r\n        IERC20(depositToken).approve(address(underlying), amount);\r\n        Underlying(underlying).withdraw(amount);\r\n        totalSupplied -= amount;\r\n        IERC20(asset).transfer(msg.sender, amount);\r\n    }\r\n\r\n    // Mint Interest\r\n    function mintInterest() public {\r\n        uint interest = getInterest();\r\n        if(interest > 0){\r\n            _mint(transmuter, interest);\r\n        }\r\n    }\r\n}\r\n",
  "sourcePath": "C:\\Users\\Khera\\Documents\\github\\DeFi-Something-I-Guess-Contracts\\contracts\\Game\\Resources\\WrappedResource.sol",
  "compiler": {
    "name": "solc",
    "version": "0.8.17+commit.8df45f5f.Emscripten.clang"
  },
  "schemaVersion": "3.4.10",
  "updatedAt": "2022-10-23T09:27:04.542Z",
  "devdoc": {
    "kind": "dev",
    "methods": {
      "allowance(address,address)": {
        "details": "See {IERC20-allowance}."
      },
      "approve(address,uint256)": {
        "details": "See {IERC20-approve}. NOTE: If `amount` is the maximum `uint256`, the allowance is not updated on `transferFrom`. This is semantically equivalent to an infinite approval. Requirements: - `spender` cannot be the zero address."
      },
      "balanceOf(address)": {
        "details": "See {IERC20-balanceOf}."
      },
      "decimals()": {
        "details": "Returns the number of decimals used to get its user representation. For example, if `decimals` equals `2`, a balance of `505` tokens should be displayed to a user as `5.05` (`505 / 10 ** 2`). Tokens usually opt for a value of 18, imitating the relationship between Ether and Wei. This is the value {ERC20} uses, unless this function is overridden; NOTE: This information is only used for _display_ purposes: it in no way affects any of the arithmetic of the contract, including {IERC20-balanceOf} and {IERC20-transfer}."
      },
      "decreaseAllowance(address,uint256)": {
        "details": "Atomically decreases the allowance granted to `spender` by the caller. This is an alternative to {approve} that can be used as a mitigation for problems described in {IERC20-approve}. Emits an {Approval} event indicating the updated allowance. Requirements: - `spender` cannot be the zero address. - `spender` must have allowance for the caller of at least `subtractedValue`."
      },
      "increaseAllowance(address,uint256)": {
        "details": "Atomically increases the allowance granted to `spender` by the caller. This is an alternative to {approve} that can be used as a mitigation for problems described in {IERC20-approve}. Emits an {Approval} event indicating the updated allowance. Requirements: - `spender` cannot be the zero address."
      },
      "name()": {
        "details": "Returns the name of the token."
      },
      "symbol()": {
        "details": "Returns the symbol of the token, usually a shorter version of the name."
      },
      "totalSupply()": {
        "details": "See {IERC20-totalSupply}."
      },
      "transfer(address,uint256)": {
        "details": "See {IERC20-transfer}. Requirements: - `to` cannot be the zero address. - the caller must have a balance of at least `amount`."
      },
      "transferFrom(address,address,uint256)": {
        "details": "See {IERC20-transferFrom}. Emits an {Approval} event indicating the updated allowance. This is not required by the EIP. See the note at the beginning of {ERC20}. NOTE: Does not update the allowance if the current allowance is the maximum `uint256`. Requirements: - `from` and `to` cannot be the zero address. - `from` must have a balance of at least `amount`. - the caller must have allowance for ``from``'s tokens of at least `amount`."
      }
    },
    "version": 1
  },
  "userdoc": {
    "kind": "user",
    "methods": {},
    "version": 1
  }
}