{
  "_format": "hh-sol-artifact-1",
  "contractName": "WrappedResource",
  "sourceName": "contracts/Game/Resources/WrappedResource.sol",
  "abi": [
    {
      "inputs": [],
      "stateMutability": "nonpayable",
      "type": "constructor"
    },
    {
      "anonymous": false,
      "inputs": [
        {
          "indexed": true,
          "internalType": "address",
          "name": "owner",
          "type": "address"
        },
        {
          "indexed": true,
          "internalType": "address",
          "name": "spender",
          "type": "address"
        },
        {
          "indexed": false,
          "internalType": "uint256",
          "name": "value",
          "type": "uint256"
        }
      ],
      "name": "Approval",
      "type": "event"
    },
    {
      "anonymous": false,
      "inputs": [
        {
          "indexed": true,
          "internalType": "address",
          "name": "from",
          "type": "address"
        },
        {
          "indexed": true,
          "internalType": "address",
          "name": "to",
          "type": "address"
        },
        {
          "indexed": false,
          "internalType": "uint256",
          "name": "value",
          "type": "uint256"
        }
      ],
      "name": "Transfer",
      "type": "event"
    },
    {
      "inputs": [
        {
          "internalType": "address",
          "name": "owner",
          "type": "address"
        },
        {
          "internalType": "address",
          "name": "spender",
          "type": "address"
        }
      ],
      "name": "allowance",
      "outputs": [
        {
          "internalType": "uint256",
          "name": "",
          "type": "uint256"
        }
      ],
      "stateMutability": "view",
      "type": "function"
    },
    {
      "inputs": [
        {
          "internalType": "address",
          "name": "spender",
          "type": "address"
        },
        {
          "internalType": "uint256",
          "name": "amount",
          "type": "uint256"
        }
      ],
      "name": "approve",
      "outputs": [
        {
          "internalType": "bool",
          "name": "",
          "type": "bool"
        }
      ],
      "stateMutability": "nonpayable",
      "type": "function"
    },
    {
      "inputs": [],
      "name": "asset",
      "outputs": [
        {
          "internalType": "address",
          "name": "",
          "type": "address"
        }
      ],
      "stateMutability": "view",
      "type": "function"
    },
    {
      "inputs": [
        {
          "internalType": "address",
          "name": "account",
          "type": "address"
        }
      ],
      "name": "balanceOf",
      "outputs": [
        {
          "internalType": "uint256",
          "name": "",
          "type": "uint256"
        }
      ],
      "stateMutability": "view",
      "type": "function"
    },
    {
      "inputs": [],
      "name": "decimals",
      "outputs": [
        {
          "internalType": "uint8",
          "name": "",
          "type": "uint8"
        }
      ],
      "stateMutability": "view",
      "type": "function"
    },
    {
      "inputs": [
        {
          "internalType": "address",
          "name": "spender",
          "type": "address"
        },
        {
          "internalType": "uint256",
          "name": "subtractedValue",
          "type": "uint256"
        }
      ],
      "name": "decreaseAllowance",
      "outputs": [
        {
          "internalType": "bool",
          "name": "",
          "type": "bool"
        }
      ],
      "stateMutability": "nonpayable",
      "type": "function"
    },
    {
      "inputs": [
        {
          "internalType": "uint256",
          "name": "amount",
          "type": "uint256"
        }
      ],
      "name": "deposit",
      "outputs": [],
      "stateMutability": "nonpayable",
      "type": "function"
    },
    {
      "inputs": [],
      "name": "depositToken",
      "outputs": [
        {
          "internalType": "address",
          "name": "",
          "type": "address"
        }
      ],
      "stateMutability": "view",
      "type": "function"
    },
    {
      "inputs": [],
      "name": "gameManager",
      "outputs": [
        {
          "internalType": "address",
          "name": "",
          "type": "address"
        }
      ],
      "stateMutability": "view",
      "type": "function"
    },
    {
      "inputs": [],
      "name": "getInterest",
      "outputs": [
        {
          "internalType": "uint256",
          "name": "",
          "type": "uint256"
        }
      ],
      "stateMutability": "view",
      "type": "function"
    },
    {
      "inputs": [
        {
          "internalType": "address",
          "name": "spender",
          "type": "address"
        },
        {
          "internalType": "uint256",
          "name": "addedValue",
          "type": "uint256"
        }
      ],
      "name": "increaseAllowance",
      "outputs": [
        {
          "internalType": "bool",
          "name": "",
          "type": "bool"
        }
      ],
      "stateMutability": "nonpayable",
      "type": "function"
    },
    {
      "inputs": [
        {
          "internalType": "string",
          "name": "__name",
          "type": "string"
        },
        {
          "internalType": "string",
          "name": "__symbol",
          "type": "string"
        },
        {
          "internalType": "address",
          "name": "_underlying",
          "type": "address"
        },
        {
          "internalType": "address",
          "name": "_gameManager",
          "type": "address"
        }
      ],
      "name": "initialiser",
      "outputs": [],
      "stateMutability": "nonpayable",
      "type": "function"
    },
    {
      "inputs": [],
      "name": "mintInterest",
      "outputs": [],
      "stateMutability": "nonpayable",
      "type": "function"
    },
    {
      "inputs": [],
      "name": "name",
      "outputs": [
        {
          "internalType": "string",
          "name": "",
          "type": "string"
        }
      ],
      "stateMutability": "view",
      "type": "function"
    },
    {
      "inputs": [],
      "name": "owner",
      "outputs": [
        {
          "internalType": "address",
          "name": "",
          "type": "address"
        }
      ],
      "stateMutability": "view",
      "type": "function"
    },
    {
      "inputs": [
        {
          "internalType": "address",
          "name": "_transmuter",
          "type": "address"
        }
      ],
      "name": "setTransmuter",
      "outputs": [],
      "stateMutability": "nonpayable",
      "type": "function"
    },
    {
      "inputs": [],
      "name": "symbol",
      "outputs": [
        {
          "internalType": "string",
          "name": "",
          "type": "string"
        }
      ],
      "stateMutability": "view",
      "type": "function"
    },
    {
      "inputs": [],
      "name": "totalSupplied",
      "outputs": [
        {
          "internalType": "uint256",
          "name": "",
          "type": "uint256"
        }
      ],
      "stateMutability": "view",
      "type": "function"
    },
    {
      "inputs": [],
      "name": "totalSupply",
      "outputs": [
        {
          "internalType": "uint256",
          "name": "",
          "type": "uint256"
        }
      ],
      "stateMutability": "view",
      "type": "function"
    },
    {
      "inputs": [
        {
          "internalType": "address",
          "name": "to",
          "type": "address"
        },
        {
          "internalType": "uint256",
          "name": "amount",
          "type": "uint256"
        }
      ],
      "name": "transfer",
      "outputs": [
        {
          "internalType": "bool",
          "name": "",
          "type": "bool"
        }
      ],
      "stateMutability": "nonpayable",
      "type": "function"
    },
    {
      "inputs": [
        {
          "internalType": "address",
          "name": "from",
          "type": "address"
        },
        {
          "internalType": "address",
          "name": "to",
          "type": "address"
        },
        {
          "internalType": "uint256",
          "name": "amount",
          "type": "uint256"
        }
      ],
      "name": "transferFrom",
      "outputs": [
        {
          "internalType": "bool",
          "name": "",
          "type": "bool"
        }
      ],
      "stateMutability": "nonpayable",
      "type": "function"
    },
    {
      "inputs": [],
      "name": "transmuter",
      "outputs": [
        {
          "internalType": "address",
          "name": "",
          "type": "address"
        }
      ],
      "stateMutability": "view",
      "type": "function"
    },
    {
      "inputs": [],
      "name": "underlying",
      "outputs": [
        {
          "internalType": "address",
          "name": "",
          "type": "address"
        }
      ],
      "stateMutability": "view",
      "type": "function"
    },
    {
      "inputs": [
        {
          "internalType": "uint256",
          "name": "amount",
          "type": "uint256"
        }
      ],
      "name": "withdraw",
      "outputs": [],
      "stateMutability": "nonpayable",
      "type": "function"
    }
  ],
  "bytecode": "0x60806040523480156200001157600080fd5b5060408051602080820180845260008084528451928301909452928152815191929091620000429160039162000074565b5080516200005890600490602084019062000074565b5050600b805460ff60a01b1916600160a01b1790555062000157565b82805462000082906200011a565b90600052602060002090601f016020900481019282620000a65760008555620000f1565b82601f10620000c157805160ff1916838001178555620000f1565b82800160010185558215620000f1579182015b82811115620000f1578251825591602001919060010190620000d4565b50620000ff92915062000103565b5090565b5b80821115620000ff576000815560010162000104565b600181811c908216806200012f57607f821691505b602082108114156200015157634e487b7160e01b600052602260045260246000fd5b50919050565b611cdc80620001676000396000f3fe608060405234801561001057600080fd5b50600436106101985760003560e01c80638da5cb5b116100e3578063b6b55f251161008c578063d87c3b8211610066578063d87c3b82146103ba578063dd62ed3e146103cd578063e5a4bed31461041357600080fd5b8063b6b55f2514610367578063c6b052661461037a578063c89039c51461039a57600080fd5b8063a9059cbb116100bd578063a9059cbb14610339578063adb4a9ad1461034c578063b4aa2f281461035f57600080fd5b80638da5cb5b146102fe57806395d89b411461031e578063a457c2d71461032657600080fd5b806338d52e0f116101455780636f307dc31161011f5780636f307dc31461028857806370a08231146102a85780637239d2b9146102de57600080fd5b806338d52e0f14610227578063395093511461026c578063630fd0ac1461027f57600080fd5b806323b872dd1161017657806323b872dd146101f05780632e1a7d4d14610203578063313ce5671461021857600080fd5b806306fdde031461019d578063095ea7b3146101bb57806318160ddd146101de575b600080fd5b6101a561041b565b6040516101b29190611b32565b60405180910390f35b6101ce6101c9366004611a31565b6104ad565b60405190151581526020016101b2565b6002545b6040519081526020016101b2565b6101ce6101fe3660046119f1565b6104c5565b610216610211366004611b02565b6104e9565b005b604051601281526020016101b2565b6005546102479073ffffffffffffffffffffffffffffffffffffffff1681565b60405173ffffffffffffffffffffffffffffffffffffffff90911681526020016101b2565b6101ce61027a366004611a31565b610771565b6101e2600a5481565b6006546102479073ffffffffffffffffffffffffffffffffffffffff1681565b6101e26102b636600461197a565b73ffffffffffffffffffffffffffffffffffffffff1660009081526020819052604090205490565b6009546102479073ffffffffffffffffffffffffffffffffffffffff1681565b600b546102479073ffffffffffffffffffffffffffffffffffffffff1681565b6101a56107bd565b6101ce610334366004611a31565b6107cc565b6101ce610347366004611a31565b61089d565b61021661035a36600461197a565b6108ab565b610216610972565b610216610375366004611b02565b6109aa565b6008546102479073ffffffffffffffffffffffffffffffffffffffff1681565b6007546102479073ffffffffffffffffffffffffffffffffffffffff1681565b6102166103c8366004611a7c565b610bba565b6101e26103db3660046119b9565b73ffffffffffffffffffffffffffffffffffffffff918216600090815260016020908152604080832093909416825291909152205490565b6101e2610ea4565b60606003805461042a90611bd2565b80601f016020809104026020016040519081016040528092919081815260200182805461045690611bd2565b80156104a35780601f10610478576101008083540402835291602001916104a3565b820191906000526020600020905b81548152906001019060200180831161048657829003601f168201915b5050505050905090565b6000336104bb818585610ff9565b5060019392505050565b6000336104d38582856111ad565b6104de858585611284565b506001949350505050565b6104f1610972565b3360009081526020819052604090205481111561056f576040517f08c379a000000000000000000000000000000000000000000000000000000000815260206004820152600c60248201527f496e73756666696369656e74000000000000000000000000000000000000000060448201526064015b60405180910390fd5b6105793382611537565b6007546006546040517f095ea7b300000000000000000000000000000000000000000000000000000000815273ffffffffffffffffffffffffffffffffffffffff91821660048201526024810184905291169063095ea7b390604401602060405180830381600087803b1580156105ef57600080fd5b505af1158015610603573d6000803e3d6000fd5b505050506040513d601f19601f820116820180604052508101906106279190611a5c565b506006546040517f2e1a7d4d0000000000000000000000000000000000000000000000000000000081526004810183905273ffffffffffffffffffffffffffffffffffffffff90911690632e1a7d4d90602401600060405180830381600087803b15801561069457600080fd5b505af11580156106a8573d6000803e3d6000fd5b5050505080600a60008282546106be9190611bbb565b90915550506005546040517fa9059cbb0000000000000000000000000000000000000000000000000000000081523360048201526024810183905273ffffffffffffffffffffffffffffffffffffffff9091169063a9059cbb90604401602060405180830381600087803b15801561073557600080fd5b505af1158015610749573d6000803e3d6000fd5b505050506040513d601f19601f8201168201806040525081019061076d9190611a5c565b5050565b33600081815260016020908152604080832073ffffffffffffffffffffffffffffffffffffffff871684529091528120549091906104bb90829086906107b8908790611ba3565b610ff9565b60606004805461042a90611bd2565b33600081815260016020908152604080832073ffffffffffffffffffffffffffffffffffffffff8716845290915281205490919083811015610890576040517f08c379a000000000000000000000000000000000000000000000000000000000815260206004820152602560248201527f45524332303a2064656372656173656420616c6c6f77616e63652062656c6f7760448201527f207a65726f0000000000000000000000000000000000000000000000000000006064820152608401610566565b6104de8286868403610ff9565b6000336104bb818585611284565b60095473ffffffffffffffffffffffffffffffffffffffff161561092b576040517f08c379a000000000000000000000000000000000000000000000000000000000815260206004820152600b60248201527f416c7265616479207365740000000000000000000000000000000000000000006044820152606401610566565b600980547fffffffffffffffffffffffff00000000000000000000000000000000000000001673ffffffffffffffffffffffffffffffffffffffff92909216919091179055565b600061097c610ea4565b905080156109a7576009546109a79073ffffffffffffffffffffffffffffffffffffffff168261171c565b50565b6109b2610972565b6005546040517f23b872dd0000000000000000000000000000000000000000000000000000000081523360048201523060248201526044810183905273ffffffffffffffffffffffffffffffffffffffff909116906323b872dd90606401602060405180830381600087803b158015610a2a57600080fd5b505af1158015610a3e573d6000803e3d6000fd5b505050506040513d601f19601f82011682018060405250810190610a629190611a5c565b506005546006546040517f095ea7b300000000000000000000000000000000000000000000000000000000815273ffffffffffffffffffffffffffffffffffffffff91821660048201526024810184905291169063095ea7b390604401602060405180830381600087803b158015610ad957600080fd5b505af1158015610aed573d6000803e3d6000fd5b505050506040513d601f19601f82011682018060405250810190610b119190611a5c565b506006546040517fb6b55f250000000000000000000000000000000000000000000000000000000081526004810183905273ffffffffffffffffffffffffffffffffffffffff9091169063b6b55f2590602401600060405180830381600087803b158015610b7e57600080fd5b505af1158015610b92573d6000803e3d6000fd5b50505050610ba0338261171c565b80600a6000828254610bb29190611ba3565b909155505050565b600b5474010000000000000000000000000000000000000000900460ff1615610c3f576040517f08c379a000000000000000000000000000000000000000000000000000000000815260206004820152600b60248201527f696e746961696c697365640000000000000000000000000000000000000000006044820152606401610566565b600b80547fffffffffffffffffffffff00ffffffffffffffffffffffffffffffffffffffff16740100000000000000000000000000000000000000001790558251610c9190600d90602086019061183c565b508351610ca590600c90602087019061183c565b50600680547fffffffffffffffffffffffff00000000000000000000000000000000000000001673ffffffffffffffffffffffffffffffffffffffff8416908117909155604080517f38d52e0f00000000000000000000000000000000000000000000000000000000815290516338d52e0f91600480820192602092909190829003018186803b158015610d3857600080fd5b505afa158015610d4c573d6000803e3d6000fd5b505050506040513d601f19601f82011682018060405250810190610d70919061199d565b600580547fffffffffffffffffffffffff00000000000000000000000000000000000000001673ffffffffffffffffffffffffffffffffffffffff928316179055600654604080517fc89039c50000000000000000000000000000000000000000000000000000000081529051919092169163c89039c5916004808301926020929190829003018186803b158015610e0757600080fd5b505afa158015610e1b573d6000803e3d6000fd5b505050506040513d601f19601f82011682018060405250810190610e3f919061199d565b6007805473ffffffffffffffffffffffffffffffffffffffff9283167fffffffffffffffffffffffff0000000000000000000000000000000000000000918216179091556008805493909216928116929092179055600b805490911633179055505050565b600a54600654604080517fc89039c500000000000000000000000000000000000000000000000000000000815290516000939273ffffffffffffffffffffffffffffffffffffffff169163c89039c5916004808301926020929190829003018186803b158015610f1357600080fd5b505afa158015610f27573d6000803e3d6000fd5b505050506040513d601f19601f82011682018060405250810190610f4b919061199d565b6040517f70a0823100000000000000000000000000000000000000000000000000000000815230600482015273ffffffffffffffffffffffffffffffffffffffff91909116906370a082319060240160206040518083038186803b158015610fb257600080fd5b505afa158015610fc6573d6000803e3d6000fd5b505050506040513d601f19601f82011682018060405250810190610fea9190611b1a565b610ff49190611bbb565b905090565b73ffffffffffffffffffffffffffffffffffffffff831661109b576040517f08c379a0000000000000000000000000000000000000000000000000000000008152602060048201526024808201527f45524332303a20617070726f76652066726f6d20746865207a65726f2061646460448201527f72657373000000000000000000000000000000000000000000000000000000006064820152608401610566565b73ffffffffffffffffffffffffffffffffffffffff821661113e576040517f08c379a000000000000000000000000000000000000000000000000000000000815260206004820152602260248201527f45524332303a20617070726f766520746f20746865207a65726f20616464726560448201527f73730000000000000000000000000000000000000000000000000000000000006064820152608401610566565b73ffffffffffffffffffffffffffffffffffffffff83811660008181526001602090815260408083209487168084529482529182902085905590518481527f8c5be1e5ebec7d5bd14f71427d1e84f3dd0314c0f7b2291e5b200ac8c7c3b92591015b60405180910390a3505050565b73ffffffffffffffffffffffffffffffffffffffff8381166000908152600160209081526040808320938616835292905220547fffffffffffffffffffffffffffffffffffffffffffffffffffffffffffffffff811461127e5781811015611271576040517f08c379a000000000000000000000000000000000000000000000000000000000815260206004820152601d60248201527f45524332303a20696e73756666696369656e7420616c6c6f77616e63650000006044820152606401610566565b61127e8484848403610ff9565b50505050565b73ffffffffffffffffffffffffffffffffffffffff8316611327576040517f08c379a000000000000000000000000000000000000000000000000000000000815260206004820152602560248201527f45524332303a207472616e736665722066726f6d20746865207a65726f20616460448201527f64726573730000000000000000000000000000000000000000000000000000006064820152608401610566565b73ffffffffffffffffffffffffffffffffffffffff82166113ca576040517f08c379a000000000000000000000000000000000000000000000000000000000815260206004820152602360248201527f45524332303a207472616e7366657220746f20746865207a65726f206164647260448201527f65737300000000000000000000000000000000000000000000000000000000006064820152608401610566565b73ffffffffffffffffffffffffffffffffffffffff831660009081526020819052604090205481811015611480576040517f08c379a000000000000000000000000000000000000000000000000000000000815260206004820152602660248201527f45524332303a207472616e7366657220616d6f756e742065786365656473206260448201527f616c616e636500000000000000000000000000000000000000000000000000006064820152608401610566565b73ffffffffffffffffffffffffffffffffffffffff8085166000908152602081905260408082208585039055918516815290812080548492906114c4908490611ba3565b925050819055508273ffffffffffffffffffffffffffffffffffffffff168473ffffffffffffffffffffffffffffffffffffffff167fddf252ad1be2c89b69c2b068fc378daa952ba7f163c4a11628f55a4df523b3ef8460405161152a91815260200190565b60405180910390a361127e565b73ffffffffffffffffffffffffffffffffffffffff82166115da576040517f08c379a000000000000000000000000000000000000000000000000000000000815260206004820152602160248201527f45524332303a206275726e2066726f6d20746865207a65726f2061646472657360448201527f73000000000000000000000000000000000000000000000000000000000000006064820152608401610566565b73ffffffffffffffffffffffffffffffffffffffff821660009081526020819052604090205481811015611690576040517f08c379a000000000000000000000000000000000000000000000000000000000815260206004820152602260248201527f45524332303a206275726e20616d6f756e7420657863656564732062616c616e60448201527f63650000000000000000000000000000000000000000000000000000000000006064820152608401610566565b73ffffffffffffffffffffffffffffffffffffffff831660009081526020819052604081208383039055600280548492906116cc908490611bbb565b909155505060405182815260009073ffffffffffffffffffffffffffffffffffffffff8516907fddf252ad1be2c89b69c2b068fc378daa952ba7f163c4a11628f55a4df523b3ef906020016111a0565b73ffffffffffffffffffffffffffffffffffffffff8216611799576040517f08c379a000000000000000000000000000000000000000000000000000000000815260206004820152601f60248201527f45524332303a206d696e7420746f20746865207a65726f2061646472657373006044820152606401610566565b80600260008282546117ab9190611ba3565b909155505073ffffffffffffffffffffffffffffffffffffffff8216600090815260208190526040812080548392906117e5908490611ba3565b909155505060405181815273ffffffffffffffffffffffffffffffffffffffff8316906000907fddf252ad1be2c89b69c2b068fc378daa952ba7f163c4a11628f55a4df523b3ef9060200160405180910390a35050565b82805461184890611bd2565b90600052602060002090601f01602090048101928261186a57600085556118b0565b82601f1061188357805160ff19168380011785556118b0565b828001600101855582156118b0579182015b828111156118b0578251825591602001919060010190611895565b506118bc9291506118c0565b5090565b5b808211156118bc57600081556001016118c1565b600082601f8301126118e5578081fd5b813567ffffffffffffffff8082111561190057611900611c55565b604051601f83017fffffffffffffffffffffffffffffffffffffffffffffffffffffffffffffffe0908116603f0116810190828211818310171561194657611946611c55565b8160405283815286602085880101111561195e578485fd5b8360208701602083013792830160200193909352509392505050565b60006020828403121561198b578081fd5b813561199681611c84565b9392505050565b6000602082840312156119ae578081fd5b815161199681611c84565b600080604083850312156119cb578081fd5b82356119d681611c84565b915060208301356119e681611c84565b809150509250929050565b600080600060608486031215611a05578081fd5b8335611a1081611c84565b92506020840135611a2081611c84565b929592945050506040919091013590565b60008060408385031215611a43578182fd5b8235611a4e81611c84565b946020939093013593505050565b600060208284031215611a6d578081fd5b81518015158114611996578182fd5b60008060008060808587031215611a91578081fd5b843567ffffffffffffffff80821115611aa8578283fd5b611ab4888389016118d5565b95506020870135915080821115611ac9578283fd5b50611ad6878288016118d5565b9350506040850135611ae781611c84565b91506060850135611af781611c84565b939692955090935050565b600060208284031215611b13578081fd5b5035919050565b600060208284031215611b2b578081fd5b5051919050565b6000602080835283518082850152825b81811015611b5e57858101830151858201604001528201611b42565b81811115611b6f5783604083870101525b50601f017fffffffffffffffffffffffffffffffffffffffffffffffffffffffffffffffe016929092016040019392505050565b60008219821115611bb657611bb6611c26565b500190565b600082821015611bcd57611bcd611c26565b500390565b600181811c90821680611be657607f821691505b60208210811415611c20577f4e487b7100000000000000000000000000000000000000000000000000000000600052602260045260246000fd5b50919050565b7f4e487b7100000000000000000000000000000000000000000000000000000000600052601160045260246000fd5b7f4e487b7100000000000000000000000000000000000000000000000000000000600052604160045260246000fd5b73ffffffffffffffffffffffffffffffffffffffff811681146109a757600080fdfea26469706673582212205157c2d1ddd678e681ccf2de7f0281c07f237dc37089507ac56c2cbcc0492af964736f6c63430008040033",
  "linkReferences": {},
  "deployedLinkReferences": {}
}