{
  "_format": "hh-sol-artifact-1",
  "contractName": "ResourceManager",
  "sourceName": "contracts/Game/Resources/ResourceManager.sol",
  "abi": [
    {
      "inputs": [
        {
          "internalType": "address",
          "name": "_gameManager",
          "type": "address"
        }
      ],
      "stateMutability": "nonpayable",
      "type": "constructor"
    },
    {
      "anonymous": false,
      "inputs": [
        {
          "indexed": true,
          "internalType": "address",
          "name": "previousOwner",
          "type": "address"
        },
        {
          "indexed": true,
          "internalType": "address",
          "name": "newOwner",
          "type": "address"
        }
      ],
      "name": "OwnershipTransferred",
      "type": "event"
    },
    {
      "inputs": [
        {
          "internalType": "address",
          "name": "resourceAddress",
          "type": "address"
        },
        {
          "internalType": "address",
          "name": "emittedResource",
          "type": "address"
        },
        {
          "internalType": "address",
          "name": "underlying",
          "type": "address"
        },
        {
          "internalType": "address",
          "name": "transmuter",
          "type": "address"
        },
        {
          "internalType": "uint256",
          "name": "levelUp",
          "type": "uint256"
        }
      ],
      "name": "addResource",
      "outputs": [],
      "stateMutability": "nonpayable",
      "type": "function"
    },
    {
      "inputs": [],
      "name": "gameManager",
      "outputs": [
        {
          "internalType": "address",
          "name": "",
          "type": "address"
        }
      ],
      "stateMutability": "view",
      "type": "function"
    },
    {
      "inputs": [
        {
          "components": [
            {
              "internalType": "uint256",
              "name": "emissionRate",
              "type": "uint256"
            },
            {
              "internalType": "uint256",
              "name": "levelUp",
              "type": "uint256"
            },
            {
              "internalType": "address",
              "name": "underlying",
              "type": "address"
            },
            {
              "internalType": "address",
              "name": "pool",
              "type": "address"
            },
            {
              "internalType": "string",
              "name": "wrappedName",
              "type": "string"
            },
            {
              "internalType": "string",
              "name": "wrappedSymbol",
              "type": "string"
            },
            {
              "internalType": "string",
              "name": "emittedName",
              "type": "string"
            },
            {
              "internalType": "string",
              "name": "emittedSymbol",
              "type": "string"
            }
          ],
          "internalType": "struct AaveResourceSetup",
          "name": "aaveResource",
          "type": "tuple"
        }
      ],
      "name": "generateNewAaveResource",
      "outputs": [],
      "stateMutability": "nonpayable",
      "type": "function"
    },
    {
      "inputs": [
        {
          "internalType": "uint256",
          "name": "r",
          "type": "uint256"
        }
      ],
      "name": "getResource",
      "outputs": [
        {
          "components": [
            {
              "internalType": "address",
              "name": "asset",
              "type": "address"
            },
            {
              "internalType": "address",
              "name": "underlying",
              "type": "address"
            },
            {
              "internalType": "address",
              "name": "depositToken",
              "type": "address"
            },
            {
              "internalType": "address",
              "name": "resourceToken",
              "type": "address"
            },
            {
              "internalType": "address",
              "name": "emittedResource",
              "type": "address"
            },
            {
              "internalType": "address",
              "name": "transmuter",
              "type": "address"
            },
            {
              "internalType": "uint256",
              "name": "levelUpValue",
              "type": "uint256"
            }
          ],
          "internalType": "struct Resource",
          "name": "",
          "type": "tuple"
        }
      ],
      "stateMutability": "view",
      "type": "function"
    },
    {
      "inputs": [],
      "name": "owner",
      "outputs": [
        {
          "internalType": "address",
          "name": "",
          "type": "address"
        }
      ],
      "stateMutability": "view",
      "type": "function"
    },
    {
      "inputs": [],
      "name": "renounceOwnership",
      "outputs": [],
      "stateMutability": "nonpayable",
      "type": "function"
    },
    {
      "inputs": [],
      "name": "scaleFactor",
      "outputs": [
        {
          "internalType": "uint256",
          "name": "",
          "type": "uint256"
        }
      ],
      "stateMutability": "view",
      "type": "function"
    },
    {
      "inputs": [],
      "name": "totalResources",
      "outputs": [
        {
          "internalType": "uint256",
          "name": "",
          "type": "uint256"
        }
      ],
      "stateMutability": "view",
      "type": "function"
    },
    {
      "inputs": [
        {
          "internalType": "address",
          "name": "newOwner",
          "type": "address"
        }
      ],
      "name": "transferOwnership",
      "outputs": [],
      "stateMutability": "nonpayable",
      "type": "function"
    }
  ],
  "bytecode": "0x6080604052600060015561271060025534801561001b57600080fd5b506040516115ef3803806115ef83398101604081905261003a916100b8565b61004333610068565b600380546001600160a01b0319166001600160a01b03929092169190911790556100e6565b600080546001600160a01b038381166001600160a01b0319831681178455604051919092169283917f8be0079c531659141344cd1fd0a4f28419497f9722a3daafe3b4186f6b6457e09190a35050565b6000602082840312156100c9578081fd5b81516001600160a01b03811681146100df578182fd5b9392505050565b6114fa806100f56000396000f3fe608060405234801561001057600080fd5b50600436106100a35760003560e01c8063715018a611610076578063c26e9d901161005b578063c26e9d901461026d578063c6b0526614610280578063f2fde38b146102a057600080fd5b8063715018a6146102265780638da5cb5b1461022e57600080fd5b80631e8fca2d146100a85780634b595ced146101f157806366f5a74714610206578063683dd1911461021d575b600080fd5b6101706100b6366004611120565b6040805160e081018252600080825260208201819052918101829052606081018290526080810182905260a0810182905260c081019190915250600090815260046020818152604092839020835160e081018552815473ffffffffffffffffffffffffffffffffffffffff908116825260018301548116938201939093526002820154831694810194909452600381015482166060850152918201548116608084015260058201541660a08301526006015460c082015290565b6040516101e89190600060e08201905073ffffffffffffffffffffffffffffffffffffffff8084511683528060208501511660208401528060408501511660408401528060608501511660608401528060808501511660808401528060a08501511660a08401525060c083015160c083015292915050565b60405180910390f35b6102046101ff366004610fb4565b6102b3565b005b61020f60015481565b6040519081526020016101e8565b61020f60025481565b610204610730565b60005473ffffffffffffffffffffffffffffffffffffffff165b60405173ffffffffffffffffffffffffffffffffffffffff90911681526020016101e8565b61020461027b366004611017565b610744565b6003546102489073ffffffffffffffffffffffffffffffffffffffff1681565b6102046102ae366004610f75565b610c36565b6102bb610ced565b73ffffffffffffffffffffffffffffffffffffffff831660009081526005602052604090205460ff1615610350576040517f08c379a000000000000000000000000000000000000000000000000000000000815260206004820152600f60248201527f5265736f7572636520457869737473000000000000000000000000000000000060448201526064015b60405180910390fd5b73ffffffffffffffffffffffffffffffffffffffff808416600090815260056020908152604080832080547fffffffffffffffffffffffffffffffffffffffffffffffffffffffffffffff0016600117905580517f38d52e0f000000000000000000000000000000000000000000000000000000008152905192938916926338d52e0f92600480840193919291829003018186803b1580156103f157600080fd5b505afa158015610405573d6000803e3d6000fd5b505050506040513d601f19601f820116820180604052508101906104299190610f98565b73ffffffffffffffffffffffffffffffffffffffff1663313ce5676040518163ffffffff1660e01b815260040160206040518083038186803b15801561046e57600080fd5b505afa158015610482573d6000803e3d6000fd5b505050506040513d601f19601f820116820180604052508101906104a69190611138565b9050600060025482600a6104ba919061133f565b6104c49085611407565b6104ce91906112a5565b905060006040518060e001604052808973ffffffffffffffffffffffffffffffffffffffff166338d52e0f6040518163ffffffff1660e01b815260040160206040518083038186803b15801561052357600080fd5b505afa158015610537573d6000803e3d6000fd5b505050506040513d601f19601f8201168201806040525081019061055b9190610f98565b73ffffffffffffffffffffffffffffffffffffffff1681526020018773ffffffffffffffffffffffffffffffffffffffff1681526020018973ffffffffffffffffffffffffffffffffffffffff1663c89039c56040518163ffffffff1660e01b815260040160206040518083038186803b1580156105d857600080fd5b505afa1580156105ec573d6000803e3d6000fd5b505050506040513d601f19601f820116820180604052508101906106109190610f98565b73ffffffffffffffffffffffffffffffffffffffff90811682528a81166020808401919091528a821660408085019190915289831660608086019190915260809485018890526001805460009081526004808652848220895181547fffffffffffffffffffffffff0000000000000000000000000000000000000000908116918a16919091178255968a015181850180548916918a1691909117905594890151600286018054881691891691909117905592880151600385018054871691881691909117905595870151918301805485169286169290921790915560a086015160058301805490941694169390931790915560c084015160069091015580549293509182919061072190839061128d565b90915550505050505050505050565b610738610ced565b6107426000610d6e565b565b61074c610ced565b60006107f6600360009054906101000a900473ffffffffffffffffffffffffffffffffffffffff1673ffffffffffffffffffffffffffffffffffffffff1663d5c0f3a66040518163ffffffff1660e01b815260040160206040518083038186803b1580156107b957600080fd5b505afa1580156107cd573d6000803e3d6000fd5b505050506040513d601f19601f820116820180604052508101906107f19190610f98565b610de3565b604083810151606085015191517f80844fba00000000000000000000000000000000000000000000000000000000815273ffffffffffffffffffffffffffffffffffffffff91821660048201529181166024830152919250908216906380844fba90604401600060405180830381600087803b15801561087557600080fd5b505af1158015610889573d6000803e3d6000fd5b5050505060006108fa600360009054906101000a900473ffffffffffffffffffffffffffffffffffffffff1673ffffffffffffffffffffffffffffffffffffffff1663eb9bc4c76040518163ffffffff1660e01b815260040160206040518083038186803b1580156107b957600080fd5b608084015160a08501516003546040517fd87c3b8200000000000000000000000000000000000000000000000000000000815293945073ffffffffffffffffffffffffffffffffffffffff8086169463d87c3b8294610964949093909289929116906004016111b9565b600060405180830381600087803b15801561097e57600080fd5b505af1158015610992573d6000803e3d6000fd5b505050506000610a03600360009054906101000a900473ffffffffffffffffffffffffffffffffffffffff1673ffffffffffffffffffffffffffffffffffffffff1663bade15bc6040518163ffffffff1660e01b815260040160206040518083038186803b1580156107b957600080fd5b60c085015160e086015186516003546040517f5e739afb00000000000000000000000000000000000000000000000000000000815294955073ffffffffffffffffffffffffffffffffffffffff80871695635e739afb95610a6e959094909390921690600401611210565b600060405180830381600087803b158015610a8857600080fd5b505af1158015610a9c573d6000803e3d6000fd5b505050506000610b0c600360009054906101000a900473ffffffffffffffffffffffffffffffffffffffff1673ffffffffffffffffffffffffffffffffffffffff1662ce4fa86040518163ffffffff1660e01b815260040160206040518083038186803b1580156107b957600080fd5b6040517f80844fba00000000000000000000000000000000000000000000000000000000815273ffffffffffffffffffffffffffffffffffffffff85811660048301528481166024830152919250908216906380844fba90604401600060405180830381600087803b158015610b8157600080fd5b505af1158015610b95573d6000803e3d6000fd5b50506040517fadb4a9ad00000000000000000000000000000000000000000000000000000000815273ffffffffffffffffffffffffffffffffffffffff84811660048301528616925063adb4a9ad9150602401600060405180830381600087803b158015610c0257600080fd5b505af1158015610c16573d6000803e3d6000fd5b50505050610c2f838387604001518489602001516102b3565b5050505050565b610c3e610ced565b73ffffffffffffffffffffffffffffffffffffffff8116610ce1576040517f08c379a000000000000000000000000000000000000000000000000000000000815260206004820152602660248201527f4f776e61626c653a206e6577206f776e657220697320746865207a65726f206160448201527f64647265737300000000000000000000000000000000000000000000000000006064820152608401610347565b610cea81610d6e565b50565b60005473ffffffffffffffffffffffffffffffffffffffff163314610742576040517f08c379a000000000000000000000000000000000000000000000000000000000815260206004820181905260248201527f4f776e61626c653a2063616c6c6572206973206e6f7420746865206f776e65726044820152606401610347565b6000805473ffffffffffffffffffffffffffffffffffffffff8381167fffffffffffffffffffffffff0000000000000000000000000000000000000000831681178455604051919092169283917f8be0079c531659141344cd1fd0a4f28419497f9722a3daafe3b4186f6b6457e09190a35050565b60006040517f3d602d80600a3d3981f3363d3d373d3d3d363d7300000000000000000000000081528260601b60148201527f5af43d82803e903d91602b57fd5bf3000000000000000000000000000000000060288201526037816000f091505073ffffffffffffffffffffffffffffffffffffffff8116610ec0576040517f08c379a000000000000000000000000000000000000000000000000000000000815260206004820152601660248201527f455243313136373a20637265617465206661696c6564000000000000000000006044820152606401610347565b919050565b8035610ec0816114a2565b600082601f830112610ee0578081fd5b813567ffffffffffffffff80821115610efb57610efb611473565b604051601f83017fffffffffffffffffffffffffffffffffffffffffffffffffffffffffffffffe0908116603f01168101908282118183101715610f4157610f41611473565b81604052838152866020858801011115610f59578485fd5b8360208701602083013792830160200193909352509392505050565b600060208284031215610f86578081fd5b8135610f91816114a2565b9392505050565b600060208284031215610fa9578081fd5b8151610f91816114a2565b600080600080600060a08688031215610fcb578081fd5b8535610fd6816114a2565b94506020860135610fe6816114a2565b93506040860135610ff6816114a2565b92506060860135611006816114a2565b949793965091946080013592915050565b600060208284031215611028578081fd5b813567ffffffffffffffff8082111561103f578283fd5b908301906101008286031215611053578283fd5b61105b611263565b823581526020830135602082015261107560408401610ec5565b604082015261108660608401610ec5565b606082015260808301358281111561109c578485fd5b6110a887828601610ed0565b60808301525060a0830135828111156110bf578485fd5b6110cb87828601610ed0565b60a08301525060c0830135828111156110e2578485fd5b6110ee87828601610ed0565b60c08301525060e083013582811115611105578485fd5b61111187828601610ed0565b60e08301525095945050505050565b600060208284031215611131578081fd5b5035919050565b600060208284031215611149578081fd5b5051919050565b60008151808452815b8181101561117557602081850181015186830182015201611159565b818111156111865782602083870101525b50601f017fffffffffffffffffffffffffffffffffffffffffffffffffffffffffffffffe0169290920160200192915050565b6080815260006111cc6080830187611150565b82810360208401526111de8187611150565b91505073ffffffffffffffffffffffffffffffffffffffff808516604084015280841660608401525095945050505050565b6080815260006112236080830187611150565b82810360208401526112358187611150565b91505083604083015273ffffffffffffffffffffffffffffffffffffffff8316606083015295945050505050565b604051610100810167ffffffffffffffff8111828210171561128757611287611473565b60405290565b600082198211156112a0576112a0611444565b500190565b6000826112d9577f4e487b710000000000000000000000000000000000000000000000000000000081526012600452602481fd5b500490565b600181815b8085111561133757817fffffffffffffffffffffffffffffffffffffffffffffffffffffffffffffffff0482111561131d5761131d611444565b8085161561132a57918102915b93841c93908002906112e3565b509250929050565b6000610f91838360008261135557506001611401565b8161136257506000611401565b816001811461137857600281146113825761139e565b6001915050611401565b60ff84111561139357611393611444565b50506001821b611401565b5060208310610133831016604e8410600b84101617156113c1575081810a611401565b6113cb83836112de565b807fffffffffffffffffffffffffffffffffffffffffffffffffffffffffffffffff048211156113fd576113fd611444565b0290505b92915050565b6000817fffffffffffffffffffffffffffffffffffffffffffffffffffffffffffffffff048311821515161561143f5761143f611444565b500290565b7f4e487b7100000000000000000000000000000000000000000000000000000000600052601160045260246000fd5b7f4e487b7100000000000000000000000000000000000000000000000000000000600052604160045260246000fd5b73ffffffffffffffffffffffffffffffffffffffff81168114610cea57600080fdfea26469706673582212203ac59f8ecf6b683fee39eaa605f71a991c9d86b89b60abe2790b14e0d6fb231664736f6c63430008040033",
  "linkReferences": {},
  "deployedLinkReferences": {}
}