{
  "_format": "hh-sol-artifact-1",
  "contractName": "UniswapV3Helper",
  "sourceName": "contracts/Game/Helpers/UniswapV3Helper.sol",
  "abi": [
    {
      "stateMutability": "payable",
      "type": "fallback"
    },
    {
      "inputs": [
        {
          "internalType": "address",
          "name": "wrappedNative",
          "type": "address"
        }
      ],
      "name": "deposit",
      "outputs": [],
      "stateMutability": "payable",
      "type": "function"
    },
    {
      "inputs": [
        {
          "internalType": "address",
          "name": "router",
          "type": "address"
        },
        {
          "internalType": "address",
          "name": "tokenIn",
          "type": "address"
        },
        {
          "internalType": "address",
          "name": "tokenOut",
          "type": "address"
        },
        {
          "internalType": "uint24",
          "name": "fee",
          "type": "uint24"
        },
        {
          "internalType": "uint256",
          "name": "amountIn",
          "type": "uint256"
        },
        {
          "internalType": "uint256",
          "name": "amountOut",
          "type": "uint256"
        },
        {
          "internalType": "address",
          "name": "to",
          "type": "address"
        }
      ],
      "name": "swapExactTokensForTokens",
      "outputs": [],
      "stateMutability": "nonpayable",
      "type": "function"
    },
    {
      "stateMutability": "payable",
      "type": "receive"
    }
  ],
  "bytecode": "0x608060405234801561001057600080fd5b50610526806100206000396000f3fe60806040526004361061002a5760003560e01c8063def4c0f814610033578063f340fa011461005357005b3661003157005b005b34801561003f57600080fd5b5061003161004e366004610438565b610066565b610031610061366004610417565b6102e3565b6040517f23b872dd0000000000000000000000000000000000000000000000000000000081523360048201523060248201526044810184905273ffffffffffffffffffffffffffffffffffffffff8716906323b872dd90606401602060405180830381600087803b1580156100da57600080fd5b505af11580156100ee573d6000803e3d6000fd5b505050506040513d601f19601f8201168201806040525081019061011291906104b8565b506040517f095ea7b300000000000000000000000000000000000000000000000000000000815273ffffffffffffffffffffffffffffffffffffffff88811660048301526024820185905287169063095ea7b390604401602060405180830381600087803b15801561018357600080fd5b505af1158015610197573d6000803e3d6000fd5b505050506040513d601f19601f820116820180604052508101906101bb91906104b8565b506040805160e08101825273ffffffffffffffffffffffffffffffffffffffff88811682528781166020830190815262ffffff88811684860190815286841660608601908152608086018a815260a087018a8152600060c0890190815298517f04e45aaf000000000000000000000000000000000000000000000000000000008152885188166004820152955187166024870152925190931660448501525184166064840152905160848301525160a48201529251811660c48401529091908916906304e45aaf9060e401602060405180830381600087803b1580156102a057600080fd5b505af11580156102b4573d6000803e3d6000fd5b505050506040513d601f19601f820116820180604052508101906102d891906104d8565b505050505050505050565b8073ffffffffffffffffffffffffffffffffffffffff1663d0e30db0346040518263ffffffff1660e01b81526004016000604051808303818588803b15801561032b57600080fd5b505af115801561033f573d6000803e3d6000fd5b50506040517fa9059cbb00000000000000000000000000000000000000000000000000000000815233600482015234602482015273ffffffffffffffffffffffffffffffffffffffff8516935063a9059cbb92506044019050602060405180830381600087803b1580156103b257600080fd5b505af11580156103c6573d6000803e3d6000fd5b505050506040513d601f19601f820116820180604052508101906103ea91906104b8565b5050565b803573ffffffffffffffffffffffffffffffffffffffff8116811461041257600080fd5b919050565b600060208284031215610428578081fd5b610431826103ee565b9392505050565b600080600080600080600060e0888a031215610452578283fd5b61045b886103ee565b9650610469602089016103ee565b9550610477604089016103ee565b9450606088013562ffffff8116811461048e578384fd5b93506080880135925060a088013591506104aa60c089016103ee565b905092959891949750929550565b6000602082840312156104c9578081fd5b81518015158114610431578182fd5b6000602082840312156104e9578081fd5b505191905056fea264697066735822122048361cc698562be67ffc71d20967040c9a564f9531f6b7ae1355ee6334b8773064736f6c63430008040033",
  "linkReferences": {},
  "deployedLinkReferences": {}
}