{
  "_format": "hh-sol-artifact-1",
  "contractName": "AaveV3Underlying",
  "sourceName": "contracts/Game/Resources/AaveV3Underlying.sol",
  "abi": [
    {
      "inputs": [],
      "stateMutability": "nonpayable",
      "type": "constructor"
    },
    {
      "inputs": [],
      "name": "asset",
      "outputs": [
        {
          "internalType": "address",
          "name": "",
          "type": "address"
        }
      ],
      "stateMutability": "view",
      "type": "function"
    },
    {
      "inputs": [
        {
          "internalType": "uint256",
          "name": "amount",
          "type": "uint256"
        }
      ],
      "name": "deposit",
      "outputs": [],
      "stateMutability": "nonpayable",
      "type": "function"
    },
    {
      "inputs": [],
      "name": "depositToken",
      "outputs": [
        {
          "internalType": "address",
          "name": "",
          "type": "address"
        }
      ],
      "stateMutability": "view",
      "type": "function"
    },
    {
      "inputs": [
        {
          "internalType": "address",
          "name": "_a",
          "type": "address"
        },
        {
          "internalType": "address",
          "name": "_lp",
          "type": "address"
        }
      ],
      "name": "initialiser",
      "outputs": [],
      "stateMutability": "nonpayable",
      "type": "function"
    },
    {
      "inputs": [
        {
          "internalType": "uint256",
          "name": "amount",
          "type": "uint256"
        }
      ],
      "name": "withdraw",
      "outputs": [],
      "stateMutability": "nonpayable",
      "type": "function"
    }
  ],
  "bytecode": "0x608060405234801561001057600080fd5b506002805460ff60a01b1916600160a01b1790556110a8806100336000396000f3fe608060405234801561001057600080fd5b50600436106100675760003560e01c806380844fba1161005057806380844fba146100ca578063b6b55f25146100dd578063c89039c5146100f057600080fd5b80632e1a7d4d1461006c57806338d52e0f14610081575b600080fd5b61007f61007a366004610f90565b610110565b005b6000546100a19073ffffffffffffffffffffffffffffffffffffffff1681565b60405173ffffffffffffffffffffffffffffffffffffffff909116815260200160405180910390f35b61007f6100d8366004610e0f565b61065f565b61007f6100eb366004610f90565b610851565b6001546100a19073ffffffffffffffffffffffffffffffffffffffff1681565b6001546040517f70a0823100000000000000000000000000000000000000000000000000000000815230600482015260009173ffffffffffffffffffffffffffffffffffffffff16906370a082319060240160206040518083038186803b15801561017a57600080fd5b505afa15801561018e573d6000803e3d6000fd5b505050506040513d601f19601f820116820180604052508101906101b29190610fa8565b6001546040517f23b872dd0000000000000000000000000000000000000000000000000000000081523360048201523060248201526044810185905291925073ffffffffffffffffffffffffffffffffffffffff16906323b872dd90606401602060405180830381600087803b15801561022b57600080fd5b505af115801561023f573d6000803e3d6000fd5b505050506040513d601f19601f820116820180604052508101906102639190610e47565b506001546040517f70a08231000000000000000000000000000000000000000000000000000000008152306004820152600091839173ffffffffffffffffffffffffffffffffffffffff909116906370a082319060240160206040518083038186803b1580156102d257600080fd5b505afa1580156102e6573d6000803e3d6000fd5b505050506040513d601f19601f8201168201806040525081019061030a9190610fa8565b6103149190611011565b6001546002546040517f095ea7b300000000000000000000000000000000000000000000000000000000815273ffffffffffffffffffffffffffffffffffffffff918216600482015260248101849052929350169063095ea7b390604401602060405180830381600087803b15801561038c57600080fd5b505af11580156103a0573d6000803e3d6000fd5b505050506040513d601f19601f820116820180604052508101906103c49190610e47565b50600080546040517f70a0823100000000000000000000000000000000000000000000000000000000815230600482015273ffffffffffffffffffffffffffffffffffffffff909116906370a082319060240160206040518083038186803b15801561042f57600080fd5b505afa158015610443573d6000803e3d6000fd5b505050506040513d601f19601f820116820180604052508101906104679190610fa8565b6002546000546040517f69328dec00000000000000000000000000000000000000000000000000000000815273ffffffffffffffffffffffffffffffffffffffff91821660048201526024810186905230604482015292935016906369328dec90606401600060405180830381600087803b1580156104e557600080fd5b505af11580156104f9573d6000803e3d6000fd5b5050600080546040517f70a0823100000000000000000000000000000000000000000000000000000000815230600482015291935084925073ffffffffffffffffffffffffffffffffffffffff16906370a082319060240160206040518083038186803b15801561056957600080fd5b505afa15801561057d573d6000803e3d6000fd5b505050506040513d601f19601f820116820180604052508101906105a19190610fa8565b6105ab9190611011565b6000546040517fa9059cbb0000000000000000000000000000000000000000000000000000000081523360048201526024810183905291925073ffffffffffffffffffffffffffffffffffffffff169063a9059cbb906044015b602060405180830381600087803b15801561061f57600080fd5b505af1158015610633573d6000803e3d6000fd5b505050506040513d601f19601f820116820180604052508101906106579190610e47565b505050505050565b60025474010000000000000000000000000000000000000000900460ff16156106e8576040517f08c379a000000000000000000000000000000000000000000000000000000000815260206004820152600b60248201527f696e746961696c69736564000000000000000000000000000000000000000000604482015260640160405180910390fd5b60028054600080547fffffffffffffffffffffffff00000000000000000000000000000000000000001673ffffffffffffffffffffffffffffffffffffffff8681169182178355740100000000000000000000000000000000000000007fffffffffffffffffffffff0000000000000000000000000000000000000000009094168682161793909317938490556040517f35ea6a7500000000000000000000000000000000000000000000000000000000815260048101919091529092909116906335ea6a75906024016101e06040518083038186803b1580156107cb57600080fd5b505afa1580156107df573d6000803e3d6000fd5b505050506040513d601f19601f820116820180604052508101906108039190610e6e565b6101000151600180547fffffffffffffffffffffffff00000000000000000000000000000000000000001673ffffffffffffffffffffffffffffffffffffffff909216919091179055505050565b600080546040517f70a0823100000000000000000000000000000000000000000000000000000000815230600482015273ffffffffffffffffffffffffffffffffffffffff909116906370a082319060240160206040518083038186803b1580156108bb57600080fd5b505afa1580156108cf573d6000803e3d6000fd5b505050506040513d601f19601f820116820180604052508101906108f39190610fa8565b6000546040517f23b872dd0000000000000000000000000000000000000000000000000000000081523360048201523060248201526044810185905291925073ffffffffffffffffffffffffffffffffffffffff16906323b872dd90606401602060405180830381600087803b15801561096c57600080fd5b505af1158015610980573d6000803e3d6000fd5b505050506040513d601f19601f820116820180604052508101906109a49190610e47565b50600080546040517f70a08231000000000000000000000000000000000000000000000000000000008152306004820152839173ffffffffffffffffffffffffffffffffffffffff16906370a082319060240160206040518083038186803b158015610a0f57600080fd5b505afa158015610a23573d6000803e3d6000fd5b505050506040513d601f19601f82011682018060405250810190610a479190610fa8565b610a519190611011565b6000546002546040517f095ea7b300000000000000000000000000000000000000000000000000000000815273ffffffffffffffffffffffffffffffffffffffff918216600482015260248101849052929350169063095ea7b390604401602060405180830381600087803b158015610ac957600080fd5b505af1158015610add573d6000803e3d6000fd5b505050506040513d601f19601f82011682018060405250810190610b019190610e47565b506001546040517f70a0823100000000000000000000000000000000000000000000000000000000815230600482015260009173ffffffffffffffffffffffffffffffffffffffff16906370a082319060240160206040518083038186803b158015610b6c57600080fd5b505afa158015610b80573d6000803e3d6000fd5b505050506040513d601f19601f82011682018060405250810190610ba49190610fa8565b600254600080546040517f617ba03700000000000000000000000000000000000000000000000000000000815273ffffffffffffffffffffffffffffffffffffffff918216600482015260248101879052306044820152606481019290925292935091169063617ba03790608401600060405180830381600087803b158015610c2c57600080fd5b505af1158015610c40573d6000803e3d6000fd5b50506001546040517f70a082310000000000000000000000000000000000000000000000000000000081523060048201526000935084925073ffffffffffffffffffffffffffffffffffffffff909116906370a082319060240160206040518083038186803b158015610cb257600080fd5b505afa158015610cc6573d6000803e3d6000fd5b505050506040513d601f19601f82011682018060405250810190610cea9190610fa8565b610cf49190611011565b6001546040517fa9059cbb0000000000000000000000000000000000000000000000000000000081523360048201526024810183905291925073ffffffffffffffffffffffffffffffffffffffff169063a9059cbb90604401610605565b8051610d5d8161104d565b919050565b600060208284031215610d73578081fd5b6040516020810181811067ffffffffffffffff82111715610dbb577f4e487b710000000000000000000000000000000000000000000000000000000083526041600452602483fd5b6040529151825250919050565b80516fffffffffffffffffffffffffffffffff81168114610d5d57600080fd5b805161ffff81168114610d5d57600080fd5b805164ffffffffff81168114610d5d57600080fd5b60008060408385031215610e21578182fd5b8235610e2c8161104d565b91506020830135610e3c8161104d565b809150509250929050565b600060208284031215610e58578081fd5b81518015158114610e67578182fd5b9392505050565b60006101e08284031215610e80578081fd5b610e88610fc0565b610e928484610d62565b8152610ea060208401610dc8565b6020820152610eb160408401610dc8565b6040820152610ec260608401610dc8565b6060820152610ed360808401610dc8565b6080820152610ee460a08401610dc8565b60a0820152610ef560c08401610dfa565b60c0820152610f0660e08401610de8565b60e0820152610100610f19818501610d52565b90820152610120610f2b848201610d52565b90820152610140610f3d848201610d52565b90820152610160610f4f848201610d52565b90820152610180610f61848201610dc8565b908201526101a0610f73848201610dc8565b908201526101c0610f85848201610dc8565b908201529392505050565b600060208284031215610fa1578081fd5b5035919050565b600060208284031215610fb9578081fd5b5051919050565b6040516101e0810167ffffffffffffffff8111828210171561100b577f4e487b7100000000000000000000000000000000000000000000000000000000600052604160045260246000fd5b60405290565b600082821015611048577f4e487b710000000000000000000000000000000000000000000000000000000081526011600452602481fd5b500390565b73ffffffffffffffffffffffffffffffffffffffff8116811461106f57600080fd5b5056fea2646970667358221220c18825a3395503adbd19a41908a9d2bbc14b792f687789745570236f6628bfd764736f6c63430008040033",
  "linkReferences": {},
  "deployedLinkReferences": {}
}