{
  "_format": "hh-sol-artifact-1",
  "contractName": "GameManager",
  "sourceName": "contracts/Game/Management/GameManager.sol",
  "abi": [
    {
      "anonymous": false,
      "inputs": [
        {
          "indexed": true,
          "internalType": "address",
          "name": "previousOwner",
          "type": "address"
        },
        {
          "indexed": true,
          "internalType": "address",
          "name": "newOwner",
          "type": "address"
        }
      ],
      "name": "OwnershipTransferred",
      "type": "event"
    },
    {
      "inputs": [],
      "name": "aaveV3Implementation",
      "outputs": [
        {
          "internalType": "address",
          "name": "",
          "type": "address"
        }
      ],
      "stateMutability": "view",
      "type": "function"
    },
    {
      "inputs": [],
      "name": "emittedResourceImplementation",
      "outputs": [
        {
          "internalType": "address",
          "name": "",
          "type": "address"
        }
      ],
      "stateMutability": "view",
      "type": "function"
    },
    {
      "inputs": [],
      "name": "exchange",
      "outputs": [
        {
          "internalType": "address",
          "name": "",
          "type": "address"
        }
      ],
      "stateMutability": "view",
      "type": "function"
    },
    {
      "inputs": [],
      "name": "farmImplementation",
      "outputs": [
        {
          "internalType": "address",
          "name": "",
          "type": "address"
        }
      ],
      "stateMutability": "view",
      "type": "function"
    },
    {
      "inputs": [],
      "name": "farmManager",
      "outputs": [
        {
          "internalType": "address",
          "name": "",
          "type": "address"
        }
      ],
      "stateMutability": "view",
      "type": "function"
    },
    {
      "inputs": [],
      "name": "owner",
      "outputs": [
        {
          "internalType": "address",
          "name": "",
          "type": "address"
        }
      ],
      "stateMutability": "view",
      "type": "function"
    },
    {
      "inputs": [],
      "name": "pause",
      "outputs": [
        {
          "internalType": "bool",
          "name": "",
          "type": "bool"
        }
      ],
      "stateMutability": "view",
      "type": "function"
    },
    {
      "inputs": [],
      "name": "renounceOwnership",
      "outputs": [],
      "stateMutability": "nonpayable",
      "type": "function"
    },
    {
      "inputs": [],
      "name": "resourceManager",
      "outputs": [
        {
          "internalType": "address",
          "name": "",
          "type": "address"
        }
      ],
      "stateMutability": "view",
      "type": "function"
    },
    {
      "inputs": [
        {
          "internalType": "address",
          "name": "_aaveV3Implementation",
          "type": "address"
        }
      ],
      "name": "setAaveV3Implementation",
      "outputs": [],
      "stateMutability": "nonpayable",
      "type": "function"
    },
    {
      "inputs": [
        {
          "internalType": "address",
          "name": "_emittedResourceImplementation",
          "type": "address"
        }
      ],
      "name": "setEmittedResourceImplementation",
      "outputs": [],
      "stateMutability": "nonpayable",
      "type": "function"
    },
    {
      "inputs": [
        {
          "internalType": "address",
          "name": "_exchange",
          "type": "address"
        }
      ],
      "name": "setExchange",
      "outputs": [],
      "stateMutability": "nonpayable",
      "type": "function"
    },
    {
      "inputs": [
        {
          "internalType": "address",
          "name": "_farmImplementation",
          "type": "address"
        }
      ],
      "name": "setFarmImplementation",
      "outputs": [],
      "stateMutability": "nonpayable",
      "type": "function"
    },
    {
      "inputs": [
        {
          "internalType": "address",
          "name": "_farmManager",
          "type": "address"
        }
      ],
      "name": "setFarmManager",
      "outputs": [],
      "stateMutability": "nonpayable",
      "type": "function"
    },
    {
      "inputs": [
        {
          "internalType": "address",
          "name": "_resourceManager",
          "type": "address"
        }
      ],
      "name": "setResourceManager",
      "outputs": [],
      "stateMutability": "nonpayable",
      "type": "function"
    },
    {
      "inputs": [
        {
          "internalType": "address",
          "name": "_transmuterImplementation",
          "type": "address"
        }
      ],
      "name": "setTransmuterImplementation",
      "outputs": [],
      "stateMutability": "nonpayable",
      "type": "function"
    },
    {
      "inputs": [
        {
          "internalType": "address",
          "name": "_world",
          "type": "address"
        }
      ],
      "name": "setWorld",
      "outputs": [],
      "stateMutability": "nonpayable",
      "type": "function"
    },
    {
      "inputs": [
        {
          "internalType": "address",
          "name": "_wrappedResourceImplementation",
          "type": "address"
        }
      ],
      "name": "setWrappedResourceImplementation",
      "outputs": [],
      "stateMutability": "nonpayable",
      "type": "function"
    },
    {
      "inputs": [
        {
          "internalType": "bool",
          "name": "_pause",
          "type": "bool"
        }
      ],
      "name": "togglePause",
      "outputs": [],
      "stateMutability": "nonpayable",
      "type": "function"
    },
    {
      "inputs": [
        {
          "internalType": "address",
          "name": "newOwner",
          "type": "address"
        }
      ],
      "name": "transferOwnership",
      "outputs": [],
      "stateMutability": "nonpayable",
      "type": "function"
    },
    {
      "inputs": [],
      "name": "transmuterImplementation",
      "outputs": [
        {
          "internalType": "address",
          "name": "",
          "type": "address"
        }
      ],
      "stateMutability": "view",
      "type": "function"
    },
    {
      "inputs": [],
      "name": "world",
      "outputs": [
        {
          "internalType": "address",
          "name": "",
          "type": "address"
        }
      ],
      "stateMutability": "view",
      "type": "function"
    },
    {
      "inputs": [],
      "name": "wrappedResourceImplementation",
      "outputs": [
        {
          "internalType": "address",
          "name": "",
          "type": "address"
        }
      ],
      "stateMutability": "view",
      "type": "function"
    }
  ],
  "bytecode": "0x608060405234801561001057600080fd5b5061001a3361001f565b61006f565b600080546001600160a01b038381166001600160a01b0319831681178455604051919092169283917f8be0079c531659141344cd1fd0a4f28419497f9722a3daafe3b4186f6b6457e09190a35050565b610dde8061007e6000396000f3fe608060405234801561001057600080fd5b506004361061018c5760003560e01c80638033ad7c116100e3578063d5c0f3a61161008c578063e3c2748911610066578063e3c27489146103c3578063eb9bc4c7146103d6578063f2fde38b146103f657600080fd5b8063d5c0f3a61461037d578063db1eea0f1461039d578063e3359b0f146103b057600080fd5b8063bade15bc116100bd578063bade15bc1461032a578063d21d7d7f1461034a578063d2f7265a1461035d57600080fd5b80638033ad7c146102c45780638456cb59146102d75780638da5cb5b1461030c57600080fd5b80634b2d07cf11610145578063706081201161011f5780637060812014610289578063715018a61461029c57806371f10b8b146102a457600080fd5b80634b2d07cf1461024357806357d159c61461026357806367b1f5df1461027657600080fd5b8063125c67dd11610176578063125c67dd146101f057806313267f081461021057806330b67baa1461022357600080fd5b8062ce4fa8146101915780630517f45b146101db575b600080fd5b6009546101b19073ffffffffffffffffffffffffffffffffffffffff1681565b60405173ffffffffffffffffffffffffffffffffffffffff90911681526020015b60405180910390f35b6101ee6101e9366004610d4d565b610409565b005b6003546101b19073ffffffffffffffffffffffffffffffffffffffff1681565b6101ee61021e366004610d4d565b6104da565b6001546101b19073ffffffffffffffffffffffffffffffffffffffff1681565b6005546101b19073ffffffffffffffffffffffffffffffffffffffff1681565b6101ee610271366004610d88565b6105a6565b6101ee610284366004610d4d565b6105f8565b6101ee610297366004610d4d565b6106c4565b6101ee610790565b6002546101b19073ffffffffffffffffffffffffffffffffffffffff1681565b6101ee6102d2366004610d4d565b6107a4565b6009546102fc9074010000000000000000000000000000000000000000900460ff1681565b60405190151581526020016101d2565b60005473ffffffffffffffffffffffffffffffffffffffff166101b1565b6007546101b19073ffffffffffffffffffffffffffffffffffffffff1681565b6101ee610358366004610d4d565b610870565b6004546101b19073ffffffffffffffffffffffffffffffffffffffff1681565b6006546101b19073ffffffffffffffffffffffffffffffffffffffff1681565b6101ee6103ab366004610d4d565b61093c565b6101ee6103be366004610d4d565b610a08565b6101ee6103d1366004610d4d565b610ad4565b6008546101b19073ffffffffffffffffffffffffffffffffffffffff1681565b6101ee610404366004610d4d565b610ba0565b610411610c57565b73ffffffffffffffffffffffffffffffffffffffff8116610493576040517f08c379a000000000000000000000000000000000000000000000000000000000815260206004820152600a60248201527f616464726573732830290000000000000000000000000000000000000000000060448201526064015b60405180910390fd5b600980547fffffffffffffffffffffffff00000000000000000000000000000000000000001673ffffffffffffffffffffffffffffffffffffffff92909216919091179055565b6104e2610c57565b73ffffffffffffffffffffffffffffffffffffffff811661055f576040517f08c379a000000000000000000000000000000000000000000000000000000000815260206004820152600a60248201527f6164647265737328302900000000000000000000000000000000000000000000604482015260640161048a565b600880547fffffffffffffffffffffffff00000000000000000000000000000000000000001673ffffffffffffffffffffffffffffffffffffffff92909216919091179055565b6105ae610c57565b6009805491151574010000000000000000000000000000000000000000027fffffffffffffffffffffff00ffffffffffffffffffffffffffffffffffffffff909216919091179055565b610600610c57565b73ffffffffffffffffffffffffffffffffffffffff811661067d576040517f08c379a000000000000000000000000000000000000000000000000000000000815260206004820152600a60248201527f6164647265737328302900000000000000000000000000000000000000000000604482015260640161048a565b600480547fffffffffffffffffffffffff00000000000000000000000000000000000000001673ffffffffffffffffffffffffffffffffffffffff92909216919091179055565b6106cc610c57565b73ffffffffffffffffffffffffffffffffffffffff8116610749576040517f08c379a000000000000000000000000000000000000000000000000000000000815260206004820152600a60248201527f6164647265737328302900000000000000000000000000000000000000000000604482015260640161048a565b600280547fffffffffffffffffffffffff00000000000000000000000000000000000000001673ffffffffffffffffffffffffffffffffffffffff92909216919091179055565b610798610c57565b6107a26000610cd8565b565b6107ac610c57565b73ffffffffffffffffffffffffffffffffffffffff8116610829576040517f08c379a000000000000000000000000000000000000000000000000000000000815260206004820152600a60248201527f6164647265737328302900000000000000000000000000000000000000000000604482015260640161048a565b600580547fffffffffffffffffffffffff00000000000000000000000000000000000000001673ffffffffffffffffffffffffffffffffffffffff92909216919091179055565b610878610c57565b73ffffffffffffffffffffffffffffffffffffffff81166108f5576040517f08c379a000000000000000000000000000000000000000000000000000000000815260206004820152600a60248201527f6164647265737328302900000000000000000000000000000000000000000000604482015260640161048a565b600680547fffffffffffffffffffffffff00000000000000000000000000000000000000001673ffffffffffffffffffffffffffffffffffffffff92909216919091179055565b610944610c57565b73ffffffffffffffffffffffffffffffffffffffff81166109c1576040517f08c379a000000000000000000000000000000000000000000000000000000000815260206004820152600a60248201527f6164647265737328302900000000000000000000000000000000000000000000604482015260640161048a565b600180547fffffffffffffffffffffffff00000000000000000000000000000000000000001673ffffffffffffffffffffffffffffffffffffffff92909216919091179055565b610a10610c57565b73ffffffffffffffffffffffffffffffffffffffff8116610a8d576040517f08c379a000000000000000000000000000000000000000000000000000000000815260206004820152600a60248201527f6164647265737328302900000000000000000000000000000000000000000000604482015260640161048a565b600780547fffffffffffffffffffffffff00000000000000000000000000000000000000001673ffffffffffffffffffffffffffffffffffffffff92909216919091179055565b610adc610c57565b73ffffffffffffffffffffffffffffffffffffffff8116610b59576040517f08c379a000000000000000000000000000000000000000000000000000000000815260206004820152600a60248201527f6164647265737328302900000000000000000000000000000000000000000000604482015260640161048a565b600380547fffffffffffffffffffffffff00000000000000000000000000000000000000001673ffffffffffffffffffffffffffffffffffffffff92909216919091179055565b610ba8610c57565b73ffffffffffffffffffffffffffffffffffffffff8116610c4b576040517f08c379a000000000000000000000000000000000000000000000000000000000815260206004820152602660248201527f4f776e61626c653a206e6577206f776e657220697320746865207a65726f206160448201527f6464726573730000000000000000000000000000000000000000000000000000606482015260840161048a565b610c5481610cd8565b50565b60005473ffffffffffffffffffffffffffffffffffffffff1633146107a2576040517f08c379a000000000000000000000000000000000000000000000000000000000815260206004820181905260248201527f4f776e61626c653a2063616c6c6572206973206e6f7420746865206f776e6572604482015260640161048a565b6000805473ffffffffffffffffffffffffffffffffffffffff8381167fffffffffffffffffffffffff0000000000000000000000000000000000000000831681178455604051919092169283917f8be0079c531659141344cd1fd0a4f28419497f9722a3daafe3b4186f6b6457e09190a35050565b600060208284031215610d5e578081fd5b813573ffffffffffffffffffffffffffffffffffffffff81168114610d81578182fd5b9392505050565b600060208284031215610d99578081fd5b81358015158114610d81578182fdfea26469706673582212202b175a605f75a82b2527a9b1cfd61d7f86c7d0883787d4ad92de6ebedf57e24a64736f6c63430008040033",
  "linkReferences": {},
  "deployedLinkReferences": {}
}