{"contracts/Game/Resources/Underlying.sol":{"Underlying":{"abi":[{"inputs":[],"name":"asset","outputs":[{"internalType":"address","name":"","type":"address"}],"stateMutability":"view","type":"function"},{"inputs":[{"internalType":"uint256","name":"amount","type":"uint256"}],"name":"deposit","outputs":[],"stateMutability":"nonpayable","type":"function"},{"inputs":[],"name":"depositToken","outputs":[{"internalType":"address","name":"","type":"address"}],"stateMutability":"view","type":"function"},{"inputs":[{"internalType":"uint256","name":"amount","type":"uint256"}],"name":"withdraw","outputs":[],"stateMutability":"nonpayable","type":"function"}],"evm":{"bytecode":{"linkReferences":{},"object":"608060405234801561001057600080fd5b5061010f806100206000396000f3fe6080604052348015600f57600080fd5b506004361060465760003560e01c80632e1a7d4d14604b57806338d52e0f14605b578063b6b55f2514604b578063c89039c51460a3575b600080fd5b6059605636600460c2565b50565b005b600054607a9073ffffffffffffffffffffffffffffffffffffffff1681565b60405173ffffffffffffffffffffffffffffffffffffffff909116815260200160405180910390f35b600154607a9073ffffffffffffffffffffffffffffffffffffffff1681565b60006020828403121560d2578081fd5b503591905056fea264697066735822122046cf9e6ec10885db7c594ee44e5e3fa5a5f85c02e970178515cceebcea767b5f64736f6c63430008040033","opcodes":"PUSH1 0x80 PUSH1 0x40 MSTORE CALLVALUE DUP1 ISZERO PUSH2 0x10 JUMPI PUSH1 0x0 DUP1 REVERT JUMPDEST POP PUSH2 0x10F DUP1 PUSH2 0x20 PUSH1 0x0 CODECOPY PUSH1 0x0 RETURN INVALID PUSH1 0x80 PUSH1 0x40 MSTORE CALLVALUE DUP1 ISZERO PUSH1 0xF JUMPI PUSH1 0x0 DUP1 REVERT JUMPDEST POP PUSH1 0x4 CALLDATASIZE LT PUSH1 0x46 JUMPI PUSH1 0x0 CALLDATALOAD PUSH1 0xE0 SHR DUP1 PUSH4 0x2E1A7D4D EQ PUSH1 0x4B JUMPI DUP1 PUSH4 0x38D52E0F EQ PUSH1 0x5B JUMPI DUP1 PUSH4 0xB6B55F25 EQ PUSH1 0x4B JUMPI DUP1 PUSH4 0xC89039C5 EQ PUSH1 0xA3 JUMPI JUMPDEST PUSH1 0x0 DUP1 REVERT JUMPDEST PUSH1 0x59 PUSH1 0x56 CALLDATASIZE PUSH1 0x4 PUSH1 0xC2 JUMP JUMPDEST POP JUMP JUMPDEST STOP JUMPDEST PUSH1 0x0 SLOAD PUSH1 0x7A SWAP1 PUSH20 0xFFFFFFFFFFFFFFFFFFFFFFFFFFFFFFFFFFFFFFFF AND DUP2 JUMP JUMPDEST PUSH1 0x40 MLOAD PUSH20 0xFFFFFFFFFFFFFFFFFFFFFFFFFFFFFFFFFFFFFFFF SWAP1 SWAP2 AND DUP2 MSTORE PUSH1 0x20 ADD PUSH1 0x40 MLOAD DUP1 SWAP2 SUB SWAP1 RETURN JUMPDEST PUSH1 0x1 SLOAD PUSH1 0x7A SWAP1 PUSH20 0xFFFFFFFFFFFFFFFFFFFFFFFFFFFFFFFFFFFFFFFF AND DUP2 JUMP JUMPDEST PUSH1 0x0 PUSH1 0x20 DUP3 DUP5 SUB SLT ISZERO PUSH1 0xD2 JUMPI DUP1 DUP2 REVERT JUMPDEST POP CALLDATALOAD SWAP2 SWAP1 POP JUMP INVALID LOG2 PUSH5 0x6970667358 0x22 SLT KECCAK256 CHAINID 0xCF SWAP15 PUSH15 0xC10885DB7C594EE44E5E3FA5A5F85C MUL 0xE9 PUSH17 0x178515CCEEBCEA767B5F64736F6C634300 ADDMOD DIV STOP CALLER "},"methodIdentifiers":{"asset()":"38d52e0f","deposit(uint256)":"b6b55f25","depositToken()":"c89039c5","withdraw(uint256)":"2e1a7d4d"}}}}}