{
  "_format": "hh-sol-artifact-1",
  "contractName": "World",
  "sourceName": "contracts/Game/Map/World.sol",
  "abi": [
    {
      "inputs": [
        {
          "internalType": "uint256",
          "name": "_plotPrice",
          "type": "uint256"
        },
        {
          "internalType": "address",
          "name": "_farmImplementation",
          "type": "address"
        },
        {
          "internalType": "address",
          "name": "_gameManager",
          "type": "address"
        },
        {
          "internalType": "uint256",
          "name": "_maxXY",
          "type": "uint256"
        }
      ],
      "stateMutability": "nonpayable",
      "type": "constructor"
    },
    {
      "anonymous": false,
      "inputs": [
        {
          "indexed": true,
          "internalType": "address",
          "name": "previousOwner",
          "type": "address"
        },
        {
          "indexed": true,
          "internalType": "address",
          "name": "newOwner",
          "type": "address"
        }
      ],
      "name": "OwnershipTransferred",
      "type": "event"
    },
    {
      "stateMutability": "payable",
      "type": "fallback"
    },
    {
      "inputs": [
        {
          "internalType": "uint256",
          "name": "x",
          "type": "uint256"
        },
        {
          "internalType": "uint256",
          "name": "y",
          "type": "uint256"
        }
      ],
      "name": "buyPlot",
      "outputs": [],
      "stateMutability": "payable",
      "type": "function"
    },
    {
      "inputs": [
        {
          "internalType": "uint256",
          "name": "x1",
          "type": "uint256"
        },
        {
          "internalType": "uint256",
          "name": "x2",
          "type": "uint256"
        },
        {
          "internalType": "uint256",
          "name": "y1",
          "type": "uint256"
        },
        {
          "internalType": "uint256",
          "name": "y2",
          "type": "uint256"
        }
      ],
      "name": "distance",
      "outputs": [
        {
          "internalType": "uint256",
          "name": "d",
          "type": "uint256"
        }
      ],
      "stateMutability": "view",
      "type": "function"
    },
    {
      "inputs": [
        {
          "internalType": "uint256",
          "name": "_newMaxXY",
          "type": "uint256"
        }
      ],
      "name": "expandMap",
      "outputs": [],
      "stateMutability": "nonpayable",
      "type": "function"
    },
    {
      "inputs": [
        {
          "internalType": "uint256",
          "name": "x",
          "type": "uint256"
        },
        {
          "internalType": "uint256",
          "name": "y",
          "type": "uint256"
        }
      ],
      "name": "getFarmAt",
      "outputs": [
        {
          "internalType": "address",
          "name": "",
          "type": "address"
        }
      ],
      "stateMutability": "view",
      "type": "function"
    },
    {
      "inputs": [],
      "name": "owner",
      "outputs": [
        {
          "internalType": "address",
          "name": "",
          "type": "address"
        }
      ],
      "stateMutability": "view",
      "type": "function"
    },
    {
      "inputs": [],
      "name": "renounceOwnership",
      "outputs": [],
      "stateMutability": "nonpayable",
      "type": "function"
    },
    {
      "inputs": [
        {
          "internalType": "uint256",
          "name": "x",
          "type": "uint256"
        },
        {
          "internalType": "uint256",
          "name": "y",
          "type": "uint256"
        }
      ],
      "name": "togglePVP",
      "outputs": [],
      "stateMutability": "nonpayable",
      "type": "function"
    },
    {
      "inputs": [
        {
          "internalType": "address",
          "name": "newOwner",
          "type": "address"
        }
      ],
      "name": "transferOwnership",
      "outputs": [],
      "stateMutability": "nonpayable",
      "type": "function"
    },
    {
      "stateMutability": "payable",
      "type": "receive"
    }
  ],
  "bytecode": "0x608060405234801561001057600080fd5b50604051610cdb380380610cdb83398101604081905261002f916100de565b61003833610072565b600893909355600480546001600160a01b039384166001600160a01b03199182161790915560058054929093169116179055600755610121565b600080546001600160a01b038381166001600160a01b0319831681178455604051919092169283917f8be0079c531659141344cd1fd0a4f28419497f9722a3daafe3b4186f6b6457e09190a35050565b80516001600160a01b03811681146100d957600080fd5b919050565b600080600080608085870312156100f3578384fd5b84519350610103602086016100c2565b9250610111604086016100c2565b6060959095015193969295505050565b610bab806101306000396000f3fe6080604052600436106100795760003560e01c8063abb571281161004b578063abb5712814610128578063c5b417ec14610156578063f2fde38b14610169578063f62a7e541461018957005b806327994007146100825780635286ffc8146100a2578063715018a6146100c25780638da5cb5b146100d757005b3661008057005b005b34801561008e57600080fd5b5061008061009d366004610a4e565b6101d7565b3480156100ae57600080fd5b506100806100bd366004610a66565b610254565b3480156100ce57600080fd5b506100806103db565b3480156100e357600080fd5b5060005473ffffffffffffffffffffffffffffffffffffffff165b60405173ffffffffffffffffffffffffffffffffffffffff90911681526020015b60405180910390f35b34801561013457600080fd5b50610148610143366004610a87565b6103ef565b60405190815260200161011f565b610080610164366004610a66565b610499565b34801561017557600080fd5b50610080610184366004610a0f565b610663565b34801561019557600080fd5b506100fe6101a4366004610a66565b600091825260016020908152604080842092845291905290205473ffffffffffffffffffffffffffffffffffffffff1690565b6101df61071a565b600754811161024f576040517f08c379a000000000000000000000000000000000000000000000000000000000815260206004820152600c60248201527f496e76616c69642053697a65000000000000000000000000000000000000000060448201526064015b60405180910390fd5b600755565b60008281526001602090815260408083208484528252918290205482517f8da5cb5b000000000000000000000000000000000000000000000000000000008152925173ffffffffffffffffffffffffffffffffffffffff9091169233928492638da5cb5b926004808201939291829003018186803b1580156102d557600080fd5b505afa1580156102e9573d6000803e3d6000fd5b505050506040513d601f19601f8201168201806040525081019061030d9190610a32565b73ffffffffffffffffffffffffffffffffffffffff161461038a576040517f08c379a000000000000000000000000000000000000000000000000000000000815260206004820152600f60248201527f6f6e6c79206661726d206f776e657200000000000000000000000000000000006044820152606401610246565b73ffffffffffffffffffffffffffffffffffffffff16600090815260036020526040902080547fffffffffffffffffffffffffffffffffffffffffffffffffffffffffffffff001660011790555050565b6103e361071a565b6103ed600061079b565b565b6000808486116103ff5784610401565b855b905060008587116104125786610414565b855b905060006104228280610ad0565b61042c8480610ad0565b6104369190610b0d565b905060008587116104475785610449565b865b9050600086881161045a578761045c565b865b9050600061046a8280610ad0565b6104748480610ad0565b61047e9190610b0d565b905061048a8482610ab8565b9b9a5050505050505050505050565b600082815260016020908152604080832084845290915290205473ffffffffffffffffffffffffffffffffffffffff1615610530576040517f08c379a000000000000000000000000000000000000000000000000000000000815260206004820152600a60248201527f506c6f74204f776e6564000000000000000000000000000000000000000000006044820152606401610246565b60085434101561059c576040517f08c379a000000000000000000000000000000000000000000000000000000000815260206004820152600960248201527f56616c7565204c6f7700000000000000000000000000000000000000000000006044820152606401610246565b600754821080156105ae575060075481105b610614576040517f08c379a000000000000000000000000000000000000000000000000000000000815260206004820152600b60248201527f4f757473696465204d61700000000000000000000000000000000000000000006044820152606401610246565b6000828152600160209081526040808320848452909152902080547fffffffffffffffffffffffff0000000000000000000000000000000000000000163317905561065f8282610810565b5050565b61066b61071a565b73ffffffffffffffffffffffffffffffffffffffff811661070e576040517f08c379a000000000000000000000000000000000000000000000000000000000815260206004820152602660248201527f4f776e61626c653a206e6577206f776e657220697320746865207a65726f206160448201527f64647265737300000000000000000000000000000000000000000000000000006064820152608401610246565b6107178161079b565b50565b60005473ffffffffffffffffffffffffffffffffffffffff1633146103ed576040517f08c379a000000000000000000000000000000000000000000000000000000000815260206004820181905260248201527f4f776e61626c653a2063616c6c6572206973206e6f7420746865206f776e65726044820152606401610246565b6000805473ffffffffffffffffffffffffffffffffffffffff8381167fffffffffffffffffffffffff0000000000000000000000000000000000000000831681178455604051919092169283917f8be0079c531659141344cd1fd0a4f28419497f9722a3daafe3b4186f6b6457e09190a35050565b6004546000906108359073ffffffffffffffffffffffffffffffffffffffff1661092d565b6005546040517f8ed57ab200000000000000000000000000000000000000000000000000000000815233600482015273ffffffffffffffffffffffffffffffffffffffff91821660248201526044810186905260648101859052919250821690638ed57ab290608401600060405180830381600087803b1580156108b857600080fd5b505af11580156108cc573d6000803e3d6000fd5b505050600093845250600160209081526040808520938552929052912080547fffffffffffffffffffffffff00000000000000000000000000000000000000001673ffffffffffffffffffffffffffffffffffffffff909216919091179055565b60006040517f3d602d80600a3d3981f3363d3d373d3d3d363d7300000000000000000000000081528260601b60148201527f5af43d82803e903d91602b57fd5bf3000000000000000000000000000000000060288201526037816000f091505073ffffffffffffffffffffffffffffffffffffffff8116610a0a576040517f08c379a000000000000000000000000000000000000000000000000000000000815260206004820152601660248201527f455243313136373a20637265617465206661696c6564000000000000000000006044820152606401610246565b919050565b600060208284031215610a20578081fd5b8135610a2b81610b53565b9392505050565b600060208284031215610a43578081fd5b8151610a2b81610b53565b600060208284031215610a5f578081fd5b5035919050565b60008060408385031215610a78578081fd5b50508035926020909101359150565b60008060008060808587031215610a9c578182fd5b5050823594602084013594506040840135936060013592509050565b60008219821115610acb57610acb610b24565b500190565b6000817fffffffffffffffffffffffffffffffffffffffffffffffffffffffffffffffff0483118215151615610b0857610b08610b24565b500290565b600082821015610b1f57610b1f610b24565b500390565b7f4e487b7100000000000000000000000000000000000000000000000000000000600052601160045260246000fd5b73ffffffffffffffffffffffffffffffffffffffff8116811461071757600080fdfea264697066735822122023a7ba56b8763523276171b940dd3dc69639b527dc0c6c7ed201e725bb5b1c6264736f6c63430008040033",
  "linkReferences": {},
  "deployedLinkReferences": {}
}