{
  "_format": "hh-sol-artifact-1",
  "contractName": "EmittedResource",
  "sourceName": "contracts/Game/Resources/EmittedResource.sol",
  "abi": [
    {
      "inputs": [],
      "stateMutability": "nonpayable",
      "type": "constructor"
    },
    {
      "anonymous": false,
      "inputs": [
        {
          "indexed": true,
          "internalType": "address",
          "name": "owner",
          "type": "address"
        },
        {
          "indexed": true,
          "internalType": "address",
          "name": "spender",
          "type": "address"
        },
        {
          "indexed": false,
          "internalType": "uint256",
          "name": "value",
          "type": "uint256"
        }
      ],
      "name": "Approval",
      "type": "event"
    },
    {
      "anonymous": false,
      "inputs": [
        {
          "indexed": true,
          "internalType": "address",
          "name": "from",
          "type": "address"
        },
        {
          "indexed": true,
          "internalType": "address",
          "name": "to",
          "type": "address"
        },
        {
          "indexed": false,
          "internalType": "uint256",
          "name": "value",
          "type": "uint256"
        }
      ],
      "name": "Transfer",
      "type": "event"
    },
    {
      "inputs": [
        {
          "internalType": "address",
          "name": "owner",
          "type": "address"
        },
        {
          "internalType": "address",
          "name": "spender",
          "type": "address"
        }
      ],
      "name": "allowance",
      "outputs": [
        {
          "internalType": "uint256",
          "name": "",
          "type": "uint256"
        }
      ],
      "stateMutability": "view",
      "type": "function"
    },
    {
      "inputs": [
        {
          "internalType": "address",
          "name": "spender",
          "type": "address"
        },
        {
          "internalType": "uint256",
          "name": "amount",
          "type": "uint256"
        }
      ],
      "name": "approve",
      "outputs": [
        {
          "internalType": "bool",
          "name": "",
          "type": "bool"
        }
      ],
      "stateMutability": "nonpayable",
      "type": "function"
    },
    {
      "inputs": [
        {
          "internalType": "address",
          "name": "account",
          "type": "address"
        }
      ],
      "name": "balanceOf",
      "outputs": [
        {
          "internalType": "uint256",
          "name": "",
          "type": "uint256"
        }
      ],
      "stateMutability": "view",
      "type": "function"
    },
    {
      "inputs": [
        {
          "internalType": "address",
          "name": "from",
          "type": "address"
        },
        {
          "internalType": "uint256",
          "name": "amount",
          "type": "uint256"
        }
      ],
      "name": "burn",
      "outputs": [],
      "stateMutability": "nonpayable",
      "type": "function"
    },
    {
      "inputs": [
        {
          "internalType": "address",
          "name": "_minter",
          "type": "address"
        },
        {
          "internalType": "bool",
          "name": "state",
          "type": "bool"
        }
      ],
      "name": "changeMinter",
      "outputs": [],
      "stateMutability": "nonpayable",
      "type": "function"
    },
    {
      "inputs": [],
      "name": "decimals",
      "outputs": [
        {
          "internalType": "uint8",
          "name": "",
          "type": "uint8"
        }
      ],
      "stateMutability": "view",
      "type": "function"
    },
    {
      "inputs": [
        {
          "internalType": "address",
          "name": "spender",
          "type": "address"
        },
        {
          "internalType": "uint256",
          "name": "subtractedValue",
          "type": "uint256"
        }
      ],
      "name": "decreaseAllowance",
      "outputs": [
        {
          "internalType": "bool",
          "name": "",
          "type": "bool"
        }
      ],
      "stateMutability": "nonpayable",
      "type": "function"
    },
    {
      "inputs": [
        {
          "internalType": "address",
          "name": "spender",
          "type": "address"
        },
        {
          "internalType": "uint256",
          "name": "addedValue",
          "type": "uint256"
        }
      ],
      "name": "increaseAllowance",
      "outputs": [
        {
          "internalType": "bool",
          "name": "",
          "type": "bool"
        }
      ],
      "stateMutability": "nonpayable",
      "type": "function"
    },
    {
      "inputs": [
        {
          "internalType": "string",
          "name": "__name",
          "type": "string"
        },
        {
          "internalType": "string",
          "name": "__symbol",
          "type": "string"
        },
        {
          "internalType": "uint256",
          "name": "_emissionRate",
          "type": "uint256"
        },
        {
          "internalType": "address",
          "name": "_gameManager",
          "type": "address"
        }
      ],
      "name": "initialiser",
      "outputs": [],
      "stateMutability": "nonpayable",
      "type": "function"
    },
    {
      "inputs": [
        {
          "internalType": "address",
          "name": "to",
          "type": "address"
        },
        {
          "internalType": "uint256",
          "name": "level",
          "type": "uint256"
        },
        {
          "internalType": "uint256",
          "name": "time",
          "type": "uint256"
        }
      ],
      "name": "mint",
      "outputs": [],
      "stateMutability": "nonpayable",
      "type": "function"
    },
    {
      "inputs": [
        {
          "internalType": "uint256",
          "name": "level",
          "type": "uint256"
        },
        {
          "internalType": "uint256",
          "name": "time",
          "type": "uint256"
        }
      ],
      "name": "mintAmount",
      "outputs": [
        {
          "internalType": "uint256",
          "name": "amount",
          "type": "uint256"
        }
      ],
      "stateMutability": "view",
      "type": "function"
    },
    {
      "inputs": [],
      "name": "name",
      "outputs": [
        {
          "internalType": "string",
          "name": "",
          "type": "string"
        }
      ],
      "stateMutability": "view",
      "type": "function"
    },
    {
      "inputs": [],
      "name": "owner",
      "outputs": [
        {
          "internalType": "address",
          "name": "",
          "type": "address"
        }
      ],
      "stateMutability": "view",
      "type": "function"
    },
    {
      "inputs": [],
      "name": "symbol",
      "outputs": [
        {
          "internalType": "string",
          "name": "",
          "type": "string"
        }
      ],
      "stateMutability": "view",
      "type": "function"
    },
    {
      "inputs": [],
      "name": "totalSupply",
      "outputs": [
        {
          "internalType": "uint256",
          "name": "",
          "type": "uint256"
        }
      ],
      "stateMutability": "view",
      "type": "function"
    },
    {
      "inputs": [
        {
          "internalType": "address",
          "name": "to",
          "type": "address"
        },
        {
          "internalType": "uint256",
          "name": "amount",
          "type": "uint256"
        }
      ],
      "name": "transfer",
      "outputs": [
        {
          "internalType": "bool",
          "name": "",
          "type": "bool"
        }
      ],
      "stateMutability": "nonpayable",
      "type": "function"
    },
    {
      "inputs": [
        {
          "internalType": "address",
          "name": "from",
          "type": "address"
        },
        {
          "internalType": "address",
          "name": "to",
          "type": "address"
        },
        {
          "internalType": "uint256",
          "name": "amount",
          "type": "uint256"
        }
      ],
      "name": "transferFrom",
      "outputs": [
        {
          "internalType": "bool",
          "name": "",
          "type": "bool"
        }
      ],
      "stateMutability": "nonpayable",
      "type": "function"
    }
  ],
  "bytecode": "0x6080604052603c6007553480156200001657600080fd5b5060408051602080820180845260008084528451928301909452928152815191929091620000479160039162000079565b5080516200005d90600490602084019062000079565b50506009805460ff60a01b1916600160a01b179055506200015c565b82805462000087906200011f565b90600052602060002090601f016020900481019282620000ab5760008555620000f6565b82601f10620000c657805160ff1916838001178555620000f6565b82800160010185558215620000f6579182015b82811115620000f6578251825591602001919060010190620000d9565b506200010492915062000108565b5090565b5b8082111562000104576000815560010162000109565b600181811c908216806200013457607f821691505b602082108114156200015657634e487b7160e01b600052602260045260246000fd5b50919050565b611812806200016c6000396000f3fe608060405234801561001057600080fd5b506004361061011b5760003560e01c806339509351116100b257806395d89b4111610081578063a457c2d711610066578063a457c2d714610290578063a9059cbb146102a3578063dd62ed3e146102b657600080fd5b806395d89b41146102755780639dc29fac1461027d57600080fd5b806339509351146101d45780635e739afb146101e757806370a08231146101fa5780638da5cb5b1461023057600080fd5b806318160ddd116100ee57806318160ddd146101975780631d56c6091461019f57806323b872dd146101b2578063313ce567146101c557600080fd5b806306fdde0314610120578063095ea7b31461013e5780630d1e3e9814610161578063156e29f614610182575b600080fd5b6101286102fc565b604051610135919061162b565b60405180910390f35b61015161014c3660046114c5565b61038e565b6040519015158152602001610135565b61017461016f3660046115a1565b6103a8565b604051908152602001610135565b6101956101903660046114f0565b61040f565b005b600254610174565b6101956101ad366004611494565b6104ab565b6101516101c0366004611454565b610582565b60405160128152602001610135565b6101516101e23660046114c5565b6105a6565b6101956101f5366004611524565b6105f2565b6101746102083660046113dd565b73ffffffffffffffffffffffffffffffffffffffff1660009081526020819052604090205490565b6009546102509073ffffffffffffffffffffffffffffffffffffffff1681565b60405173ffffffffffffffffffffffffffffffffffffffff9091168152602001610135565b61012861083b565b61019561028b3660046114c5565b61084a565b61015161029e3660046114c5565b6108d1565b6101516102b13660046114c5565b6109a2565b6101746102c436600461141c565b73ffffffffffffffffffffffffffffffffffffffff918216600090815260016020908152604080832093909416825291909152205490565b6060600a805461030b90611705565b80601f016020809104026020016040519081016040528092919081815260200182805461033790611705565b80156103845780601f1061035957610100808354040283529160200191610384565b820191906000526020600020905b81548152906001019060200180831161036757829003601f168201915b5050505050905090565b60003361039c8185856109b0565b60019150505b92915050565b60008183600654846103ba91906116b1565b6103c491906116b1565b6103ce9190611678565b90506103a26040518060400160405280600b81526020017f6d696e746564203a20257300000000000000000000000000000000000000000081525082610b64565b3360009081526008602052604090205460ff1661048d576040517f08c379a000000000000000000000000000000000000000000000000000000000815260206004820152600760248201527f214d696e7465720000000000000000000000000000000000000000000000000060448201526064015b60405180910390fd5b600061049983836103a8565b90506104a58482610bf5565b50505050565b60095473ffffffffffffffffffffffffffffffffffffffff16331461052c576040517f08c379a000000000000000000000000000000000000000000000000000000000815260206004820152600960248201527f4f6e6c794f776e657200000000000000000000000000000000000000000000006044820152606401610484565b73ffffffffffffffffffffffffffffffffffffffff91909116600090815260086020526040902080547fffffffffffffffffffffffffffffffffffffffffffffffffffffffffffffff0016911515919091179055565b600033610590858285610d15565b61059b858585610de6565b506001949350505050565b33600081815260016020908152604080832073ffffffffffffffffffffffffffffffffffffffff8716845290915281205490919061039c90829086906105ed908790611660565b6109b0565b60095474010000000000000000000000000000000000000000900460ff1615610677576040517f08c379a000000000000000000000000000000000000000000000000000000000815260206004820152600b60248201527f696e746961696c697365640000000000000000000000000000000000000000006044820152606401610484565b600980547fffffffffffffffffffffff00ffffffffffffffffffffffffffffffffffffffff167401000000000000000000000000000000000000000017905582516106c990600b90602086019061129f565b5083516106dd90600a90602087019061129f565b506006829055600580547fffffffffffffffffffffffff00000000000000000000000000000000000000001673ffffffffffffffffffffffffffffffffffffffff8316908117909155604080517f4b2d07cf0000000000000000000000000000000000000000000000000000000081529051600192600892600092634b2d07cf91600480820192602092909190829003018186803b15801561077e57600080fd5b505afa158015610792573d6000803e3d6000fd5b505050506040513d601f19601f820116820180604052508101906107b69190611400565b73ffffffffffffffffffffffffffffffffffffffff168152602081019190915260400160002080549115157fffffffffffffffffffffffffffffffffffffffffffffffffffffffffffffff009092169190911790555050600980547fffffffffffffffffffffffff000000000000000000000000000000000000000016331790555050565b6060600b805461030b90611705565b3360009081526008602052604090205460ff166108c3576040517f08c379a000000000000000000000000000000000000000000000000000000000815260206004820152600760248201527f214d696e746572000000000000000000000000000000000000000000000000006044820152606401610484565b6108cd8282611099565b5050565b33600081815260016020908152604080832073ffffffffffffffffffffffffffffffffffffffff8716845290915281205490919083811015610995576040517f08c379a000000000000000000000000000000000000000000000000000000000815260206004820152602560248201527f45524332303a2064656372656173656420616c6c6f77616e63652062656c6f7760448201527f207a65726f0000000000000000000000000000000000000000000000000000006064820152608401610484565b61059b82868684036109b0565b60003361039c818585610de6565b73ffffffffffffffffffffffffffffffffffffffff8316610a52576040517f08c379a0000000000000000000000000000000000000000000000000000000008152602060048201526024808201527f45524332303a20617070726f76652066726f6d20746865207a65726f2061646460448201527f72657373000000000000000000000000000000000000000000000000000000006064820152608401610484565b73ffffffffffffffffffffffffffffffffffffffff8216610af5576040517f08c379a000000000000000000000000000000000000000000000000000000000815260206004820152602260248201527f45524332303a20617070726f766520746f20746865207a65726f20616464726560448201527f73730000000000000000000000000000000000000000000000000000000000006064820152608401610484565b73ffffffffffffffffffffffffffffffffffffffff83811660008181526001602090815260408083209487168084529482529182902085905590518481527f8c5be1e5ebec7d5bd14f71427d1e84f3dd0314c0f7b2291e5b200ac8c7c3b92591015b60405180910390a3505050565b6108cd8282604051602401610b7a92919061163e565b604080517fffffffffffffffffffffffffffffffffffffffffffffffffffffffffffffffe08184030181529190526020810180517bffffffffffffffffffffffffffffffffffffffffffffffffffffffff167fb60e72cc0000000000000000000000000000000000000000000000000000000017905261127e565b73ffffffffffffffffffffffffffffffffffffffff8216610c72576040517f08c379a000000000000000000000000000000000000000000000000000000000815260206004820152601f60248201527f45524332303a206d696e7420746f20746865207a65726f2061646472657373006044820152606401610484565b8060026000828254610c849190611660565b909155505073ffffffffffffffffffffffffffffffffffffffff821660009081526020819052604081208054839290610cbe908490611660565b909155505060405181815273ffffffffffffffffffffffffffffffffffffffff8316906000907fddf252ad1be2c89b69c2b068fc378daa952ba7f163c4a11628f55a4df523b3ef9060200160405180910390a35050565b73ffffffffffffffffffffffffffffffffffffffff8381166000908152600160209081526040808320938616835292905220547fffffffffffffffffffffffffffffffffffffffffffffffffffffffffffffffff81146104a55781811015610dd9576040517f08c379a000000000000000000000000000000000000000000000000000000000815260206004820152601d60248201527f45524332303a20696e73756666696369656e7420616c6c6f77616e63650000006044820152606401610484565b6104a584848484036109b0565b73ffffffffffffffffffffffffffffffffffffffff8316610e89576040517f08c379a000000000000000000000000000000000000000000000000000000000815260206004820152602560248201527f45524332303a207472616e736665722066726f6d20746865207a65726f20616460448201527f64726573730000000000000000000000000000000000000000000000000000006064820152608401610484565b73ffffffffffffffffffffffffffffffffffffffff8216610f2c576040517f08c379a000000000000000000000000000000000000000000000000000000000815260206004820152602360248201527f45524332303a207472616e7366657220746f20746865207a65726f206164647260448201527f65737300000000000000000000000000000000000000000000000000000000006064820152608401610484565b73ffffffffffffffffffffffffffffffffffffffff831660009081526020819052604090205481811015610fe2576040517f08c379a000000000000000000000000000000000000000000000000000000000815260206004820152602660248201527f45524332303a207472616e7366657220616d6f756e742065786365656473206260448201527f616c616e636500000000000000000000000000000000000000000000000000006064820152608401610484565b73ffffffffffffffffffffffffffffffffffffffff808516600090815260208190526040808220858503905591851681529081208054849290611026908490611660565b925050819055508273ffffffffffffffffffffffffffffffffffffffff168473ffffffffffffffffffffffffffffffffffffffff167fddf252ad1be2c89b69c2b068fc378daa952ba7f163c4a11628f55a4df523b3ef8460405161108c91815260200190565b60405180910390a36104a5565b73ffffffffffffffffffffffffffffffffffffffff821661113c576040517f08c379a000000000000000000000000000000000000000000000000000000000815260206004820152602160248201527f45524332303a206275726e2066726f6d20746865207a65726f2061646472657360448201527f73000000000000000000000000000000000000000000000000000000000000006064820152608401610484565b73ffffffffffffffffffffffffffffffffffffffff8216600090815260208190526040902054818110156111f2576040517f08c379a000000000000000000000000000000000000000000000000000000000815260206004820152602260248201527f45524332303a206275726e20616d6f756e7420657863656564732062616c616e60448201527f63650000000000000000000000000000000000000000000000000000000000006064820152608401610484565b73ffffffffffffffffffffffffffffffffffffffff8316600090815260208190526040812083830390556002805484929061122e9084906116ee565b909155505060405182815260009073ffffffffffffffffffffffffffffffffffffffff8516907fddf252ad1be2c89b69c2b068fc378daa952ba7f163c4a11628f55a4df523b3ef90602001610b57565b80516a636f6e736f6c652e6c6f67602083016000808483855afa5050505050565b8280546112ab90611705565b90600052602060002090601f0160209004810192826112cd5760008555611313565b82601f106112e657805160ff1916838001178555611313565b82800160010185558215611313579182015b828111156113135782518255916020019190600101906112f8565b5061131f929150611323565b5090565b5b8082111561131f5760008155600101611324565b600082601f830112611348578081fd5b813567ffffffffffffffff8082111561136357611363611788565b604051601f83017fffffffffffffffffffffffffffffffffffffffffffffffffffffffffffffffe0908116603f011681019082821181831017156113a9576113a9611788565b816040528381528660208588010111156113c1578485fd5b8360208701602083013792830160200193909352509392505050565b6000602082840312156113ee578081fd5b81356113f9816117b7565b9392505050565b600060208284031215611411578081fd5b81516113f9816117b7565b6000806040838503121561142e578081fd5b8235611439816117b7565b91506020830135611449816117b7565b809150509250929050565b600080600060608486031215611468578081fd5b8335611473816117b7565b92506020840135611483816117b7565b929592945050506040919091013590565b600080604083850312156114a6578182fd5b82356114b1816117b7565b915060208301358015158114611449578182fd5b600080604083850312156114d7578182fd5b82356114e2816117b7565b946020939093013593505050565b600080600060608486031215611504578283fd5b833561150f816117b7565b95602085013595506040909401359392505050565b60008060008060808587031215611539578081fd5b843567ffffffffffffffff80821115611550578283fd5b61155c88838901611338565b95506020870135915080821115611571578283fd5b5061157e87828801611338565b935050604085013591506060850135611596816117b7565b939692955090935050565b600080604083850312156115b3578182fd5b50508035926020909101359150565b60008151808452815b818110156115e7576020818501810151868301820152016115cb565b818111156115f85782602083870101525b50601f017fffffffffffffffffffffffffffffffffffffffffffffffffffffffffffffffe0169290920160200192915050565b6020815260006113f960208301846115c2565b60408152600061165160408301856115c2565b90508260208301529392505050565b6000821982111561167357611673611759565b500190565b6000826116ac577f4e487b710000000000000000000000000000000000000000000000000000000081526012600452602481fd5b500490565b6000817fffffffffffffffffffffffffffffffffffffffffffffffffffffffffffffffff04831182151516156116e9576116e9611759565b500290565b60008282101561170057611700611759565b500390565b600181811c9082168061171957607f821691505b60208210811415611753577f4e487b7100000000000000000000000000000000000000000000000000000000600052602260045260246000fd5b50919050565b7f4e487b7100000000000000000000000000000000000000000000000000000000600052601160045260246000fd5b7f4e487b7100000000000000000000000000000000000000000000000000000000600052604160045260246000fd5b73ffffffffffffffffffffffffffffffffffffffff811681146117d957600080fd5b5056fea2646970667358221220422274e2e00b895190f218310611fa1ee539a41a8844fa2aea122f6380e7935864736f6c63430008040033",
  "linkReferences": {},
  "deployedLinkReferences": {}
}