{
  "_format": "hh-sol-artifact-1",
  "contractName": "Example",
  "sourceName": "contracts/Example.sol",
  "abi": [
    {
      "inputs": [],
      "stateMutability": "nonpayable",
      "type": "constructor"
    },
    {
      "anonymous": false,
      "inputs": [
        {
          "indexed": true,
          "internalType": "address",
          "name": "previousOwner",
          "type": "address"
        },
        {
          "indexed": true,
          "internalType": "address",
          "name": "newOwner",
          "type": "address"
        }
      ],
      "name": "OwnershipTransferred",
      "type": "event"
    },
    {
      "stateMutability": "payable",
      "type": "fallback"
    },
    {
      "inputs": [],
      "name": "owner",
      "outputs": [
        {
          "internalType": "address",
          "name": "",
          "type": "address"
        }
      ],
      "stateMutability": "view",
      "type": "function"
    },
    {
      "inputs": [],
      "name": "renounceOwnership",
      "outputs": [],
      "stateMutability": "nonpayable",
      "type": "function"
    },
    {
      "inputs": [],
      "name": "start",
      "outputs": [],
      "stateMutability": "nonpayable",
      "type": "function"
    },
    {
      "inputs": [
        {
          "internalType": "address",
          "name": "newOwner",
          "type": "address"
        }
      ],
      "name": "transferOwnership",
      "outputs": [],
      "stateMutability": "nonpayable",
      "type": "function"
    },
    {
      "stateMutability": "payable",
      "type": "receive"
    }
  ],
  "bytecode": "0x608060405234801561001057600080fd5b5061001a3361001f565b61006f565b600080546001600160a01b038381166001600160a01b0319831681178455604051919092169283917f8be0079c531659141344cd1fd0a4f28419497f9722a3daafe3b4186f6b6457e09190a35050565b6102fd8061007e6000396000f3fe6080604052600436106100405760003560e01c8063715018a6146100495780638da5cb5b1461005e578063be9a655514610097578063f2fde38b146100a657005b3661004757005b005b34801561005557600080fd5b506100476100c6565b34801561006a57600080fd5b506000546040805173ffffffffffffffffffffffffffffffffffffffff9092168252519081900360200190f35b3480156100a357600080fd5b50005b3480156100b257600080fd5b506100476100c136600461028c565b6100da565b6100ce610196565b6100d86000610217565b565b6100e2610196565b73ffffffffffffffffffffffffffffffffffffffff811661018a576040517f08c379a000000000000000000000000000000000000000000000000000000000815260206004820152602660248201527f4f776e61626c653a206e6577206f776e657220697320746865207a65726f206160448201527f646472657373000000000000000000000000000000000000000000000000000060648201526084015b60405180910390fd5b61019381610217565b50565b60005473ffffffffffffffffffffffffffffffffffffffff1633146100d8576040517f08c379a000000000000000000000000000000000000000000000000000000000815260206004820181905260248201527f4f776e61626c653a2063616c6c6572206973206e6f7420746865206f776e65726044820152606401610181565b6000805473ffffffffffffffffffffffffffffffffffffffff8381167fffffffffffffffffffffffff0000000000000000000000000000000000000000831681178455604051919092169283917f8be0079c531659141344cd1fd0a4f28419497f9722a3daafe3b4186f6b6457e09190a35050565b60006020828403121561029d578081fd5b813573ffffffffffffffffffffffffffffffffffffffff811681146102c0578182fd5b939250505056fea26469706673582212203842f6e22e3cb0d77b4c864b1117fa9d497d2b52a9d6e5cdfd05296e4beac9f564736f6c63430008040033",
  "linkReferences": {},
  "deployedLinkReferences": {}
}